{
  "_format": "hh-sol-artifact-1",
  "contractName": "NFTSTORE",
  "sourceName": "contracts/NFTSTORE.sol",
  "address": "0x52e20B5A51F73bCDD402A0586215aE189f7C4757",
  "abi": [
    {
      "inputs": [],
      "stateMutability": "nonpayable",
      "type": "constructor"
    },
    {
      "inputs": [
        {
          "internalType": "address",
          "name": "sender",
          "type": "address"
        },
        {
          "internalType": "uint256",
          "name": "tokenId",
          "type": "uint256"
        },
        {
          "internalType": "address",
          "name": "owner",
          "type": "address"
        }
      ],
      "name": "ERC721IncorrectOwner",
      "type": "error"
    },
    {
      "inputs": [
        {
          "internalType": "address",
          "name": "operator",
          "type": "address"
        },
        {
          "internalType": "uint256",
          "name": "tokenId",
          "type": "uint256"
        }
      ],
      "name": "ERC721InsufficientApproval",
      "type": "error"
    },
    {
      "inputs": [
        {
          "internalType": "address",
          "name": "approver",
          "type": "address"
        }
      ],
      "name": "ERC721InvalidApprover",
      "type": "error"
    },
    {
      "inputs": [
        {
          "internalType": "address",
          "name": "operator",
          "type": "address"
        }
      ],
      "name": "ERC721InvalidOperator",
      "type": "error"
    },
    {
      "inputs": [
        {
          "internalType": "address",
          "name": "owner",
          "type": "address"
        }
      ],
      "name": "ERC721InvalidOwner",
      "type": "error"
    },
    {
      "inputs": [
        {
          "internalType": "address",
          "name": "receiver",
          "type": "address"
        }
      ],
      "name": "ERC721InvalidReceiver",
      "type": "error"
    },
    {
      "inputs": [
        {
          "internalType": "address",
          "name": "sender",
          "type": "address"
        }
      ],
      "name": "ERC721InvalidSender",
      "type": "error"
    },
    {
      "inputs": [
        {
          "internalType": "uint256",
          "name": "tokenId",
          "type": "uint256"
        }
      ],
      "name": "ERC721NonexistentToken",
      "type": "error"
    },
    {
      "anonymous": false,
      "inputs": [
        {
          "indexed": true,
          "internalType": "address",
          "name": "owner",
          "type": "address"
        },
        {
          "indexed": true,
          "internalType": "address",
          "name": "approved",
          "type": "address"
        },
        {
          "indexed": true,
          "internalType": "uint256",
          "name": "tokenId",
          "type": "uint256"
        }
      ],
      "name": "Approval",
      "type": "event"
    },
    {
      "anonymous": false,
      "inputs": [
        {
          "indexed": true,
          "internalType": "address",
          "name": "owner",
          "type": "address"
        },
        {
          "indexed": true,
          "internalType": "address",
          "name": "operator",
          "type": "address"
        },
        {
          "indexed": false,
          "internalType": "bool",
          "name": "approved",
          "type": "bool"
        }
      ],
      "name": "ApprovalForAll",
      "type": "event"
    },
    {
      "anonymous": false,
      "inputs": [
        {
          "indexed": false,
          "internalType": "uint256",
          "name": "_fromTokenId",
          "type": "uint256"
        },
        {
          "indexed": false,
          "internalType": "uint256",
          "name": "_toTokenId",
          "type": "uint256"
        }
      ],
      "name": "BatchMetadataUpdate",
      "type": "event"
    },
    {
      "anonymous": false,
      "inputs": [
        {
          "indexed": false,
          "internalType": "uint256",
          "name": "_tokenId",
          "type": "uint256"
        }
      ],
      "name": "MetadataUpdate",
      "type": "event"
    },
    {
      "anonymous": false,
      "inputs": [
        {
          "indexed": true,
          "internalType": "address",
          "name": "from",
          "type": "address"
        },
        {
          "indexed": true,
          "internalType": "address",
          "name": "to",
          "type": "address"
        },
        {
          "indexed": true,
          "internalType": "uint256",
          "name": "tokenId",
          "type": "uint256"
        }
      ],
      "name": "Transfer",
      "type": "event"
    },
    {
      "inputs": [
        {
          "internalType": "address",
          "name": "to",
          "type": "address"
        },
        {
          "internalType": "uint256",
          "name": "tokenId",
          "type": "uint256"
        }
      ],
      "name": "approve",
      "outputs": [],
      "stateMutability": "nonpayable",
      "type": "function"
    },
    {
      "inputs": [
        {
          "internalType": "address",
          "name": "owner",
          "type": "address"
        }
      ],
      "name": "balanceOf",
      "outputs": [
        {
          "internalType": "uint256",
          "name": "",
          "type": "uint256"
        }
      ],
      "stateMutability": "view",
      "type": "function"
    },
    {
      "inputs": [
        {
          "internalType": "string",
          "name": "_tokenURI",
          "type": "string"
        },
        {
          "internalType": "uint256",
          "name": "_price",
          "type": "uint256"
        }
      ],
      "name": "createToken",
      "outputs": [
        {
          "internalType": "uint256",
          "name": "",
          "type": "uint256"
        }
      ],
      "stateMutability": "nonpayable",
      "type": "function"
    },
    {
      "inputs": [],
      "name": "getAllListedNFTs",
      "outputs": [
        {
          "components": [
            {
              "internalType": "uint256",
              "name": "tokenId",
              "type": "uint256"
            },
            {
              "internalType": "address payable",
              "name": "owner",
              "type": "address"
            },
            {
              "internalType": "address payable",
              "name": "seller",
              "type": "address"
            },
            {
              "internalType": "address payable",
              "name": "creator",
              "type": "address"
            },
            {
              "internalType": "uint256",
              "name": "price",
              "type": "uint256"
            },
            {
              "internalType": "uint256",
              "name": "salesCount",
              "type": "uint256"
            },
            {
              "internalType": "uint256",
              "name": "lastTransactionTime",
              "type": "uint256"
            }
          ],
          "internalType": "struct NFTSTORE.nftListing[]",
          "name": "",
          "type": "tuple[]"
        }
      ],
      "stateMutability": "view",
      "type": "function"
    },
    {
      "inputs": [
        {
          "internalType": "uint256",
          "name": "tokenId",
          "type": "uint256"
        }
      ],
      "name": "getApproved",
      "outputs": [
        {
          "internalType": "address",
          "name": "",
          "type": "address"
        }
      ],
      "stateMutability": "view",
      "type": "function"
    },
    {
      "inputs": [],
      "name": "getCurrentTokenId",
      "outputs": [
        {
          "internalType": "uint256",
          "name": "",
          "type": "uint256"
        }
      ],
      "stateMutability": "view",
      "type": "function"
    },
    {
      "inputs": [],
      "name": "getListingFeePercent",
      "outputs": [
        {
          "internalType": "uint256",
          "name": "",
          "type": "uint256"
        }
      ],
      "stateMutability": "view",
      "type": "function"
    },
    {
      "inputs": [],
      "name": "getMyNFTs",
      "outputs": [
        {
          "components": [
            {
              "internalType": "uint256",
              "name": "tokenId",
              "type": "uint256"
            },
            {
              "internalType": "address payable",
              "name": "owner",
              "type": "address"
            },
            {
              "internalType": "address payable",
              "name": "seller",
              "type": "address"
            },
            {
              "internalType": "address payable",
              "name": "creator",
              "type": "address"
            },
            {
              "internalType": "uint256",
              "name": "price",
              "type": "uint256"
            },
            {
              "internalType": "uint256",
              "name": "salesCount",
              "type": "uint256"
            },
            {
              "internalType": "uint256",
              "name": "lastTransactionTime",
              "type": "uint256"
            }
          ],
          "internalType": "struct NFTSTORE.nftListing[]",
          "name": "",
          "type": "tuple[]"
        }
      ],
      "stateMutability": "view",
      "type": "function"
    },
    {
      "inputs": [
        {
          "internalType": "uint256",
          "name": "_tokenId",
          "type": "uint256"
        }
      ],
      "name": "getNFTListing",
      "outputs": [
        {
          "components": [
            {
              "internalType": "uint256",
              "name": "tokenId",
              "type": "uint256"
            },
            {
              "internalType": "address payable",
              "name": "owner",
              "type": "address"
            },
            {
              "internalType": "address payable",
              "name": "seller",
              "type": "address"
            },
            {
              "internalType": "address payable",
              "name": "creator",
              "type": "address"
            },
            {
              "internalType": "uint256",
              "name": "price",
              "type": "uint256"
            },
            {
              "internalType": "uint256",
              "name": "salesCount",
              "type": "uint256"
            },
            {
              "internalType": "uint256",
              "name": "lastTransactionTime",
              "type": "uint256"
            }
          ],
          "internalType": "struct NFTSTORE.nftListing",
          "name": "",
          "type": "tuple"
        }
      ],
      "stateMutability": "view",
      "type": "function"
    },
    {
      "inputs": [],
      "name": "getRoyaltyPercent",
      "outputs": [
        {
          "internalType": "uint256",
          "name": "",
          "type": "uint256"
        }
      ],
      "stateMutability": "view",
      "type": "function"
    },
    {
      "inputs": [
        {
          "internalType": "address",
          "name": "owner",
          "type": "address"
        },
        {
          "internalType": "address",
          "name": "operator",
          "type": "address"
        }
      ],
      "name": "isApprovedForAll",
      "outputs": [
        {
          "internalType": "bool",
          "name": "",
          "type": "bool"
        }
      ],
      "stateMutability": "view",
      "type": "function"
    },
    {
      "inputs": [],
      "name": "listingFeePercent",
      "outputs": [
        {
          "internalType": "uint256",
          "name": "",
          "type": "uint256"
        }
      ],
      "stateMutability": "view",
      "type": "function"
    },
    {
      "inputs": [],
      "name": "marketplaceOwner",
      "outputs": [
        {
          "internalType": "address payable",
          "name": "",
          "type": "address"
        }
      ],
      "stateMutability": "view",
      "type": "function"
    },
    {
      "inputs": [],
      "name": "name",
      "outputs": [
        {
          "internalType": "string",
          "name": "",
          "type": "string"
        }
      ],
      "stateMutability": "view",
      "type": "function"
    },
    {
      "inputs": [
        {
          "internalType": "uint256",
          "name": "tokenId",
          "type": "uint256"
        }
      ],
      "name": "ownerOf",
      "outputs": [
        {
          "internalType": "address",
          "name": "",
          "type": "address"
        }
      ],
      "stateMutability": "view",
      "type": "function"
    },
    {
      "inputs": [],
      "name": "royaltyPercent",
      "outputs": [
        {
          "internalType": "uint256",
          "name": "",
          "type": "uint256"
        }
      ],
      "stateMutability": "view",
      "type": "function"
    },
    {
      "inputs": [
        {
          "internalType": "address",
          "name": "from",
          "type": "address"
        },
        {
          "internalType": "address",
          "name": "to",
          "type": "address"
        },
        {
          "internalType": "uint256",
          "name": "tokenId",
          "type": "uint256"
        }
      ],
      "name": "safeTransferFrom",
      "outputs": [],
      "stateMutability": "nonpayable",
      "type": "function"
    },
    {
      "inputs": [
        {
          "internalType": "address",
          "name": "from",
          "type": "address"
        },
        {
          "internalType": "address",
          "name": "to",
          "type": "address"
        },
        {
          "internalType": "uint256",
          "name": "tokenId",
          "type": "uint256"
        },
        {
          "internalType": "bytes",
          "name": "data",
          "type": "bytes"
        }
      ],
      "name": "safeTransferFrom",
      "outputs": [],
      "stateMutability": "nonpayable",
      "type": "function"
    },
    {
      "inputs": [
        {
          "internalType": "uint256",
          "name": "tokenId",
          "type": "uint256"
        }
      ],
      "name": "sellNFT",
      "outputs": [],
      "stateMutability": "payable",
      "type": "function"
    },
    {
      "inputs": [
        {
          "internalType": "address",
          "name": "operator",
          "type": "address"
        },
        {
          "internalType": "bool",
          "name": "approved",
          "type": "bool"
        }
      ],
      "name": "setApprovalForAll",
      "outputs": [],
      "stateMutability": "nonpayable",
      "type": "function"
    },
    {
      "inputs": [
        {
          "internalType": "bytes4",
          "name": "interfaceId",
          "type": "bytes4"
        }
      ],
      "name": "supportsInterface",
      "outputs": [
        {
          "internalType": "bool",
          "name": "",
          "type": "bool"
        }
      ],
      "stateMutability": "view",
      "type": "function"
    },
    {
      "inputs": [],
      "name": "symbol",
      "outputs": [
        {
          "internalType": "string",
          "name": "",
          "type": "string"
        }
      ],
      "stateMutability": "view",
      "type": "function"
    },
    {
      "inputs": [
        {
          "internalType": "uint256",
          "name": "tokenId",
          "type": "uint256"
        }
      ],
      "name": "tokenURI",
      "outputs": [
        {
          "internalType": "string",
          "name": "",
          "type": "string"
        }
      ],
      "stateMutability": "view",
      "type": "function"
    },
    {
      "inputs": [
        {
          "internalType": "address",
          "name": "recipient",
          "type": "address"
        },
        {
          "internalType": "uint256",
          "name": "tokenId",
          "type": "uint256"
        }
      ],
      "name": "tradeNFT",
      "outputs": [],
      "stateMutability": "nonpayable",
      "type": "function"
    },
    {
      "inputs": [
        {
          "internalType": "address",
          "name": "from",
          "type": "address"
        },
        {
          "internalType": "address",
          "name": "to",
          "type": "address"
        },
        {
          "internalType": "uint256",
          "name": "tokenId",
          "type": "uint256"
        }
      ],
      "name": "transferFrom",
      "outputs": [],
      "stateMutability": "nonpayable",
      "type": "function"
    },
    {
      "inputs": [
        {
          "internalType": "uint256",
          "name": "_listingFeePercent",
          "type": "uint256"
        }
      ],
      "name": "updateListingFeePercent",
      "outputs": [],
      "stateMutability": "nonpayable",
      "type": "function"
    },
    {
      "inputs": [
        {
          "internalType": "uint256",
          "name": "_royaltyPercent",
          "type": "uint256"
        }
      ],
      "name": "updateRoyaltyPercent",
      "outputs": [],
      "stateMutability": "nonpayable",
      "type": "function"
    }
  ],
  "bytecode": "0x6080604052601460085560056009553480156200001b57600080fd5b506040518060400160405280600881526020017f4e465453544f52450000000000000000000000000000000000000000000000008152506040518060400160405280600381526020017f4e4653000000000000000000000000000000000000000000000000000000000081525081600090816200009991906200036f565b508060019081620000ab91906200036f565b50505033600760006101000a81548173ffffffffffffffffffffffffffffffffffffffff021916908373ffffffffffffffffffffffffffffffffffffffff16021790555062000456565b600081519050919050565b7f4e487b7100000000000000000000000000000000000000000000000000000000600052604160045260246000fd5b7f4e487b7100000000000000000000000000000000000000000000000000000000600052602260045260246000fd5b600060028204905060018216806200017757607f821691505b6020821081036200018d576200018c6200012f565b5b50919050565b60008190508160005260206000209050919050565b60006020601f8301049050919050565b600082821b905092915050565b600060088302620001f77fffffffffffffffffffffffffffffffffffffffffffffffffffffffffffffffff82620001b8565b620002038683620001b8565b95508019841693508086168417925050509392505050565b6000819050919050565b6000819050919050565b6000620002506200024a62000244846200021b565b62000225565b6200021b565b9050919050565b6000819050919050565b6200026c836200022f565b620002846200027b8262000257565b848454620001c5565b825550505050565b600090565b6200029b6200028c565b620002a881848462000261565b505050565b5b81811015620002d057620002c460008262000291565b600181019050620002ae565b5050565b601f8211156200031f57620002e98162000193565b620002f484620001a8565b8101602085101562000304578190505b6200031c6200031385620001a8565b830182620002ad565b50505b505050565b600082821c905092915050565b6000620003446000198460080262000324565b1980831691505092915050565b60006200035f838362000331565b9150826002028217905092915050565b6200037a82620000f5565b67ffffffffffffffff81111562000396576200039562000100565b5b620003a282546200015e565b620003af828285620002d4565b600060209050601f831160018114620003e75760008415620003d2578287015190505b620003de858262000351565b8655506200044e565b601f198416620003f78662000193565b60005b828110156200042157848901518255600182019150602085019450602081019050620003fa565b868310156200044157848901516200043d601f89168262000331565b8355505b6001600288020188555050505b505050505050565b613e5480620004666000396000f3fe60806040526004361061019c5760003560e01c806362adec70116100ec578063a22cb4651161008a578063c87b56dd11610064578063c87b56dd146105dc578063e985e9c514610619578063ee9cdfb314610656578063f6ef4368146106725761019c565b8063a22cb46514610561578063ac6a91851461058a578063b88d4fde146105b35761019c565b806370a08231116100c657806370a082311461049157806372b3b620146104ce57806395d89b411461050b5780639f67756d146105365761019c565b806362adec70146103fe5780636352211e14610429578063650025a0146104665761019c565b806323b872dd116101595780635618923611610133578063561892361461035457806360ed87fd1461037f5780636151ff2e146103a8578063629cb2e4146103d35761019c565b806323b872dd146102d757806342842e0e146103005780634b58ffaa146103295761019c565b806301ffc9a7146101a157806306fc1245146101de57806306fdde0314610209578063081812fc14610234578063095ea7b3146102715780630ea59c4b1461029a575b600080fd5b3480156101ad57600080fd5b506101c860048036038101906101c39190612cfe565b61069b565b6040516101d59190612d46565b60405180910390f35b3480156101ea57600080fd5b506101f36106fc565b6040516102009190612d7a565b60405180910390f35b34801561021557600080fd5b5061021e610706565b60405161022b9190612e25565b60405180910390f35b34801561024057600080fd5b5061025b60048036038101906102569190612e73565b610798565b6040516102689190612ee1565b60405180910390f35b34801561027d57600080fd5b5061029860048036038101906102939190612f28565b6107b4565b005b3480156102a657600080fd5b506102c160048036038101906102bc9190612e73565b6107ca565b6040516102ce9190613026565b60405180910390f35b3480156102e357600080fd5b506102fe60048036038101906102f99190613041565b610921565b005b34801561030c57600080fd5b5061032760048036038101906103229190613041565b610a23565b005b34801561033557600080fd5b5061033e610a43565b60405161034b91906131d1565b60405180910390f35b34801561036057600080fd5b50610369610c54565b6040516103769190612d7a565b60405180910390f35b34801561038b57600080fd5b506103a660048036038101906103a19190612e73565b610c5e565b005b3480156103b457600080fd5b506103bd610cf8565b6040516103ca9190612d7a565b60405180910390f35b3480156103df57600080fd5b506103e8610cfe565b6040516103f591906131d1565b60405180910390f35b34801561040a57600080fd5b50610413611116565b6040516104209190612d7a565b60405180910390f35b34801561043557600080fd5b50610450600480360381019061044b9190612e73565b611120565b60405161045d9190612ee1565b60405180910390f35b34801561047257600080fd5b5061047b611132565b6040516104889190613202565b60405180910390f35b34801561049d57600080fd5b506104b860048036038101906104b3919061321d565b611158565b6040516104c59190612d7a565b60405180910390f35b3480156104da57600080fd5b506104f560048036038101906104f0919061337f565b611212565b6040516105029190612d7a565b60405180910390f35b34801561051757600080fd5b5061052061129d565b60405161052d9190612e25565b60405180910390f35b34801561054257600080fd5b5061054b61132f565b6040516105589190612d7a565b60405180910390f35b34801561056d57600080fd5b5061058860048036038101906105839190613407565b611335565b005b34801561059657600080fd5b506105b160048036038101906105ac9190612e73565b61134b565b005b3480156105bf57600080fd5b506105da60048036038101906105d591906134e8565b6113e5565b005b3480156105e857600080fd5b5061060360048036038101906105fe9190612e73565b611402565b6040516106109190612e25565b60405180910390f35b34801561062557600080fd5b50610640600480360381019061063b919061356b565b611515565b60405161064d9190612d46565b60405180910390f35b610670600480360381019061066b9190612e73565b6115a9565b005b34801561067e57600080fd5b5061069960048036038101906106949190612f28565b611839565b005b6000634906490660e01b7bffffffffffffffffffffffffffffffffffffffffffffffffffffffff1916827bffffffffffffffffffffffffffffffffffffffffffffffffffffffff191614806106f557506106f4826119f7565b5b9050919050565b6000600854905090565b606060008054610715906135da565b80601f0160208091040260200160405190810160405280929190818152602001828054610741906135da565b801561078e5780601f106107635761010080835404028352916020019161078e565b820191906000526020600020905b81548152906001019060200180831161077157829003601f168201915b5050505050905090565b60006107a382611ad9565b506107ad82611b61565b9050919050565b6107c682826107c1611b9e565b611ba6565b5050565b6107d2612c13565b600c60008381526020019081526020016000206040518060e0016040529081600082015481526020016001820160009054906101000a900473ffffffffffffffffffffffffffffffffffffffff1673ffffffffffffffffffffffffffffffffffffffff1673ffffffffffffffffffffffffffffffffffffffff1681526020016002820160009054906101000a900473ffffffffffffffffffffffffffffffffffffffff1673ffffffffffffffffffffffffffffffffffffffff1673ffffffffffffffffffffffffffffffffffffffff1681526020016003820160009054906101000a900473ffffffffffffffffffffffffffffffffffffffff1673ffffffffffffffffffffffffffffffffffffffff1673ffffffffffffffffffffffffffffffffffffffff16815260200160048201548152602001600582015481526020016006820154815250509050919050565b600073ffffffffffffffffffffffffffffffffffffffff168273ffffffffffffffffffffffffffffffffffffffff16036109935760006040517f64a0ae9200000000000000000000000000000000000000000000000000000000815260040161098a9190612ee1565b60405180910390fd5b60006109a783836109a2611b9e565b611bb8565b90508373ffffffffffffffffffffffffffffffffffffffff168173ffffffffffffffffffffffffffffffffffffffff1614610a1d578382826040517f64283d7b000000000000000000000000000000000000000000000000000000008152600401610a149392919061360b565b60405180910390fd5b50505050565b610a3e838383604051806020016040528060008152506113e5565b505050565b60606000600a54905060008167ffffffffffffffff811115610a6857610a67613254565b5b604051908082528060200260200182016040528015610aa157816020015b610a8e612c13565b815260200190600190039081610a865790505b5090506000805b83811015610c4a576000600182610abf9190613671565b90506000600c60008381526020019081526020016000209050806040518060e0016040529081600082015481526020016001820160009054906101000a900473ffffffffffffffffffffffffffffffffffffffff1673ffffffffffffffffffffffffffffffffffffffff1673ffffffffffffffffffffffffffffffffffffffff1681526020016002820160009054906101000a900473ffffffffffffffffffffffffffffffffffffffff1673ffffffffffffffffffffffffffffffffffffffff1673ffffffffffffffffffffffffffffffffffffffff1681526020016003820160009054906101000a900473ffffffffffffffffffffffffffffffffffffffff1673ffffffffffffffffffffffffffffffffffffffff1673ffffffffffffffffffffffffffffffffffffffff1681526020016004820154815260200160058201548152602001600682015481525050858581518110610c2157610c206136a5565b5b6020026020010181905250600184610c399190613671565b935050508080600101915050610aa8565b5081935050505090565b6000600a54905090565b600760009054906101000a900473ffffffffffffffffffffffffffffffffffffffff1673ffffffffffffffffffffffffffffffffffffffff163373ffffffffffffffffffffffffffffffffffffffff1614610cee576040517f08c379a0000000000000000000000000000000000000000000000000000000008152600401610ce590613720565b60405180910390fd5b8060098190555050565b60085481565b60606000600a54905060008060005b83811015610e1f573373ffffffffffffffffffffffffffffffffffffffff16600c6000600184610d3d9190613671565b815260200190815260200160002060010160009054906101000a900473ffffffffffffffffffffffffffffffffffffffff1673ffffffffffffffffffffffffffffffffffffffff161480610dfe57503373ffffffffffffffffffffffffffffffffffffffff16600c6000600184610db49190613671565b815260200190815260200160002060020160009054906101000a900473ffffffffffffffffffffffffffffffffffffffff1673ffffffffffffffffffffffffffffffffffffffff16145b15610e12578280610e0e90613740565b9350505b8080600101915050610d0d565b5060008267ffffffffffffffff811115610e3c57610e3b613254565b5b604051908082528060200260200182016040528015610e7557816020015b610e62612c13565b815260200190600190039081610e5a5790505b50905060005b8481101561110b573373ffffffffffffffffffffffffffffffffffffffff16600c6000600184610eab9190613671565b815260200190815260200160002060010160009054906101000a900473ffffffffffffffffffffffffffffffffffffffff1673ffffffffffffffffffffffffffffffffffffffff161480610f6c57503373ffffffffffffffffffffffffffffffffffffffff16600c6000600184610f229190613671565b815260200190815260200160002060020160009054906101000a900473ffffffffffffffffffffffffffffffffffffffff1673ffffffffffffffffffffffffffffffffffffffff16145b156110fe576000600182610f809190613671565b90506000600c60008381526020019081526020016000209050806040518060e0016040529081600082015481526020016001820160009054906101000a900473ffffffffffffffffffffffffffffffffffffffff1673ffffffffffffffffffffffffffffffffffffffff1673ffffffffffffffffffffffffffffffffffffffff1681526020016002820160009054906101000a900473ffffffffffffffffffffffffffffffffffffffff1673ffffffffffffffffffffffffffffffffffffffff1673ffffffffffffffffffffffffffffffffffffffff1681526020016003820160009054906101000a900473ffffffffffffffffffffffffffffffffffffffff1673ffffffffffffffffffffffffffffffffffffffff1673ffffffffffffffffffffffffffffffffffffffff16815260200160048201548152602001600582015481526020016006820154815250508486815181106110e2576110e16136a5565b5b602002602001018190525084806110f890613740565b95505050505b8080600101915050610e7b565b508094505050505090565b6000600954905090565b600061112b82611ad9565b9050919050565b600760009054906101000a900473ffffffffffffffffffffffffffffffffffffffff1681565b60008073ffffffffffffffffffffffffffffffffffffffff168273ffffffffffffffffffffffffffffffffffffffff16036111cb5760006040517f89c62b640000000000000000000000000000000000000000000000000000000081526004016111c29190612ee1565b60405180910390fd5b600360008373ffffffffffffffffffffffffffffffffffffffff1673ffffffffffffffffffffffffffffffffffffffff168152602001908152602001600020549050919050565b6000808211611256576040517f08c379a000000000000000000000000000000000000000000000000000000000815260040161124d906137d4565b60405180910390fd5b600a600081548092919061126990613740565b91905055506000600a54905061127f3382611dd2565b6112898185611df0565b6112938184611e4c565b8091505092915050565b6060600180546112ac906135da565b80601f01602080910402602001604051908101604052809291908181526020018280546112d8906135da565b80156113255780601f106112fa57610100808354040283529160200191611325565b820191906000526020600020905b81548152906001019060200180831161130857829003601f168201915b5050505050905090565b60095481565b611347611340611b9e565b8383611fd9565b5050565b600760009054906101000a900473ffffffffffffffffffffffffffffffffffffffff1673ffffffffffffffffffffffffffffffffffffffff163373ffffffffffffffffffffffffffffffffffffffff16146113db576040517f08c379a00000000000000000000000000000000000000000000000000000000081526004016113d290613720565b60405180910390fd5b8060088190555050565b6113f0848484610921565b6113fc84848484612148565b50505050565b606061140d82611ad9565b50600060066000848152602001908152602001600020805461142e906135da565b80601f016020809104026020016040519081016040528092919081815260200182805461145a906135da565b80156114a75780601f1061147c576101008083540402835291602001916114a7565b820191906000526020600020905b81548152906001019060200180831161148a57829003601f168201915b5050505050905060006114b86122ff565b905060008151036114cd578192505050611510565b6000825111156115025780826040516020016114ea929190613830565b60405160208183030381529060405292505050611510565b61150b84612316565b925050505b919050565b6000600560008473ffffffffffffffffffffffffffffffffffffffff1673ffffffffffffffffffffffffffffffffffffffff16815260200190815260200160002060008373ffffffffffffffffffffffffffffffffffffffff1673ffffffffffffffffffffffffffffffffffffffff16815260200190815260200160002060009054906101000a900460ff16905092915050565b6000600c6000838152602001908152602001600020905060008160040154905060008260020160009054906101000a900473ffffffffffffffffffffffffffffffffffffffff16905060008360030160009054906101000a900473ffffffffffffffffffffffffffffffffffffffff16905082341461165d576040517f08c379a0000000000000000000000000000000000000000000000000000000008152600401611654906138a0565b60405180910390fd5b600060646009548561166f91906138c0565b6116799190613931565b9050338560020160006101000a81548173ffffffffffffffffffffffffffffffffffffffff021916908373ffffffffffffffffffffffffffffffffffffffff1602179055506116ed8560010160009054906101000a900473ffffffffffffffffffffffffffffffffffffffff16338861237f565b60006064600854866116ff91906138c0565b6117099190613931565b9050600760009054906101000a900473ffffffffffffffffffffffffffffffffffffffff1673ffffffffffffffffffffffffffffffffffffffff166108fc829081150290604051600060405180830381858888f19350505050158015611773573d6000803e3d6000fd5b508273ffffffffffffffffffffffffffffffffffffffff166108fc839081150290604051600060405180830381858888f193505050501580156117ba573d6000803e3d6000fd5b508373ffffffffffffffffffffffffffffffffffffffff166108fc8383346117e29190613962565b6117ec9190613962565b9081150290604051600060405180830381858888f19350505050158015611817573d6000803e3d6000fd5b50600b600081548092919061182b90613740565b919050555050505050505050565b3373ffffffffffffffffffffffffffffffffffffffff1661185982611120565b73ffffffffffffffffffffffffffffffffffffffff16146118af576040517f08c379a00000000000000000000000000000000000000000000000000000000081526004016118a690613a08565b60405180910390fd5b600073ffffffffffffffffffffffffffffffffffffffff168273ffffffffffffffffffffffffffffffffffffffff160361191e576040517f08c379a000000000000000000000000000000000000000000000000000000000815260040161191590613a74565b60405180910390fd5b61192933838361237f565b6000600c60008381526020019081526020016000206004015411156119f35781600c600083815260200190815260200160002060010160006101000a81548173ffffffffffffffffffffffffffffffffffffffff021916908373ffffffffffffffffffffffffffffffffffffffff16021790555081600c600083815260200190815260200160002060020160006101000a81548173ffffffffffffffffffffffffffffffffffffffff021916908373ffffffffffffffffffffffffffffffffffffffff1602179055505b5050565b60007f80ac58cd000000000000000000000000000000000000000000000000000000007bffffffffffffffffffffffffffffffffffffffffffffffffffffffff1916827bffffffffffffffffffffffffffffffffffffffffffffffffffffffff19161480611ac257507f5b5e139f000000000000000000000000000000000000000000000000000000007bffffffffffffffffffffffffffffffffffffffffffffffffffffffff1916827bffffffffffffffffffffffffffffffffffffffffffffffffffffffff1916145b80611ad25750611ad1826124ec565b5b9050919050565b600080611ae583612556565b9050600073ffffffffffffffffffffffffffffffffffffffff168173ffffffffffffffffffffffffffffffffffffffff1603611b5857826040517f7e273289000000000000000000000000000000000000000000000000000000008152600401611b4f9190612d7a565b60405180910390fd5b80915050919050565b60006004600083815260200190815260200160002060009054906101000a900473ffffffffffffffffffffffffffffffffffffffff169050919050565b600033905090565b611bb38383836001612593565b505050565b600080611bc484612556565b9050600073ffffffffffffffffffffffffffffffffffffffff168373ffffffffffffffffffffffffffffffffffffffff1614611c0657611c05818486612758565b5b600073ffffffffffffffffffffffffffffffffffffffff168173ffffffffffffffffffffffffffffffffffffffff1614611c9757611c48600085600080612593565b6001600360008373ffffffffffffffffffffffffffffffffffffffff1673ffffffffffffffffffffffffffffffffffffffff168152602001908152602001600020600082825403925050819055505b600073ffffffffffffffffffffffffffffffffffffffff168573ffffffffffffffffffffffffffffffffffffffff1614611d1a576001600360008773ffffffffffffffffffffffffffffffffffffffff1673ffffffffffffffffffffffffffffffffffffffff168152602001908152602001600020600082825401925050819055505b846002600086815260200190815260200160002060006101000a81548173ffffffffffffffffffffffffffffffffffffffff021916908373ffffffffffffffffffffffffffffffffffffffff160217905550838573ffffffffffffffffffffffffffffffffffffffff168273ffffffffffffffffffffffffffffffffffffffff167fddf252ad1be2c89b69c2b068fc378daa952ba7f163c4a11628f55a4df523b3ef60405160405180910390a4809150509392505050565b611dec82826040518060200160405280600081525061281c565b5050565b80600660008481526020019081526020016000209081611e109190613c40565b507ff8e1a15aba9398e019f0b49df1a4fde98ee17ae345cb5f6b5e2c27f5033e8ce782604051611e409190612d7a565b60405180910390a15050565b6040518060e001604052808381526020013373ffffffffffffffffffffffffffffffffffffffff1681526020013373ffffffffffffffffffffffffffffffffffffffff1681526020013373ffffffffffffffffffffffffffffffffffffffff1681526020018281526020016000815260200142815250600c60008481526020019081526020016000206000820151816000015560208201518160010160006101000a81548173ffffffffffffffffffffffffffffffffffffffff021916908373ffffffffffffffffffffffffffffffffffffffff16021790555060408201518160020160006101000a81548173ffffffffffffffffffffffffffffffffffffffff021916908373ffffffffffffffffffffffffffffffffffffffff16021790555060608201518160030160006101000a81548173ffffffffffffffffffffffffffffffffffffffff021916908373ffffffffffffffffffffffffffffffffffffffff1602179055506080820151816004015560a0820151816005015560c082015181600601559050505050565b600073ffffffffffffffffffffffffffffffffffffffff168273ffffffffffffffffffffffffffffffffffffffff160361204a57816040517f5b08ba180000000000000000000000000000000000000000000000000000000081526004016120419190612ee1565b60405180910390fd5b80600560008573ffffffffffffffffffffffffffffffffffffffff1673ffffffffffffffffffffffffffffffffffffffff16815260200190815260200160002060008473ffffffffffffffffffffffffffffffffffffffff1673ffffffffffffffffffffffffffffffffffffffff16815260200190815260200160002060006101000a81548160ff0219169083151502179055508173ffffffffffffffffffffffffffffffffffffffff168373ffffffffffffffffffffffffffffffffffffffff167f17307eab39ab6107e8899845ad3d59bd9653f200f220920489ca2b5937696c318360405161213b9190612d46565b60405180910390a3505050565b60008373ffffffffffffffffffffffffffffffffffffffff163b11156122f9578273ffffffffffffffffffffffffffffffffffffffff1663150b7a0261218c611b9e565b8685856040518563ffffffff1660e01b81526004016121ae9493929190613d67565b6020604051808303816000875af19250505080156121ea57506040513d601f19601f820116820180604052508101906121e79190613dc8565b60015b61226e573d806000811461221a576040519150601f19603f3d011682016040523d82523d6000602084013e61221f565b606091505b50600081510361226657836040517f64a0ae9200000000000000000000000000000000000000000000000000000000815260040161225d9190612ee1565b60405180910390fd5b805181602001fd5b63150b7a0260e01b7bffffffffffffffffffffffffffffffffffffffffffffffffffffffff1916817bffffffffffffffffffffffffffffffffffffffffffffffffffffffff1916146122f757836040517f64a0ae920000000000000000000000000000000000000000000000000000000081526004016122ee9190612ee1565b60405180910390fd5b505b50505050565b606060405180602001604052806000815250905090565b606061232182611ad9565b50600061232c6122ff565b9050600081511161234c5760405180602001604052806000815250612377565b8061235684612838565b604051602001612367929190613830565b6040516020818303038152906040525b915050919050565b600073ffffffffffffffffffffffffffffffffffffffff168273ffffffffffffffffffffffffffffffffffffffff16036123f15760006040517f64a0ae920000000000000000000000000000000000000000000000000000000081526004016123e89190612ee1565b60405180910390fd5b60006123ff83836000611bb8565b9050600073ffffffffffffffffffffffffffffffffffffffff168173ffffffffffffffffffffffffffffffffffffffff160361247257816040517f7e2732890000000000000000000000000000000000000000000000000000000081526004016124699190612d7a565b60405180910390fd5b8373ffffffffffffffffffffffffffffffffffffffff168173ffffffffffffffffffffffffffffffffffffffff16146124e6578382826040517f64283d7b0000000000000000000000000000000000000000000000000000000081526004016124dd9392919061360b565b60405180910390fd5b50505050565b60007f01ffc9a7000000000000000000000000000000000000000000000000000000007bffffffffffffffffffffffffffffffffffffffffffffffffffffffff1916827bffffffffffffffffffffffffffffffffffffffffffffffffffffffff1916149050919050565b60006002600083815260200190815260200160002060009054906101000a900473ffffffffffffffffffffffffffffffffffffffff169050919050565b80806125cc5750600073ffffffffffffffffffffffffffffffffffffffff168273ffffffffffffffffffffffffffffffffffffffff1614155b156127005760006125dc84611ad9565b9050600073ffffffffffffffffffffffffffffffffffffffff168373ffffffffffffffffffffffffffffffffffffffff161415801561264757508273ffffffffffffffffffffffffffffffffffffffff168173ffffffffffffffffffffffffffffffffffffffff1614155b801561265a57506126588184611515565b155b1561269c57826040517fa9fbf51f0000000000000000000000000000000000000000000000000000000081526004016126939190612ee1565b60405180910390fd5b81156126fe57838573ffffffffffffffffffffffffffffffffffffffff168273ffffffffffffffffffffffffffffffffffffffff167f8c5be1e5ebec7d5bd14f71427d1e84f3dd0314c0f7b2291e5b200ac8c7c3b92560405160405180910390a45b505b836004600085815260200190815260200160002060006101000a81548173ffffffffffffffffffffffffffffffffffffffff021916908373ffffffffffffffffffffffffffffffffffffffff16021790555050505050565b612763838383612906565b61281757600073ffffffffffffffffffffffffffffffffffffffff168373ffffffffffffffffffffffffffffffffffffffff16036127d857806040517f7e2732890000000000000000000000000000000000000000000000000000000081526004016127cf9190612d7a565b60405180910390fd5b81816040517f177e802f00000000000000000000000000000000000000000000000000000000815260040161280e929190613df5565b60405180910390fd5b505050565b61282683836129c7565b6128336000848484612148565b505050565b60606000600161284784612ac0565b01905060008167ffffffffffffffff81111561286657612865613254565b5b6040519080825280601f01601f1916602001820160405280156128985781602001600182028036833780820191505090505b509050600082602001820190505b6001156128fb578080600190039150507f3031323334353637383961626364656600000000000000000000000000000000600a86061a8153600a85816128ef576128ee613902565b5b049450600085036128a6575b819350505050919050565b60008073ffffffffffffffffffffffffffffffffffffffff168373ffffffffffffffffffffffffffffffffffffffff16141580156129be57508273ffffffffffffffffffffffffffffffffffffffff168473ffffffffffffffffffffffffffffffffffffffff16148061297f575061297e8484611515565b5b806129bd57508273ffffffffffffffffffffffffffffffffffffffff166129a583611b61565b73ffffffffffffffffffffffffffffffffffffffff16145b5b90509392505050565b600073ffffffffffffffffffffffffffffffffffffffff168273ffffffffffffffffffffffffffffffffffffffff1603612a395760006040517f64a0ae92000000000000000000000000000000000000000000000000000000008152600401612a309190612ee1565b60405180910390fd5b6000612a4783836000611bb8565b9050600073ffffffffffffffffffffffffffffffffffffffff168173ffffffffffffffffffffffffffffffffffffffff1614612abb5760006040517f73c6ac6e000000000000000000000000000000000000000000000000000000008152600401612ab29190612ee1565b60405180910390fd5b505050565b600080600090507a184f03e93ff9f4daa797ed6e38ed64bf6a1f0100000000000000008310612b1e577a184f03e93ff9f4daa797ed6e38ed64bf6a1f0100000000000000008381612b1457612b13613902565b5b0492506040810190505b6d04ee2d6d415b85acef81000000008310612b5b576d04ee2d6d415b85acef81000000008381612b5157612b50613902565b5b0492506020810190505b662386f26fc100008310612b8a57662386f26fc100008381612b8057612b7f613902565b5b0492506010810190505b6305f5e1008310612bb3576305f5e1008381612ba957612ba8613902565b5b0492506008810190505b6127108310612bd8576127108381612bce57612bcd613902565b5b0492506004810190505b60648310612bfb5760648381612bf157612bf0613902565b5b0492506002810190505b600a8310612c0a576001810190505b80915050919050565b6040518060e0016040528060008152602001600073ffffffffffffffffffffffffffffffffffffffff168152602001600073ffffffffffffffffffffffffffffffffffffffff168152602001600073ffffffffffffffffffffffffffffffffffffffff1681526020016000815260200160008152602001600081525090565b6000604051905090565b600080fd5b600080fd5b60007fffffffff0000000000000000000000000000000000000000000000000000000082169050919050565b612cdb81612ca6565b8114612ce657600080fd5b50565b600081359050612cf881612cd2565b92915050565b600060208284031215612d1457612d13612c9c565b5b6000612d2284828501612ce9565b91505092915050565b60008115159050919050565b612d4081612d2b565b82525050565b6000602082019050612d5b6000830184612d37565b92915050565b6000819050919050565b612d7481612d61565b82525050565b6000602082019050612d8f6000830184612d6b565b92915050565b600081519050919050565b600082825260208201905092915050565b60005b83811015612dcf578082015181840152602081019050612db4565b60008484015250505050565b6000601f19601f8301169050919050565b6000612df782612d95565b612e018185612da0565b9350612e11818560208601612db1565b612e1a81612ddb565b840191505092915050565b60006020820190508181036000830152612e3f8184612dec565b905092915050565b612e5081612d61565b8114612e5b57600080fd5b50565b600081359050612e6d81612e47565b92915050565b600060208284031215612e8957612e88612c9c565b5b6000612e9784828501612e5e565b91505092915050565b600073ffffffffffffffffffffffffffffffffffffffff82169050919050565b6000612ecb82612ea0565b9050919050565b612edb81612ec0565b82525050565b6000602082019050612ef66000830184612ed2565b92915050565b612f0581612ec0565b8114612f1057600080fd5b50565b600081359050612f2281612efc565b92915050565b60008060408385031215612f3f57612f3e612c9c565b5b6000612f4d85828601612f13565b9250506020612f5e85828601612e5e565b9150509250929050565b612f7181612d61565b82525050565b6000612f8282612ea0565b9050919050565b612f9281612f77565b82525050565b60e082016000820151612fae6000850182612f68565b506020820151612fc16020850182612f89565b506040820151612fd46040850182612f89565b506060820151612fe76060850182612f89565b506080820151612ffa6080850182612f68565b5060a082015161300d60a0850182612f68565b5060c082015161302060c0850182612f68565b50505050565b600060e08201905061303b6000830184612f98565b92915050565b60008060006060848603121561305a57613059612c9c565b5b600061306886828701612f13565b935050602061307986828701612f13565b925050604061308a86828701612e5e565b9150509250925092565b600081519050919050565b600082825260208201905092915050565b6000819050602082019050919050565b60e0820160008201516130d66000850182612f68565b5060208201516130e96020850182612f89565b5060408201516130fc6040850182612f89565b50606082015161310f6060850182612f89565b5060808201516131226080850182612f68565b5060a082015161313560a0850182612f68565b5060c082015161314860c0850182612f68565b50505050565b600061315a83836130c0565b60e08301905092915050565b6000602082019050919050565b600061317e82613094565b613188818561309f565b9350613193836130b0565b8060005b838110156131c45781516131ab888261314e565b97506131b683613166565b925050600181019050613197565b5085935050505092915050565b600060208201905081810360008301526131eb8184613173565b905092915050565b6131fc81612f77565b82525050565b600060208201905061321760008301846131f3565b92915050565b60006020828403121561323357613232612c9c565b5b600061324184828501612f13565b91505092915050565b600080fd5b600080fd5b7f4e487b7100000000000000000000000000000000000000000000000000000000600052604160045260246000fd5b61328c82612ddb565b810181811067ffffffffffffffff821117156132ab576132aa613254565b5b80604052505050565b60006132be612c92565b90506132ca8282613283565b919050565b600067ffffffffffffffff8211156132ea576132e9613254565b5b6132f382612ddb565b9050602081019050919050565b82818337600083830152505050565b600061332261331d846132cf565b6132b4565b90508281526020810184848401111561333e5761333d61324f565b5b613349848285613300565b509392505050565b600082601f8301126133665761336561324a565b5b813561337684826020860161330f565b91505092915050565b6000806040838503121561339657613395612c9c565b5b600083013567ffffffffffffffff8111156133b4576133b3612ca1565b5b6133c085828601613351565b92505060206133d185828601612e5e565b9150509250929050565b6133e481612d2b565b81146133ef57600080fd5b50565b600081359050613401816133db565b92915050565b6000806040838503121561341e5761341d612c9c565b5b600061342c85828601612f13565b925050602061343d858286016133f2565b9150509250929050565b600067ffffffffffffffff82111561346257613461613254565b5b61346b82612ddb565b9050602081019050919050565b600061348b61348684613447565b6132b4565b9050828152602081018484840111156134a7576134a661324f565b5b6134b2848285613300565b509392505050565b600082601f8301126134cf576134ce61324a565b5b81356134df848260208601613478565b91505092915050565b6000806000806080858703121561350257613501612c9c565b5b600061351087828801612f13565b945050602061352187828801612f13565b935050604061353287828801612e5e565b925050606085013567ffffffffffffffff81111561355357613552612ca1565b5b61355f878288016134ba565b91505092959194509250565b6000806040838503121561358257613581612c9c565b5b600061359085828601612f13565b92505060206135a185828601612f13565b9150509250929050565b7f4e487b7100000000000000000000000000000000000000000000000000000000600052602260045260246000fd5b600060028204905060018216806135f257607f821691505b602082108103613605576136046135ab565b5b50919050565b60006060820190506136206000830186612ed2565b61362d6020830185612d6b565b61363a6040830184612ed2565b949350505050565b7f4e487b7100000000000000000000000000000000000000000000000000000000600052601160045260246000fd5b600061367c82612d61565b915061368783612d61565b925082820190508082111561369f5761369e613642565b5b92915050565b7f4e487b7100000000000000000000000000000000000000000000000000000000600052603260045260246000fd5b7f4f6e6c79204f776e65722043616e204163636573732054686973000000000000600082015250565b600061370a601a83612da0565b9150613715826136d4565b602082019050919050565b60006020820190508181036000830152613739816136fd565b9050919050565b600061374b82612d61565b91507fffffffffffffffffffffffffffffffffffffffffffffffffffffffffffffffff820361377d5761377c613642565b5b600182019050919050565b7f5072696365206d7573742062652067726561746572207468616e207a65726f00600082015250565b60006137be601f83612da0565b91506137c982613788565b602082019050919050565b600060208201905081810360008301526137ed816137b1565b9050919050565b600081905092915050565b600061380a82612d95565b61381481856137f4565b9350613824818560208601612db1565b80840191505092915050565b600061383c82856137ff565b915061384882846137ff565b91508190509392505050565b7f506c6561736520706179207468652061736b696e672070726963650000000000600082015250565b600061388a601b83612da0565b915061389582613854565b602082019050919050565b600060208201905081810360008301526138b98161387d565b9050919050565b60006138cb82612d61565b91506138d683612d61565b92508282026138e481612d61565b915082820484148315176138fb576138fa613642565b5b5092915050565b7f4e487b7100000000000000000000000000000000000000000000000000000000600052601260045260246000fd5b600061393c82612d61565b915061394783612d61565b92508261395757613956613902565b5b828204905092915050565b600061396d82612d61565b915061397883612d61565b92508282039050818111156139905761398f613642565b5b92915050565b7f596f7520617265206e6f7420746865206f776e6572206f662074686973204e4660008201527f5400000000000000000000000000000000000000000000000000000000000000602082015250565b60006139f2602183612da0565b91506139fd82613996565b604082019050919050565b60006020820190508181036000830152613a21816139e5565b9050919050565b7f496e76616c696420726563697069656e74206164647265737300000000000000600082015250565b6000613a5e601983612da0565b9150613a6982613a28565b602082019050919050565b60006020820190508181036000830152613a8d81613a51565b9050919050565b60008190508160005260206000209050919050565b60006020601f8301049050919050565b600082821b905092915050565b600060088302613af67fffffffffffffffffffffffffffffffffffffffffffffffffffffffffffffffff82613ab9565b613b008683613ab9565b95508019841693508086168417925050509392505050565b6000819050919050565b6000613b3d613b38613b3384612d61565b613b18565b612d61565b9050919050565b6000819050919050565b613b5783613b22565b613b6b613b6382613b44565b848454613ac6565b825550505050565b600090565b613b80613b73565b613b8b818484613b4e565b505050565b5b81811015613baf57613ba4600082613b78565b600181019050613b91565b5050565b601f821115613bf457613bc581613a94565b613bce84613aa9565b81016020851015613bdd578190505b613bf1613be985613aa9565b830182613b90565b50505b505050565b600082821c905092915050565b6000613c1760001984600802613bf9565b1980831691505092915050565b6000613c308383613c06565b9150826002028217905092915050565b613c4982612d95565b67ffffffffffffffff811115613c6257613c61613254565b5b613c6c82546135da565b613c77828285613bb3565b600060209050601f831160018114613caa5760008415613c98578287015190505b613ca28582613c24565b865550613d0a565b601f198416613cb886613a94565b60005b82811015613ce057848901518255600182019150602085019450602081019050613cbb565b86831015613cfd5784890151613cf9601f891682613c06565b8355505b6001600288020188555050505b505050505050565b600081519050919050565b600082825260208201905092915050565b6000613d3982613d12565b613d438185613d1d565b9350613d53818560208601612db1565b613d5c81612ddb565b840191505092915050565b6000608082019050613d7c6000830187612ed2565b613d896020830186612ed2565b613d966040830185612d6b565b8181036060830152613da88184613d2e565b905095945050505050565b600081519050613dc281612cd2565b92915050565b600060208284031215613dde57613ddd612c9c565b5b6000613dec84828501613db3565b91505092915050565b6000604082019050613e0a6000830185612ed2565b613e176020830184612d6b565b939250505056fea26469706673582212209ebf68dbacf4393af7d194053b3306174f2433bad0ae3e407c4cadaa2f69f68e64736f6c63430008180033",
  "linkReferences": {},
  "deployedLinkReferences": {}
}