{
  "_format": "hh-sol-artifact-1",
  "contractName": "NFTSTORE",
  "sourceName": "contracts/NFTSTORE.sol",
  "address": "0x5c0Eeb32043e0F42Ea0C0e15A32cE1d34db564E9",
  "abi": [
    {
      "inputs": [],
      "stateMutability": "nonpayable",
      "type": "constructor"
    },
    {
      "inputs": [
        {
          "internalType": "address",
          "name": "sender",
          "type": "address"
        },
        {
          "internalType": "uint256",
          "name": "tokenId",
          "type": "uint256"
        },
        {
          "internalType": "address",
          "name": "owner",
          "type": "address"
        }
      ],
      "name": "ERC721IncorrectOwner",
      "type": "error"
    },
    {
      "inputs": [
        {
          "internalType": "address",
          "name": "operator",
          "type": "address"
        },
        {
          "internalType": "uint256",
          "name": "tokenId",
          "type": "uint256"
        }
      ],
      "name": "ERC721InsufficientApproval",
      "type": "error"
    },
    {
      "inputs": [
        {
          "internalType": "address",
          "name": "approver",
          "type": "address"
        }
      ],
      "name": "ERC721InvalidApprover",
      "type": "error"
    },
    {
      "inputs": [
        {
          "internalType": "address",
          "name": "operator",
          "type": "address"
        }
      ],
      "name": "ERC721InvalidOperator",
      "type": "error"
    },
    {
      "inputs": [
        {
          "internalType": "address",
          "name": "owner",
          "type": "address"
        }
      ],
      "name": "ERC721InvalidOwner",
      "type": "error"
    },
    {
      "inputs": [
        {
          "internalType": "address",
          "name": "receiver",
          "type": "address"
        }
      ],
      "name": "ERC721InvalidReceiver",
      "type": "error"
    },
    {
      "inputs": [
        {
          "internalType": "address",
          "name": "sender",
          "type": "address"
        }
      ],
      "name": "ERC721InvalidSender",
      "type": "error"
    },
    {
      "inputs": [
        {
          "internalType": "uint256",
          "name": "tokenId",
          "type": "uint256"
        }
      ],
      "name": "ERC721NonexistentToken",
      "type": "error"
    },
    {
      "anonymous": false,
      "inputs": [
        {
          "indexed": true,
          "internalType": "address",
          "name": "owner",
          "type": "address"
        },
        {
          "indexed": true,
          "internalType": "address",
          "name": "approved",
          "type": "address"
        },
        {
          "indexed": true,
          "internalType": "uint256",
          "name": "tokenId",
          "type": "uint256"
        }
      ],
      "name": "Approval",
      "type": "event"
    },
    {
      "anonymous": false,
      "inputs": [
        {
          "indexed": true,
          "internalType": "address",
          "name": "owner",
          "type": "address"
        },
        {
          "indexed": true,
          "internalType": "address",
          "name": "operator",
          "type": "address"
        },
        {
          "indexed": false,
          "internalType": "bool",
          "name": "approved",
          "type": "bool"
        }
      ],
      "name": "ApprovalForAll",
      "type": "event"
    },
    {
      "anonymous": false,
      "inputs": [
        {
          "indexed": false,
          "internalType": "uint256",
          "name": "_fromTokenId",
          "type": "uint256"
        },
        {
          "indexed": false,
          "internalType": "uint256",
          "name": "_toTokenId",
          "type": "uint256"
        }
      ],
      "name": "BatchMetadataUpdate",
      "type": "event"
    },
    {
      "anonymous": false,
      "inputs": [
        {
          "indexed": false,
          "internalType": "uint256",
          "name": "_tokenId",
          "type": "uint256"
        }
      ],
      "name": "MetadataUpdate",
      "type": "event"
    },
    {
      "anonymous": false,
      "inputs": [
        {
          "indexed": true,
          "internalType": "address",
          "name": "creator",
          "type": "address"
        },
        {
          "indexed": false,
          "internalType": "uint256",
          "name": "tokenId",
          "type": "uint256"
        },
        {
          "indexed": false,
          "internalType": "uint256",
          "name": "amount",
          "type": "uint256"
        }
      ],
      "name": "RoyaltyPaid",
      "type": "event"
    },
    {
      "anonymous": false,
      "inputs": [
        {
          "indexed": true,
          "internalType": "address",
          "name": "from",
          "type": "address"
        },
        {
          "indexed": true,
          "internalType": "address",
          "name": "to",
          "type": "address"
        },
        {
          "indexed": true,
          "internalType": "uint256",
          "name": "tokenId",
          "type": "uint256"
        }
      ],
      "name": "Transfer",
      "type": "event"
    },
    {
      "inputs": [
        {
          "internalType": "address",
          "name": "to",
          "type": "address"
        },
        {
          "internalType": "uint256",
          "name": "tokenId",
          "type": "uint256"
        }
      ],
      "name": "approve",
      "outputs": [],
      "stateMutability": "nonpayable",
      "type": "function"
    },
    {
      "inputs": [
        {
          "internalType": "address",
          "name": "owner",
          "type": "address"
        }
      ],
      "name": "balanceOf",
      "outputs": [
        {
          "internalType": "uint256",
          "name": "",
          "type": "uint256"
        }
      ],
      "stateMutability": "view",
      "type": "function"
    },
    {
      "inputs": [
        {
          "internalType": "string",
          "name": "_tokenURI",
          "type": "string"
        },
        {
          "internalType": "uint256",
          "name": "_price",
          "type": "uint256"
        }
      ],
      "name": "createToken",
      "outputs": [
        {
          "internalType": "uint256",
          "name": "",
          "type": "uint256"
        }
      ],
      "stateMutability": "nonpayable",
      "type": "function"
    },
    {
      "inputs": [],
      "name": "getAllListedNFTs",
      "outputs": [
        {
          "components": [
            {
              "internalType": "uint256",
              "name": "tokenId",
              "type": "uint256"
            },
            {
              "internalType": "address payable",
              "name": "owner",
              "type": "address"
            },
            {
              "internalType": "address payable",
              "name": "seller",
              "type": "address"
            },
            {
              "internalType": "address payable",
              "name": "creator",
              "type": "address"
            },
            {
              "internalType": "uint256",
              "name": "price",
              "type": "uint256"
            }
          ],
          "internalType": "struct NFTSTORE.nftListing[]",
          "name": "",
          "type": "tuple[]"
        }
      ],
      "stateMutability": "view",
      "type": "function"
    },
    {
      "inputs": [
        {
          "internalType": "uint256",
          "name": "tokenId",
          "type": "uint256"
        }
      ],
      "name": "getApproved",
      "outputs": [
        {
          "internalType": "address",
          "name": "",
          "type": "address"
        }
      ],
      "stateMutability": "view",
      "type": "function"
    },
    {
      "inputs": [],
      "name": "getCurrentTokenId",
      "outputs": [
        {
          "internalType": "uint256",
          "name": "",
          "type": "uint256"
        }
      ],
      "stateMutability": "view",
      "type": "function"
    },
    {
      "inputs": [],
      "name": "getListingFeePercent",
      "outputs": [
        {
          "internalType": "uint256",
          "name": "",
          "type": "uint256"
        }
      ],
      "stateMutability": "view",
      "type": "function"
    },
    {
      "inputs": [],
      "name": "getMyNFTs",
      "outputs": [
        {
          "components": [
            {
              "internalType": "uint256",
              "name": "tokenId",
              "type": "uint256"
            },
            {
              "internalType": "address payable",
              "name": "owner",
              "type": "address"
            },
            {
              "internalType": "address payable",
              "name": "seller",
              "type": "address"
            },
            {
              "internalType": "address payable",
              "name": "creator",
              "type": "address"
            },
            {
              "internalType": "uint256",
              "name": "price",
              "type": "uint256"
            }
          ],
          "internalType": "struct NFTSTORE.nftListing[]",
          "name": "",
          "type": "tuple[]"
        }
      ],
      "stateMutability": "view",
      "type": "function"
    },
    {
      "inputs": [
        {
          "internalType": "uint256",
          "name": "_tokenId",
          "type": "uint256"
        }
      ],
      "name": "getNFTListing",
      "outputs": [
        {
          "components": [
            {
              "internalType": "uint256",
              "name": "tokenId",
              "type": "uint256"
            },
            {
              "internalType": "address payable",
              "name": "owner",
              "type": "address"
            },
            {
              "internalType": "address payable",
              "name": "seller",
              "type": "address"
            },
            {
              "internalType": "address payable",
              "name": "creator",
              "type": "address"
            },
            {
              "internalType": "uint256",
              "name": "price",
              "type": "uint256"
            }
          ],
          "internalType": "struct NFTSTORE.nftListing",
          "name": "",
          "type": "tuple"
        }
      ],
      "stateMutability": "view",
      "type": "function"
    },
    {
      "inputs": [],
      "name": "getRoyaltyPercent",
      "outputs": [
        {
          "internalType": "uint256",
          "name": "",
          "type": "uint256"
        }
      ],
      "stateMutability": "view",
      "type": "function"
    },
    {
      "inputs": [
        {
          "internalType": "address",
          "name": "owner",
          "type": "address"
        },
        {
          "internalType": "address",
          "name": "operator",
          "type": "address"
        }
      ],
      "name": "isApprovedForAll",
      "outputs": [
        {
          "internalType": "bool",
          "name": "",
          "type": "bool"
        }
      ],
      "stateMutability": "view",
      "type": "function"
    },
    {
      "inputs": [],
      "name": "listingFeePercent",
      "outputs": [
        {
          "internalType": "uint256",
          "name": "",
          "type": "uint256"
        }
      ],
      "stateMutability": "view",
      "type": "function"
    },
    {
      "inputs": [],
      "name": "marketplaceOwner",
      "outputs": [
        {
          "internalType": "address payable",
          "name": "",
          "type": "address"
        }
      ],
      "stateMutability": "view",
      "type": "function"
    },
    {
      "inputs": [],
      "name": "name",
      "outputs": [
        {
          "internalType": "string",
          "name": "",
          "type": "string"
        }
      ],
      "stateMutability": "view",
      "type": "function"
    },
    {
      "inputs": [
        {
          "internalType": "uint256",
          "name": "tokenId",
          "type": "uint256"
        }
      ],
      "name": "ownerOf",
      "outputs": [
        {
          "internalType": "address",
          "name": "",
          "type": "address"
        }
      ],
      "stateMutability": "view",
      "type": "function"
    },
    {
      "inputs": [],
      "name": "royaltyPercent",
      "outputs": [
        {
          "internalType": "uint256",
          "name": "",
          "type": "uint256"
        }
      ],
      "stateMutability": "view",
      "type": "function"
    },
    {
      "inputs": [
        {
          "internalType": "address",
          "name": "from",
          "type": "address"
        },
        {
          "internalType": "address",
          "name": "to",
          "type": "address"
        },
        {
          "internalType": "uint256",
          "name": "tokenId",
          "type": "uint256"
        }
      ],
      "name": "safeTransferFrom",
      "outputs": [],
      "stateMutability": "nonpayable",
      "type": "function"
    },
    {
      "inputs": [
        {
          "internalType": "address",
          "name": "from",
          "type": "address"
        },
        {
          "internalType": "address",
          "name": "to",
          "type": "address"
        },
        {
          "internalType": "uint256",
          "name": "tokenId",
          "type": "uint256"
        },
        {
          "internalType": "bytes",
          "name": "data",
          "type": "bytes"
        }
      ],
      "name": "safeTransferFrom",
      "outputs": [],
      "stateMutability": "nonpayable",
      "type": "function"
    },
    {
      "inputs": [
        {
          "internalType": "uint256",
          "name": "tokenId",
          "type": "uint256"
        }
      ],
      "name": "sellNFT",
      "outputs": [],
      "stateMutability": "payable",
      "type": "function"
    },
    {
      "inputs": [
        {
          "internalType": "address",
          "name": "operator",
          "type": "address"
        },
        {
          "internalType": "bool",
          "name": "approved",
          "type": "bool"
        }
      ],
      "name": "setApprovalForAll",
      "outputs": [],
      "stateMutability": "nonpayable",
      "type": "function"
    },
    {
      "inputs": [
        {
          "internalType": "bytes4",
          "name": "interfaceId",
          "type": "bytes4"
        }
      ],
      "name": "supportsInterface",
      "outputs": [
        {
          "internalType": "bool",
          "name": "",
          "type": "bool"
        }
      ],
      "stateMutability": "view",
      "type": "function"
    },
    {
      "inputs": [],
      "name": "symbol",
      "outputs": [
        {
          "internalType": "string",
          "name": "",
          "type": "string"
        }
      ],
      "stateMutability": "view",
      "type": "function"
    },
    {
      "inputs": [
        {
          "internalType": "uint256",
          "name": "tokenId",
          "type": "uint256"
        }
      ],
      "name": "tokenURI",
      "outputs": [
        {
          "internalType": "string",
          "name": "",
          "type": "string"
        }
      ],
      "stateMutability": "view",
      "type": "function"
    },
    {
      "inputs": [
        {
          "internalType": "address",
          "name": "",
          "type": "address"
        }
      ],
      "name": "totalRoyaltiesEarned",
      "outputs": [
        {
          "internalType": "uint256",
          "name": "",
          "type": "uint256"
        }
      ],
      "stateMutability": "view",
      "type": "function"
    },
    {
      "inputs": [
        {
          "internalType": "address",
          "name": "recipient",
          "type": "address"
        },
        {
          "internalType": "uint256",
          "name": "tokenId",
          "type": "uint256"
        }
      ],
      "name": "tradeNFT",
      "outputs": [],
      "stateMutability": "nonpayable",
      "type": "function"
    },
    {
      "inputs": [
        {
          "internalType": "address",
          "name": "from",
          "type": "address"
        },
        {
          "internalType": "address",
          "name": "to",
          "type": "address"
        },
        {
          "internalType": "uint256",
          "name": "tokenId",
          "type": "uint256"
        }
      ],
      "name": "transferFrom",
      "outputs": [],
      "stateMutability": "nonpayable",
      "type": "function"
    },
    {
      "inputs": [
        {
          "internalType": "uint256",
          "name": "_listingFeePercent",
          "type": "uint256"
        }
      ],
      "name": "updateListingFeePercent",
      "outputs": [],
      "stateMutability": "nonpayable",
      "type": "function"
    },
    {
      "inputs": [
        {
          "internalType": "uint256",
          "name": "_royaltyPercent",
          "type": "uint256"
        }
      ],
      "name": "updateRoyaltyPercent",
      "outputs": [],
      "stateMutability": "nonpayable",
      "type": "function"
    }
  ],
  "bytecode": "0x6080604052601460085560056009553480156200001b57600080fd5b506040518060400160405280600881526020017f4e465453544f52450000000000000000000000000000000000000000000000008152506040518060400160405280600381526020017f4e4653000000000000000000000000000000000000000000000000000000000081525081600090816200009991906200036f565b508060019081620000ab91906200036f565b50505033600760006101000a81548173ffffffffffffffffffffffffffffffffffffffff021916908373ffffffffffffffffffffffffffffffffffffffff16021790555062000456565b600081519050919050565b7f4e487b7100000000000000000000000000000000000000000000000000000000600052604160045260246000fd5b7f4e487b7100000000000000000000000000000000000000000000000000000000600052602260045260246000fd5b600060028204905060018216806200017757607f821691505b6020821081036200018d576200018c6200012f565b5b50919050565b60008190508160005260206000209050919050565b60006020601f8301049050919050565b600082821b905092915050565b600060088302620001f77fffffffffffffffffffffffffffffffffffffffffffffffffffffffffffffffff82620001b8565b620002038683620001b8565b95508019841693508086168417925050509392505050565b6000819050919050565b6000819050919050565b6000620002506200024a62000244846200021b565b62000225565b6200021b565b9050919050565b6000819050919050565b6200026c836200022f565b620002846200027b8262000257565b848454620001c5565b825550505050565b600090565b6200029b6200028c565b620002a881848462000261565b505050565b5b81811015620002d057620002c460008262000291565b600181019050620002ae565b5050565b601f8211156200031f57620002e98162000193565b620002f484620001a8565b8101602085101562000304578190505b6200031c6200031385620001a8565b830182620002ad565b50505b505050565b600082821c905092915050565b6000620003446000198460080262000324565b1980831691505092915050565b60006200035f838362000331565b9150826002028217905092915050565b6200037a82620000f5565b67ffffffffffffffff81111562000396576200039562000100565b5b620003a282546200015e565b620003af828285620002d4565b600060209050601f831160018114620003e75760008415620003d2578287015190505b620003de858262000351565b8655506200044e565b601f198416620003f78662000193565b60005b828110156200042157848901518255600182019150602085019450602081019050620003fa565b868310156200044157848901516200043d601f89168262000331565b8355505b6001600288020188555050505b505050505050565b613edc80620004666000396000f3fe6080604052600436106101b75760003560e01c80636352211e116100ec578063ac6a91851161008a578063e563f51c11610064578063e563f51c14610634578063e985e9c514610671578063ee9cdfb3146106ae578063f6ef4368146106ca576101b7565b8063ac6a9185146105a5578063b88d4fde146105ce578063c87b56dd146105f7576101b7565b806372b3b620116100c657806372b3b620146104e957806395d89b41146105265780639f67756d14610551578063a22cb4651461057c576101b7565b80636352211e14610444578063650025a01461048157806370a08231146104ac576101b7565b806342842e0e1161015957806360ed87fd1161013357806360ed87fd1461039a5780636151ff2e146103c3578063629cb2e4146103ee57806362adec7014610419576101b7565b806342842e0e1461031b5780634b58ffaa14610344578063561892361461036f576101b7565b8063081812fc11610195578063081812fc1461024f578063095ea7b31461028c5780630ea59c4b146102b557806323b872dd146102f2576101b7565b806301ffc9a7146101bc57806306fc1245146101f957806306fdde0314610224575b600080fd5b3480156101c857600080fd5b506101e360048036038101906101de9190612da9565b6106f3565b6040516101f09190612df1565b60405180910390f35b34801561020557600080fd5b5061020e610754565b60405161021b9190612e25565b60405180910390f35b34801561023057600080fd5b5061023961075e565b6040516102469190612ed0565b60405180910390f35b34801561025b57600080fd5b5061027660048036038101906102719190612f1e565b6107f0565b6040516102839190612f8c565b60405180910390f35b34801561029857600080fd5b506102b360048036038101906102ae9190612fd3565b61080c565b005b3480156102c157600080fd5b506102dc60048036038101906102d79190612f1e565b610822565b6040516102e991906130ab565b60405180910390f35b3480156102fe57600080fd5b50610319600480360381019061031491906130c6565b610965565b005b34801561032757600080fd5b50610342600480360381019061033d91906130c6565b610a67565b005b34801561035057600080fd5b50610359610a87565b6040516103669190613230565b60405180910390f35b34801561037b57600080fd5b50610384610c84565b6040516103919190612e25565b60405180910390f35b3480156103a657600080fd5b506103c160048036038101906103bc9190612f1e565b610c8e565b005b3480156103cf57600080fd5b506103d8610d28565b6040516103e59190612e25565b60405180910390f35b3480156103fa57600080fd5b50610403610d2e565b6040516104109190613230565b60405180910390f35b34801561042557600080fd5b5061042e611132565b60405161043b9190612e25565b60405180910390f35b34801561045057600080fd5b5061046b60048036038101906104669190612f1e565b61113c565b6040516104789190612f8c565b60405180910390f35b34801561048d57600080fd5b5061049661114e565b6040516104a39190613261565b60405180910390f35b3480156104b857600080fd5b506104d360048036038101906104ce919061327c565b611174565b6040516104e09190612e25565b60405180910390f35b3480156104f557600080fd5b50610510600480360381019061050b91906133de565b61122e565b60405161051d9190612e25565b60405180910390f35b34801561053257600080fd5b5061053b6112b9565b6040516105489190612ed0565b60405180910390f35b34801561055d57600080fd5b5061056661134b565b6040516105739190612e25565b60405180910390f35b34801561058857600080fd5b506105a3600480360381019061059e9190613466565b611351565b005b3480156105b157600080fd5b506105cc60048036038101906105c79190612f1e565b611367565b005b3480156105da57600080fd5b506105f560048036038101906105f09190613547565b611401565b005b34801561060357600080fd5b5061061e60048036038101906106199190612f1e565b61141e565b60405161062b9190612ed0565b60405180910390f35b34801561064057600080fd5b5061065b6004803603810190610656919061327c565b611531565b6040516106689190612e25565b60405180910390f35b34801561067d57600080fd5b50610698600480360381019061069391906135ca565b611549565b6040516106a59190612df1565b60405180910390f35b6106c860048036038101906106c39190612f1e565b6115dd565b005b3480156106d657600080fd5b506106f160048036038101906106ec9190612fd3565b611913565b005b6000634906490660e01b7bffffffffffffffffffffffffffffffffffffffffffffffffffffffff1916827bffffffffffffffffffffffffffffffffffffffffffffffffffffffff1916148061074d575061074c82611ad1565b5b9050919050565b6000600854905090565b60606000805461076d90613639565b80601f016020809104026020016040519081016040528092919081815260200182805461079990613639565b80156107e65780601f106107bb576101008083540402835291602001916107e6565b820191906000526020600020905b8154815290600101906020018083116107c957829003601f168201915b5050505050905090565b60006107fb82611bb3565b5061080582611c3b565b9050919050565b61081e8282610819611c78565b611c80565b5050565b61082a612ccc565b600c60008381526020019081526020016000206040518060a0016040529081600082015481526020016001820160009054906101000a900473ffffffffffffffffffffffffffffffffffffffff1673ffffffffffffffffffffffffffffffffffffffff1673ffffffffffffffffffffffffffffffffffffffff1681526020016002820160009054906101000a900473ffffffffffffffffffffffffffffffffffffffff1673ffffffffffffffffffffffffffffffffffffffff1673ffffffffffffffffffffffffffffffffffffffff1681526020016003820160009054906101000a900473ffffffffffffffffffffffffffffffffffffffff1673ffffffffffffffffffffffffffffffffffffffff1673ffffffffffffffffffffffffffffffffffffffff1681526020016004820154815250509050919050565b600073ffffffffffffffffffffffffffffffffffffffff168273ffffffffffffffffffffffffffffffffffffffff16036109d75760006040517f64a0ae920000000000000000000000000000000000000000000000000000000081526004016109ce9190612f8c565b60405180910390fd5b60006109eb83836109e6611c78565b611c92565b90508373ffffffffffffffffffffffffffffffffffffffff168173ffffffffffffffffffffffffffffffffffffffff1614610a61578382826040517f64283d7b000000000000000000000000000000000000000000000000000000008152600401610a589392919061366a565b60405180910390fd5b50505050565b610a8283838360405180602001604052806000815250611401565b505050565b60606000600a54905060008167ffffffffffffffff811115610aac57610aab6132b3565b5b604051908082528060200260200182016040528015610ae557816020015b610ad2612ccc565b815260200190600190039081610aca5790505b5090506000805b83811015610c7a576000600182610b0391906136d0565b90506000600c60008381526020019081526020016000209050806040518060a0016040529081600082015481526020016001820160009054906101000a900473ffffffffffffffffffffffffffffffffffffffff1673ffffffffffffffffffffffffffffffffffffffff1673ffffffffffffffffffffffffffffffffffffffff1681526020016002820160009054906101000a900473ffffffffffffffffffffffffffffffffffffffff1673ffffffffffffffffffffffffffffffffffffffff1673ffffffffffffffffffffffffffffffffffffffff1681526020016003820160009054906101000a900473ffffffffffffffffffffffffffffffffffffffff1673ffffffffffffffffffffffffffffffffffffffff1673ffffffffffffffffffffffffffffffffffffffff168152602001600482015481525050858581518110610c5157610c50613704565b5b6020026020010181905250600184610c6991906136d0565b935050508080600101915050610aec565b5081935050505090565b6000600a54905090565b600760009054906101000a900473ffffffffffffffffffffffffffffffffffffffff1673ffffffffffffffffffffffffffffffffffffffff163373ffffffffffffffffffffffffffffffffffffffff1614610d1e576040517f08c379a0000000000000000000000000000000000000000000000000000000008152600401610d159061377f565b60405180910390fd5b8060098190555050565b60085481565b60606000600a54905060008060005b83811015610e4f573373ffffffffffffffffffffffffffffffffffffffff16600c6000600184610d6d91906136d0565b815260200190815260200160002060010160009054906101000a900473ffffffffffffffffffffffffffffffffffffffff1673ffffffffffffffffffffffffffffffffffffffff161480610e2e57503373ffffffffffffffffffffffffffffffffffffffff16600c6000600184610de491906136d0565b815260200190815260200160002060020160009054906101000a900473ffffffffffffffffffffffffffffffffffffffff1673ffffffffffffffffffffffffffffffffffffffff16145b15610e42578280610e3e9061379f565b9350505b8080600101915050610d3d565b5060008267ffffffffffffffff811115610e6c57610e6b6132b3565b5b604051908082528060200260200182016040528015610ea557816020015b610e92612ccc565b815260200190600190039081610e8a5790505b50905060005b84811015611127573373ffffffffffffffffffffffffffffffffffffffff16600c6000600184610edb91906136d0565b815260200190815260200160002060010160009054906101000a900473ffffffffffffffffffffffffffffffffffffffff1673ffffffffffffffffffffffffffffffffffffffff161480610f9c57503373ffffffffffffffffffffffffffffffffffffffff16600c6000600184610f5291906136d0565b815260200190815260200160002060020160009054906101000a900473ffffffffffffffffffffffffffffffffffffffff1673ffffffffffffffffffffffffffffffffffffffff16145b1561111a576000600182610fb091906136d0565b90506000600c60008381526020019081526020016000209050806040518060a0016040529081600082015481526020016001820160009054906101000a900473ffffffffffffffffffffffffffffffffffffffff1673ffffffffffffffffffffffffffffffffffffffff1673ffffffffffffffffffffffffffffffffffffffff1681526020016002820160009054906101000a900473ffffffffffffffffffffffffffffffffffffffff1673ffffffffffffffffffffffffffffffffffffffff1673ffffffffffffffffffffffffffffffffffffffff1681526020016003820160009054906101000a900473ffffffffffffffffffffffffffffffffffffffff1673ffffffffffffffffffffffffffffffffffffffff1673ffffffffffffffffffffffffffffffffffffffff1681526020016004820154815250508486815181106110fe576110fd613704565b5b602002602001018190525084806111149061379f565b95505050505b8080600101915050610eab565b508094505050505090565b6000600954905090565b600061114782611bb3565b9050919050565b600760009054906101000a900473ffffffffffffffffffffffffffffffffffffffff1681565b60008073ffffffffffffffffffffffffffffffffffffffff168273ffffffffffffffffffffffffffffffffffffffff16036111e75760006040517f89c62b640000000000000000000000000000000000000000000000000000000081526004016111de9190612f8c565b60405180910390fd5b600360008373ffffffffffffffffffffffffffffffffffffffff1673ffffffffffffffffffffffffffffffffffffffff168152602001908152602001600020549050919050565b6000808211611272576040517f08c379a000000000000000000000000000000000000000000000000000000000815260040161126990613833565b60405180910390fd5b600a60008154809291906112859061379f565b91905055506000600a54905061129b3382611eac565b6112a58185611eca565b6112af8184611f26565b8091505092915050565b6060600180546112c890613639565b80601f01602080910402602001604051908101604052809291908181526020018280546112f490613639565b80156113415780601f1061131657610100808354040283529160200191611341565b820191906000526020600020905b81548152906001019060200180831161132457829003601f168201915b5050505050905090565b60095481565b61136361135c611c78565b8383612092565b5050565b600760009054906101000a900473ffffffffffffffffffffffffffffffffffffffff1673ffffffffffffffffffffffffffffffffffffffff163373ffffffffffffffffffffffffffffffffffffffff16146113f7576040517f08c379a00000000000000000000000000000000000000000000000000000000081526004016113ee9061377f565b60405180910390fd5b8060088190555050565b61140c848484610965565b61141884848484612201565b50505050565b606061142982611bb3565b50600060066000848152602001908152602001600020805461144a90613639565b80601f016020809104026020016040519081016040528092919081815260200182805461147690613639565b80156114c35780601f10611498576101008083540402835291602001916114c3565b820191906000526020600020905b8154815290600101906020018083116114a657829003601f168201915b5050505050905060006114d46123b8565b905060008151036114e957819250505061152c565b60008251111561151e57808260405160200161150692919061388f565b6040516020818303038152906040529250505061152c565b611527846123cf565b925050505b919050565b600d6020528060005260406000206000915090505481565b6000600560008473ffffffffffffffffffffffffffffffffffffffff1673ffffffffffffffffffffffffffffffffffffffff16815260200190815260200160002060008373ffffffffffffffffffffffffffffffffffffffff1673ffffffffffffffffffffffffffffffffffffffff16815260200190815260200160002060009054906101000a900460ff16905092915050565b6000600c6000838152602001908152602001600020905060008160040154905060008260020160009054906101000a900473ffffffffffffffffffffffffffffffffffffffff16905060008360030160009054906101000a900473ffffffffffffffffffffffffffffffffffffffff169050823414611691576040517f08c379a0000000000000000000000000000000000000000000000000000000008152600401611688906138ff565b60405180910390fd5b60006064600954856116a3919061391f565b6116ad9190613990565b905080600d60008473ffffffffffffffffffffffffffffffffffffffff1673ffffffffffffffffffffffffffffffffffffffff16815260200190815260200160002060008282546116fe91906136d0565b92505081905550338560020160006101000a81548173ffffffffffffffffffffffffffffffffffffffff021916908373ffffffffffffffffffffffffffffffffffffffff1602179055506117778560010160009054906101000a900473ffffffffffffffffffffffffffffffffffffffff163388612438565b6000606460085486611789919061391f565b6117939190613990565b9050600760009054906101000a900473ffffffffffffffffffffffffffffffffffffffff1673ffffffffffffffffffffffffffffffffffffffff166108fc829081150290604051600060405180830381858888f193505050501580156117fd573d6000803e3d6000fd5b508273ffffffffffffffffffffffffffffffffffffffff166108fc839081150290604051600060405180830381858888f19350505050158015611844573d6000803e3d6000fd5b508273ffffffffffffffffffffffffffffffffffffffff167fd4aced6a2fedafdf0ace70b949ff0a9877b479c1cf14ab3d84768281f270c9c7888460405161188d9291906139c1565b60405180910390a28373ffffffffffffffffffffffffffffffffffffffff166108fc8383346118bc91906139ea565b6118c691906139ea565b9081150290604051600060405180830381858888f193505050501580156118f1573d6000803e3d6000fd5b50600b60008154809291906119059061379f565b919050555050505050505050565b3373ffffffffffffffffffffffffffffffffffffffff166119338261113c565b73ffffffffffffffffffffffffffffffffffffffff1614611989576040517f08c379a000000000000000000000000000000000000000000000000000000000815260040161198090613a90565b60405180910390fd5b600073ffffffffffffffffffffffffffffffffffffffff168273ffffffffffffffffffffffffffffffffffffffff16036119f8576040517f08c379a00000000000000000000000000000000000000000000000000000000081526004016119ef90613afc565b60405180910390fd5b611a03338383612438565b6000600c6000838152602001908152602001600020600401541115611acd5781600c600083815260200190815260200160002060010160006101000a81548173ffffffffffffffffffffffffffffffffffffffff021916908373ffffffffffffffffffffffffffffffffffffffff16021790555081600c600083815260200190815260200160002060020160006101000a81548173ffffffffffffffffffffffffffffffffffffffff021916908373ffffffffffffffffffffffffffffffffffffffff1602179055505b5050565b60007f80ac58cd000000000000000000000000000000000000000000000000000000007bffffffffffffffffffffffffffffffffffffffffffffffffffffffff1916827bffffffffffffffffffffffffffffffffffffffffffffffffffffffff19161480611b9c57507f5b5e139f000000000000000000000000000000000000000000000000000000007bffffffffffffffffffffffffffffffffffffffffffffffffffffffff1916827bffffffffffffffffffffffffffffffffffffffffffffffffffffffff1916145b80611bac5750611bab826125a5565b5b9050919050565b600080611bbf8361260f565b9050600073ffffffffffffffffffffffffffffffffffffffff168173ffffffffffffffffffffffffffffffffffffffff1603611c3257826040517f7e273289000000000000000000000000000000000000000000000000000000008152600401611c299190612e25565b60405180910390fd5b80915050919050565b60006004600083815260200190815260200160002060009054906101000a900473ffffffffffffffffffffffffffffffffffffffff169050919050565b600033905090565b611c8d838383600161264c565b505050565b600080611c9e8461260f565b9050600073ffffffffffffffffffffffffffffffffffffffff168373ffffffffffffffffffffffffffffffffffffffff1614611ce057611cdf818486612811565b5b600073ffffffffffffffffffffffffffffffffffffffff168173ffffffffffffffffffffffffffffffffffffffff1614611d7157611d2260008560008061264c565b6001600360008373ffffffffffffffffffffffffffffffffffffffff1673ffffffffffffffffffffffffffffffffffffffff168152602001908152602001600020600082825403925050819055505b600073ffffffffffffffffffffffffffffffffffffffff168573ffffffffffffffffffffffffffffffffffffffff1614611df4576001600360008773ffffffffffffffffffffffffffffffffffffffff1673ffffffffffffffffffffffffffffffffffffffff168152602001908152602001600020600082825401925050819055505b846002600086815260200190815260200160002060006101000a81548173ffffffffffffffffffffffffffffffffffffffff021916908373ffffffffffffffffffffffffffffffffffffffff160217905550838573ffffffffffffffffffffffffffffffffffffffff168273ffffffffffffffffffffffffffffffffffffffff167fddf252ad1be2c89b69c2b068fc378daa952ba7f163c4a11628f55a4df523b3ef60405160405180910390a4809150509392505050565b611ec68282604051806020016040528060008152506128d5565b5050565b80600660008481526020019081526020016000209081611eea9190613cc8565b507ff8e1a15aba9398e019f0b49df1a4fde98ee17ae345cb5f6b5e2c27f5033e8ce782604051611f1a9190612e25565b60405180910390a15050565b6040518060a001604052808381526020013373ffffffffffffffffffffffffffffffffffffffff1681526020013373ffffffffffffffffffffffffffffffffffffffff1681526020013373ffffffffffffffffffffffffffffffffffffffff16815260200182815250600c60008481526020019081526020016000206000820151816000015560208201518160010160006101000a81548173ffffffffffffffffffffffffffffffffffffffff021916908373ffffffffffffffffffffffffffffffffffffffff16021790555060408201518160020160006101000a81548173ffffffffffffffffffffffffffffffffffffffff021916908373ffffffffffffffffffffffffffffffffffffffff16021790555060608201518160030160006101000a81548173ffffffffffffffffffffffffffffffffffffffff021916908373ffffffffffffffffffffffffffffffffffffffff160217905550608082015181600401559050505050565b600073ffffffffffffffffffffffffffffffffffffffff168273ffffffffffffffffffffffffffffffffffffffff160361210357816040517f5b08ba180000000000000000000000000000000000000000000000000000000081526004016120fa9190612f8c565b60405180910390fd5b80600560008573ffffffffffffffffffffffffffffffffffffffff1673ffffffffffffffffffffffffffffffffffffffff16815260200190815260200160002060008473ffffffffffffffffffffffffffffffffffffffff1673ffffffffffffffffffffffffffffffffffffffff16815260200190815260200160002060006101000a81548160ff0219169083151502179055508173ffffffffffffffffffffffffffffffffffffffff168373ffffffffffffffffffffffffffffffffffffffff167f17307eab39ab6107e8899845ad3d59bd9653f200f220920489ca2b5937696c31836040516121f49190612df1565b60405180910390a3505050565b60008373ffffffffffffffffffffffffffffffffffffffff163b11156123b2578273ffffffffffffffffffffffffffffffffffffffff1663150b7a02612245611c78565b8685856040518563ffffffff1660e01b81526004016122679493929190613def565b6020604051808303816000875af19250505080156122a357506040513d601f19601f820116820180604052508101906122a09190613e50565b60015b612327573d80600081146122d3576040519150601f19603f3d011682016040523d82523d6000602084013e6122d8565b606091505b50600081510361231f57836040517f64a0ae920000000000000000000000000000000000000000000000000000000081526004016123169190612f8c565b60405180910390fd5b805181602001fd5b63150b7a0260e01b7bffffffffffffffffffffffffffffffffffffffffffffffffffffffff1916817bffffffffffffffffffffffffffffffffffffffffffffffffffffffff1916146123b057836040517f64a0ae920000000000000000000000000000000000000000000000000000000081526004016123a79190612f8c565b60405180910390fd5b505b50505050565b606060405180602001604052806000815250905090565b60606123da82611bb3565b5060006123e56123b8565b905060008151116124055760405180602001604052806000815250612430565b8061240f846128f1565b60405160200161242092919061388f565b6040516020818303038152906040525b915050919050565b600073ffffffffffffffffffffffffffffffffffffffff168273ffffffffffffffffffffffffffffffffffffffff16036124aa5760006040517f64a0ae920000000000000000000000000000000000000000000000000000000081526004016124a19190612f8c565b60405180910390fd5b60006124b883836000611c92565b9050600073ffffffffffffffffffffffffffffffffffffffff168173ffffffffffffffffffffffffffffffffffffffff160361252b57816040517f7e2732890000000000000000000000000000000000000000000000000000000081526004016125229190612e25565b60405180910390fd5b8373ffffffffffffffffffffffffffffffffffffffff168173ffffffffffffffffffffffffffffffffffffffff161461259f578382826040517f64283d7b0000000000000000000000000000000000000000000000000000000081526004016125969392919061366a565b60405180910390fd5b50505050565b60007f01ffc9a7000000000000000000000000000000000000000000000000000000007bffffffffffffffffffffffffffffffffffffffffffffffffffffffff1916827bffffffffffffffffffffffffffffffffffffffffffffffffffffffff1916149050919050565b60006002600083815260200190815260200160002060009054906101000a900473ffffffffffffffffffffffffffffffffffffffff169050919050565b80806126855750600073ffffffffffffffffffffffffffffffffffffffff168273ffffffffffffffffffffffffffffffffffffffff1614155b156127b957600061269584611bb3565b9050600073ffffffffffffffffffffffffffffffffffffffff168373ffffffffffffffffffffffffffffffffffffffff161415801561270057508273ffffffffffffffffffffffffffffffffffffffff168173ffffffffffffffffffffffffffffffffffffffff1614155b801561271357506127118184611549565b155b1561275557826040517fa9fbf51f00000000000000000000000000000000000000000000000000000000815260040161274c9190612f8c565b60405180910390fd5b81156127b757838573ffffffffffffffffffffffffffffffffffffffff168273ffffffffffffffffffffffffffffffffffffffff167f8c5be1e5ebec7d5bd14f71427d1e84f3dd0314c0f7b2291e5b200ac8c7c3b92560405160405180910390a45b505b836004600085815260200190815260200160002060006101000a81548173ffffffffffffffffffffffffffffffffffffffff021916908373ffffffffffffffffffffffffffffffffffffffff16021790555050505050565b61281c8383836129bf565b6128d057600073ffffffffffffffffffffffffffffffffffffffff168373ffffffffffffffffffffffffffffffffffffffff160361289157806040517f7e2732890000000000000000000000000000000000000000000000000000000081526004016128889190612e25565b60405180910390fd5b81816040517f177e802f0000000000000000000000000000000000000000000000000000000081526004016128c7929190613e7d565b60405180910390fd5b505050565b6128df8383612a80565b6128ec6000848484612201565b505050565b60606000600161290084612b79565b01905060008167ffffffffffffffff81111561291f5761291e6132b3565b5b6040519080825280601f01601f1916602001820160405280156129515781602001600182028036833780820191505090505b509050600082602001820190505b6001156129b4578080600190039150507f3031323334353637383961626364656600000000000000000000000000000000600a86061a8153600a85816129a8576129a7613961565b5b0494506000850361295f575b819350505050919050565b60008073ffffffffffffffffffffffffffffffffffffffff168373ffffffffffffffffffffffffffffffffffffffff1614158015612a7757508273ffffffffffffffffffffffffffffffffffffffff168473ffffffffffffffffffffffffffffffffffffffff161480612a385750612a378484611549565b5b80612a7657508273ffffffffffffffffffffffffffffffffffffffff16612a5e83611c3b565b73ffffffffffffffffffffffffffffffffffffffff16145b5b90509392505050565b600073ffffffffffffffffffffffffffffffffffffffff168273ffffffffffffffffffffffffffffffffffffffff1603612af25760006040517f64a0ae92000000000000000000000000000000000000000000000000000000008152600401612ae99190612f8c565b60405180910390fd5b6000612b0083836000611c92565b9050600073ffffffffffffffffffffffffffffffffffffffff168173ffffffffffffffffffffffffffffffffffffffff1614612b745760006040517f73c6ac6e000000000000000000000000000000000000000000000000000000008152600401612b6b9190612f8c565b60405180910390fd5b505050565b600080600090507a184f03e93ff9f4daa797ed6e38ed64bf6a1f0100000000000000008310612bd7577a184f03e93ff9f4daa797ed6e38ed64bf6a1f0100000000000000008381612bcd57612bcc613961565b5b0492506040810190505b6d04ee2d6d415b85acef81000000008310612c14576d04ee2d6d415b85acef81000000008381612c0a57612c09613961565b5b0492506020810190505b662386f26fc100008310612c4357662386f26fc100008381612c3957612c38613961565b5b0492506010810190505b6305f5e1008310612c6c576305f5e1008381612c6257612c61613961565b5b0492506008810190505b6127108310612c91576127108381612c8757612c86613961565b5b0492506004810190505b60648310612cb45760648381612caa57612ca9613961565b5b0492506002810190505b600a8310612cc3576001810190505b80915050919050565b6040518060a0016040528060008152602001600073ffffffffffffffffffffffffffffffffffffffff168152602001600073ffffffffffffffffffffffffffffffffffffffff168152602001600073ffffffffffffffffffffffffffffffffffffffff168152602001600081525090565b6000604051905090565b600080fd5b600080fd5b60007fffffffff0000000000000000000000000000000000000000000000000000000082169050919050565b612d8681612d51565b8114612d9157600080fd5b50565b600081359050612da381612d7d565b92915050565b600060208284031215612dbf57612dbe612d47565b5b6000612dcd84828501612d94565b91505092915050565b60008115159050919050565b612deb81612dd6565b82525050565b6000602082019050612e066000830184612de2565b92915050565b6000819050919050565b612e1f81612e0c565b82525050565b6000602082019050612e3a6000830184612e16565b92915050565b600081519050919050565b600082825260208201905092915050565b60005b83811015612e7a578082015181840152602081019050612e5f565b60008484015250505050565b6000601f19601f8301169050919050565b6000612ea282612e40565b612eac8185612e4b565b9350612ebc818560208601612e5c565b612ec581612e86565b840191505092915050565b60006020820190508181036000830152612eea8184612e97565b905092915050565b612efb81612e0c565b8114612f0657600080fd5b50565b600081359050612f1881612ef2565b92915050565b600060208284031215612f3457612f33612d47565b5b6000612f4284828501612f09565b91505092915050565b600073ffffffffffffffffffffffffffffffffffffffff82169050919050565b6000612f7682612f4b565b9050919050565b612f8681612f6b565b82525050565b6000602082019050612fa16000830184612f7d565b92915050565b612fb081612f6b565b8114612fbb57600080fd5b50565b600081359050612fcd81612fa7565b92915050565b60008060408385031215612fea57612fe9612d47565b5b6000612ff885828601612fbe565b925050602061300985828601612f09565b9150509250929050565b61301c81612e0c565b82525050565b600061302d82612f4b565b9050919050565b61303d81613022565b82525050565b60a0820160008201516130596000850182613013565b50602082015161306c6020850182613034565b50604082015161307f6040850182613034565b5060608201516130926060850182613034565b5060808201516130a56080850182613013565b50505050565b600060a0820190506130c06000830184613043565b92915050565b6000806000606084860312156130df576130de612d47565b5b60006130ed86828701612fbe565b93505060206130fe86828701612fbe565b925050604061310f86828701612f09565b9150509250925092565b600081519050919050565b600082825260208201905092915050565b6000819050602082019050919050565b60a08201600082015161315b6000850182613013565b50602082015161316e6020850182613034565b5060408201516131816040850182613034565b5060608201516131946060850182613034565b5060808201516131a76080850182613013565b50505050565b60006131b98383613145565b60a08301905092915050565b6000602082019050919050565b60006131dd82613119565b6131e78185613124565b93506131f283613135565b8060005b8381101561322357815161320a88826131ad565b9750613215836131c5565b9250506001810190506131f6565b5085935050505092915050565b6000602082019050818103600083015261324a81846131d2565b905092915050565b61325b81613022565b82525050565b60006020820190506132766000830184613252565b92915050565b60006020828403121561329257613291612d47565b5b60006132a084828501612fbe565b91505092915050565b600080fd5b600080fd5b7f4e487b7100000000000000000000000000000000000000000000000000000000600052604160045260246000fd5b6132eb82612e86565b810181811067ffffffffffffffff8211171561330a576133096132b3565b5b80604052505050565b600061331d612d3d565b905061332982826132e2565b919050565b600067ffffffffffffffff821115613349576133486132b3565b5b61335282612e86565b9050602081019050919050565b82818337600083830152505050565b600061338161337c8461332e565b613313565b90508281526020810184848401111561339d5761339c6132ae565b5b6133a884828561335f565b509392505050565b600082601f8301126133c5576133c46132a9565b5b81356133d584826020860161336e565b91505092915050565b600080604083850312156133f5576133f4612d47565b5b600083013567ffffffffffffffff81111561341357613412612d4c565b5b61341f858286016133b0565b925050602061343085828601612f09565b9150509250929050565b61344381612dd6565b811461344e57600080fd5b50565b6000813590506134608161343a565b92915050565b6000806040838503121561347d5761347c612d47565b5b600061348b85828601612fbe565b925050602061349c85828601613451565b9150509250929050565b600067ffffffffffffffff8211156134c1576134c06132b3565b5b6134ca82612e86565b9050602081019050919050565b60006134ea6134e5846134a6565b613313565b905082815260208101848484011115613506576135056132ae565b5b61351184828561335f565b509392505050565b600082601f83011261352e5761352d6132a9565b5b813561353e8482602086016134d7565b91505092915050565b6000806000806080858703121561356157613560612d47565b5b600061356f87828801612fbe565b945050602061358087828801612fbe565b935050604061359187828801612f09565b925050606085013567ffffffffffffffff8111156135b2576135b1612d4c565b5b6135be87828801613519565b91505092959194509250565b600080604083850312156135e1576135e0612d47565b5b60006135ef85828601612fbe565b925050602061360085828601612fbe565b9150509250929050565b7f4e487b7100000000000000000000000000000000000000000000000000000000600052602260045260246000fd5b6000600282049050600182168061365157607f821691505b6020821081036136645761366361360a565b5b50919050565b600060608201905061367f6000830186612f7d565b61368c6020830185612e16565b6136996040830184612f7d565b949350505050565b7f4e487b7100000000000000000000000000000000000000000000000000000000600052601160045260246000fd5b60006136db82612e0c565b91506136e683612e0c565b92508282019050808211156136fe576136fd6136a1565b5b92915050565b7f4e487b7100000000000000000000000000000000000000000000000000000000600052603260045260246000fd5b7f4f6e6c79204f776e65722043616e204163636573732054686973000000000000600082015250565b6000613769601a83612e4b565b915061377482613733565b602082019050919050565b600060208201905081810360008301526137988161375c565b9050919050565b60006137aa82612e0c565b91507fffffffffffffffffffffffffffffffffffffffffffffffffffffffffffffffff82036137dc576137db6136a1565b5b600182019050919050565b7f5072696365206d7573742062652067726561746572207468616e207a65726f00600082015250565b600061381d601f83612e4b565b9150613828826137e7565b602082019050919050565b6000602082019050818103600083015261384c81613810565b9050919050565b600081905092915050565b600061386982612e40565b6138738185613853565b9350613883818560208601612e5c565b80840191505092915050565b600061389b828561385e565b91506138a7828461385e565b91508190509392505050565b7f506c6561736520706179207468652061736b696e672070726963650000000000600082015250565b60006138e9601b83612e4b565b91506138f4826138b3565b602082019050919050565b60006020820190508181036000830152613918816138dc565b9050919050565b600061392a82612e0c565b915061393583612e0c565b925082820261394381612e0c565b9150828204841483151761395a576139596136a1565b5b5092915050565b7f4e487b7100000000000000000000000000000000000000000000000000000000600052601260045260246000fd5b600061399b82612e0c565b91506139a683612e0c565b9250826139b6576139b5613961565b5b828204905092915050565b60006040820190506139d66000830185612e16565b6139e36020830184612e16565b9392505050565b60006139f582612e0c565b9150613a0083612e0c565b9250828203905081811115613a1857613a176136a1565b5b92915050565b7f596f7520617265206e6f7420746865206f776e6572206f662074686973204e4660008201527f5400000000000000000000000000000000000000000000000000000000000000602082015250565b6000613a7a602183612e4b565b9150613a8582613a1e565b604082019050919050565b60006020820190508181036000830152613aa981613a6d565b9050919050565b7f496e76616c696420726563697069656e74206164647265737300000000000000600082015250565b6000613ae6601983612e4b565b9150613af182613ab0565b602082019050919050565b60006020820190508181036000830152613b1581613ad9565b9050919050565b60008190508160005260206000209050919050565b60006020601f8301049050919050565b600082821b905092915050565b600060088302613b7e7fffffffffffffffffffffffffffffffffffffffffffffffffffffffffffffffff82613b41565b613b888683613b41565b95508019841693508086168417925050509392505050565b6000819050919050565b6000613bc5613bc0613bbb84612e0c565b613ba0565b612e0c565b9050919050565b6000819050919050565b613bdf83613baa565b613bf3613beb82613bcc565b848454613b4e565b825550505050565b600090565b613c08613bfb565b613c13818484613bd6565b505050565b5b81811015613c3757613c2c600082613c00565b600181019050613c19565b5050565b601f821115613c7c57613c4d81613b1c565b613c5684613b31565b81016020851015613c65578190505b613c79613c7185613b31565b830182613c18565b50505b505050565b600082821c905092915050565b6000613c9f60001984600802613c81565b1980831691505092915050565b6000613cb88383613c8e565b9150826002028217905092915050565b613cd182612e40565b67ffffffffffffffff811115613cea57613ce96132b3565b5b613cf48254613639565b613cff828285613c3b565b600060209050601f831160018114613d325760008415613d20578287015190505b613d2a8582613cac565b865550613d92565b601f198416613d4086613b1c565b60005b82811015613d6857848901518255600182019150602085019450602081019050613d43565b86831015613d855784890151613d81601f891682613c8e565b8355505b6001600288020188555050505b505050505050565b600081519050919050565b600082825260208201905092915050565b6000613dc182613d9a565b613dcb8185613da5565b9350613ddb818560208601612e5c565b613de481612e86565b840191505092915050565b6000608082019050613e046000830187612f7d565b613e116020830186612f7d565b613e1e6040830185612e16565b8181036060830152613e308184613db6565b905095945050505050565b600081519050613e4a81612d7d565b92915050565b600060208284031215613e6657613e65612d47565b5b6000613e7484828501613e3b565b91505092915050565b6000604082019050613e926000830185612f7d565b613e9f6020830184612e16565b939250505056fea26469706673582212201d3daacad378ef3cd36eec399601e2a0e4bb291ee73f56d4712534559cab792a64736f6c63430008180033",
  "linkReferences": {},
  "deployedLinkReferences": {}
}