{
  "_format": "hh-sol-artifact-1",
  "contractName": "NFTSTORE",
  "sourceName": "contracts/NFTSTORE.sol",
  "abi": [
    {
      "inputs": [],
      "stateMutability": "nonpayable",
      "type": "constructor"
    },
    {
      "inputs": [
        {
          "internalType": "address",
          "name": "sender",
          "type": "address"
        },
        {
          "internalType": "uint256",
          "name": "tokenId",
          "type": "uint256"
        },
        {
          "internalType": "address",
          "name": "owner",
          "type": "address"
        }
      ],
      "name": "ERC721IncorrectOwner",
      "type": "error"
    },
    {
      "inputs": [
        {
          "internalType": "address",
          "name": "operator",
          "type": "address"
        },
        {
          "internalType": "uint256",
          "name": "tokenId",
          "type": "uint256"
        }
      ],
      "name": "ERC721InsufficientApproval",
      "type": "error"
    },
    {
      "inputs": [
        {
          "internalType": "address",
          "name": "approver",
          "type": "address"
        }
      ],
      "name": "ERC721InvalidApprover",
      "type": "error"
    },
    {
      "inputs": [
        {
          "internalType": "address",
          "name": "operator",
          "type": "address"
        }
      ],
      "name": "ERC721InvalidOperator",
      "type": "error"
    },
    {
      "inputs": [
        {
          "internalType": "address",
          "name": "owner",
          "type": "address"
        }
      ],
      "name": "ERC721InvalidOwner",
      "type": "error"
    },
    {
      "inputs": [
        {
          "internalType": "address",
          "name": "receiver",
          "type": "address"
        }
      ],
      "name": "ERC721InvalidReceiver",
      "type": "error"
    },
    {
      "inputs": [
        {
          "internalType": "address",
          "name": "sender",
          "type": "address"
        }
      ],
      "name": "ERC721InvalidSender",
      "type": "error"
    },
    {
      "inputs": [
        {
          "internalType": "uint256",
          "name": "tokenId",
          "type": "uint256"
        }
      ],
      "name": "ERC721NonexistentToken",
      "type": "error"
    },
    {
      "anonymous": false,
      "inputs": [
        {
          "indexed": true,
          "internalType": "address",
          "name": "owner",
          "type": "address"
        },
        {
          "indexed": true,
          "internalType": "address",
          "name": "approved",
          "type": "address"
        },
        {
          "indexed": true,
          "internalType": "uint256",
          "name": "tokenId",
          "type": "uint256"
        }
      ],
      "name": "Approval",
      "type": "event"
    },
    {
      "anonymous": false,
      "inputs": [
        {
          "indexed": true,
          "internalType": "address",
          "name": "owner",
          "type": "address"
        },
        {
          "indexed": true,
          "internalType": "address",
          "name": "operator",
          "type": "address"
        },
        {
          "indexed": false,
          "internalType": "bool",
          "name": "approved",
          "type": "bool"
        }
      ],
      "name": "ApprovalForAll",
      "type": "event"
    },
    {
      "anonymous": false,
      "inputs": [
        {
          "indexed": false,
          "internalType": "uint256",
          "name": "_fromTokenId",
          "type": "uint256"
        },
        {
          "indexed": false,
          "internalType": "uint256",
          "name": "_toTokenId",
          "type": "uint256"
        }
      ],
      "name": "BatchMetadataUpdate",
      "type": "event"
    },
    {
      "anonymous": false,
      "inputs": [
        {
          "indexed": false,
          "internalType": "uint256",
          "name": "_tokenId",
          "type": "uint256"
        }
      ],
      "name": "MetadataUpdate",
      "type": "event"
    },
    {
      "anonymous": false,
      "inputs": [
        {
          "indexed": true,
          "internalType": "address",
          "name": "from",
          "type": "address"
        },
        {
          "indexed": true,
          "internalType": "address",
          "name": "to",
          "type": "address"
        },
        {
          "indexed": true,
          "internalType": "uint256",
          "name": "tokenId",
          "type": "uint256"
        }
      ],
      "name": "Transfer",
      "type": "event"
    },
    {
      "inputs": [
        {
          "internalType": "address",
          "name": "to",
          "type": "address"
        },
        {
          "internalType": "uint256",
          "name": "tokenId",
          "type": "uint256"
        }
      ],
      "name": "approve",
      "outputs": [],
      "stateMutability": "nonpayable",
      "type": "function"
    },
    {
      "inputs": [
        {
          "internalType": "address",
          "name": "owner",
          "type": "address"
        }
      ],
      "name": "balanceOf",
      "outputs": [
        {
          "internalType": "uint256",
          "name": "",
          "type": "uint256"
        }
      ],
      "stateMutability": "view",
      "type": "function"
    },
    {
      "inputs": [
        {
          "internalType": "string",
          "name": "_tokenURI",
          "type": "string"
        },
        {
          "internalType": "uint256",
          "name": "_price",
          "type": "uint256"
        }
      ],
      "name": "createToken",
      "outputs": [
        {
          "internalType": "uint256",
          "name": "",
          "type": "uint256"
        }
      ],
      "stateMutability": "nonpayable",
      "type": "function"
    },
    {
      "inputs": [],
      "name": "getAllListedNFTs",
      "outputs": [
        {
          "components": [
            {
              "internalType": "uint256",
              "name": "tokenId",
              "type": "uint256"
            },
            {
              "internalType": "address payable",
              "name": "owner",
              "type": "address"
            },
            {
              "internalType": "address payable",
              "name": "seller",
              "type": "address"
            },
            {
              "internalType": "address payable",
              "name": "creator",
              "type": "address"
            },
            {
              "internalType": "uint256",
              "name": "price",
              "type": "uint256"
            }
          ],
          "internalType": "struct NFTSTORE.nftListing[]",
          "name": "",
          "type": "tuple[]"
        }
      ],
      "stateMutability": "view",
      "type": "function"
    },
    {
      "inputs": [
        {
          "internalType": "uint256",
          "name": "tokenId",
          "type": "uint256"
        }
      ],
      "name": "getApproved",
      "outputs": [
        {
          "internalType": "address",
          "name": "",
          "type": "address"
        }
      ],
      "stateMutability": "view",
      "type": "function"
    },
    {
      "inputs": [],
      "name": "getCurrentTokenId",
      "outputs": [
        {
          "internalType": "uint256",
          "name": "",
          "type": "uint256"
        }
      ],
      "stateMutability": "view",
      "type": "function"
    },
    {
      "inputs": [],
      "name": "getListingFeePercent",
      "outputs": [
        {
          "internalType": "uint256",
          "name": "",
          "type": "uint256"
        }
      ],
      "stateMutability": "view",
      "type": "function"
    },
    {
      "inputs": [],
      "name": "getMyNFTs",
      "outputs": [
        {
          "components": [
            {
              "internalType": "uint256",
              "name": "tokenId",
              "type": "uint256"
            },
            {
              "internalType": "address payable",
              "name": "owner",
              "type": "address"
            },
            {
              "internalType": "address payable",
              "name": "seller",
              "type": "address"
            },
            {
              "internalType": "address payable",
              "name": "creator",
              "type": "address"
            },
            {
              "internalType": "uint256",
              "name": "price",
              "type": "uint256"
            }
          ],
          "internalType": "struct NFTSTORE.nftListing[]",
          "name": "",
          "type": "tuple[]"
        }
      ],
      "stateMutability": "view",
      "type": "function"
    },
    {
      "inputs": [
        {
          "internalType": "uint256",
          "name": "_tokenId",
          "type": "uint256"
        }
      ],
      "name": "getNFTListing",
      "outputs": [
        {
          "components": [
            {
              "internalType": "uint256",
              "name": "tokenId",
              "type": "uint256"
            },
            {
              "internalType": "address payable",
              "name": "owner",
              "type": "address"
            },
            {
              "internalType": "address payable",
              "name": "seller",
              "type": "address"
            },
            {
              "internalType": "address payable",
              "name": "creator",
              "type": "address"
            },
            {
              "internalType": "uint256",
              "name": "price",
              "type": "uint256"
            }
          ],
          "internalType": "struct NFTSTORE.nftListing",
          "name": "",
          "type": "tuple"
        }
      ],
      "stateMutability": "view",
      "type": "function"
    },
    {
      "inputs": [],
      "name": "getRoyaltyPercent",
      "outputs": [
        {
          "internalType": "uint256",
          "name": "",
          "type": "uint256"
        }
      ],
      "stateMutability": "view",
      "type": "function"
    },
    {
      "inputs": [
        {
          "internalType": "address",
          "name": "owner",
          "type": "address"
        },
        {
          "internalType": "address",
          "name": "operator",
          "type": "address"
        }
      ],
      "name": "isApprovedForAll",
      "outputs": [
        {
          "internalType": "bool",
          "name": "",
          "type": "bool"
        }
      ],
      "stateMutability": "view",
      "type": "function"
    },
    {
      "inputs": [],
      "name": "listingFeePercent",
      "outputs": [
        {
          "internalType": "uint256",
          "name": "",
          "type": "uint256"
        }
      ],
      "stateMutability": "view",
      "type": "function"
    },
    {
      "inputs": [],
      "name": "marketplaceOwner",
      "outputs": [
        {
          "internalType": "address payable",
          "name": "",
          "type": "address"
        }
      ],
      "stateMutability": "view",
      "type": "function"
    },
    {
      "inputs": [],
      "name": "name",
      "outputs": [
        {
          "internalType": "string",
          "name": "",
          "type": "string"
        }
      ],
      "stateMutability": "view",
      "type": "function"
    },
    {
      "inputs": [
        {
          "internalType": "uint256",
          "name": "tokenId",
          "type": "uint256"
        }
      ],
      "name": "ownerOf",
      "outputs": [
        {
          "internalType": "address",
          "name": "",
          "type": "address"
        }
      ],
      "stateMutability": "view",
      "type": "function"
    },
    {
      "inputs": [],
      "name": "royaltyPercent",
      "outputs": [
        {
          "internalType": "uint256",
          "name": "",
          "type": "uint256"
        }
      ],
      "stateMutability": "view",
      "type": "function"
    },
    {
      "inputs": [
        {
          "internalType": "address",
          "name": "from",
          "type": "address"
        },
        {
          "internalType": "address",
          "name": "to",
          "type": "address"
        },
        {
          "internalType": "uint256",
          "name": "tokenId",
          "type": "uint256"
        }
      ],
      "name": "safeTransferFrom",
      "outputs": [],
      "stateMutability": "nonpayable",
      "type": "function"
    },
    {
      "inputs": [
        {
          "internalType": "address",
          "name": "from",
          "type": "address"
        },
        {
          "internalType": "address",
          "name": "to",
          "type": "address"
        },
        {
          "internalType": "uint256",
          "name": "tokenId",
          "type": "uint256"
        },
        {
          "internalType": "bytes",
          "name": "data",
          "type": "bytes"
        }
      ],
      "name": "safeTransferFrom",
      "outputs": [],
      "stateMutability": "nonpayable",
      "type": "function"
    },
    {
      "inputs": [
        {
          "internalType": "uint256",
          "name": "tokenId",
          "type": "uint256"
        }
      ],
      "name": "sellNFT",
      "outputs": [],
      "stateMutability": "payable",
      "type": "function"
    },
    {
      "inputs": [
        {
          "internalType": "address",
          "name": "operator",
          "type": "address"
        },
        {
          "internalType": "bool",
          "name": "approved",
          "type": "bool"
        }
      ],
      "name": "setApprovalForAll",
      "outputs": [],
      "stateMutability": "nonpayable",
      "type": "function"
    },
    {
      "inputs": [
        {
          "internalType": "bytes4",
          "name": "interfaceId",
          "type": "bytes4"
        }
      ],
      "name": "supportsInterface",
      "outputs": [
        {
          "internalType": "bool",
          "name": "",
          "type": "bool"
        }
      ],
      "stateMutability": "view",
      "type": "function"
    },
    {
      "inputs": [],
      "name": "symbol",
      "outputs": [
        {
          "internalType": "string",
          "name": "",
          "type": "string"
        }
      ],
      "stateMutability": "view",
      "type": "function"
    },
    {
      "inputs": [
        {
          "internalType": "uint256",
          "name": "tokenId",
          "type": "uint256"
        }
      ],
      "name": "tokenURI",
      "outputs": [
        {
          "internalType": "string",
          "name": "",
          "type": "string"
        }
      ],
      "stateMutability": "view",
      "type": "function"
    },
    {
      "inputs": [
        {
          "internalType": "address",
          "name": "from",
          "type": "address"
        },
        {
          "internalType": "address",
          "name": "to",
          "type": "address"
        },
        {
          "internalType": "uint256",
          "name": "tokenId",
          "type": "uint256"
        }
      ],
      "name": "transferFrom",
      "outputs": [],
      "stateMutability": "nonpayable",
      "type": "function"
    },
    {
      "inputs": [
        {
          "internalType": "uint256",
          "name": "_listingFeePercent",
          "type": "uint256"
        }
      ],
      "name": "updateListingFeePercent",
      "outputs": [],
      "stateMutability": "nonpayable",
      "type": "function"
    },
    {
      "inputs": [
        {
          "internalType": "uint256",
          "name": "_royaltyPercent",
          "type": "uint256"
        }
      ],
      "name": "updateRoyaltyPercent",
      "outputs": [],
      "stateMutability": "nonpayable",
      "type": "function"
    }
  ],
  "bytecode": "0x6080604052601460085560056009553480156200001b57600080fd5b506040518060400160405280600881526020017f4e465453544f52450000000000000000000000000000000000000000000000008152506040518060400160405280600381526020017f4e4653000000000000000000000000000000000000000000000000000000000081525081600090816200009991906200036f565b508060019081620000ab91906200036f565b50505033600760006101000a81548173ffffffffffffffffffffffffffffffffffffffff021916908373ffffffffffffffffffffffffffffffffffffffff16021790555062000456565b600081519050919050565b7f4e487b7100000000000000000000000000000000000000000000000000000000600052604160045260246000fd5b7f4e487b7100000000000000000000000000000000000000000000000000000000600052602260045260246000fd5b600060028204905060018216806200017757607f821691505b6020821081036200018d576200018c6200012f565b5b50919050565b60008190508160005260206000209050919050565b60006020601f8301049050919050565b600082821b905092915050565b600060088302620001f77fffffffffffffffffffffffffffffffffffffffffffffffffffffffffffffffff82620001b8565b620002038683620001b8565b95508019841693508086168417925050509392505050565b6000819050919050565b6000819050919050565b6000620002506200024a62000244846200021b565b62000225565b6200021b565b9050919050565b6000819050919050565b6200026c836200022f565b620002846200027b8262000257565b848454620001c5565b825550505050565b600090565b6200029b6200028c565b620002a881848462000261565b505050565b5b81811015620002d057620002c460008262000291565b600181019050620002ae565b5050565b601f8211156200031f57620002e98162000193565b620002f484620001a8565b8101602085101562000304578190505b6200031c6200031385620001a8565b830182620002ad565b50505b505050565b600082821c905092915050565b6000620003446000198460080262000324565b1980831691505092915050565b60006200035f838362000331565b9150826002028217905092915050565b6200037a82620000f5565b67ffffffffffffffff81111562000396576200039562000100565b5b620003a282546200015e565b620003af828285620002d4565b600060209050601f831160018114620003e75760008415620003d2578287015190505b620003de858262000351565b8655506200044e565b601f198416620003f78662000193565b60005b828110156200042157848901518255600182019150602085019450602081019050620003fa565b868310156200044157848901516200043d601f89168262000331565b8355505b6001600288020188555050505b505050505050565b613a9d80620004666000396000f3fe6080604052600436106101815760003560e01c806362adec70116100d15780639f67756d1161008a578063b88d4fde11610064578063b88d4fde14610598578063c87b56dd146105c1578063e985e9c5146105fe578063ee9cdfb31461063b57610181565b80639f67756d1461051b578063a22cb46514610546578063ac6a91851461056f57610181565b806362adec70146103e35780636352211e1461040e578063650025a01461044b57806370a082311461047657806372b3b620146104b357806395d89b41146104f057610181565b806323b872dd1161013e5780635618923611610118578063561892361461033957806360ed87fd146103645780636151ff2e1461038d578063629cb2e4146103b857610181565b806323b872dd146102bc57806342842e0e146102e55780634b58ffaa1461030e57610181565b806301ffc9a71461018657806306fc1245146101c357806306fdde03146101ee578063081812fc14610219578063095ea7b3146102565780630ea59c4b1461027f575b600080fd5b34801561019257600080fd5b506101ad60048036038101906101a89190612a91565b610657565b6040516101ba9190612ad9565b60405180910390f35b3480156101cf57600080fd5b506101d86106b8565b6040516101e59190612b0d565b60405180910390f35b3480156101fa57600080fd5b506102036106c2565b6040516102109190612bb8565b60405180910390f35b34801561022557600080fd5b50610240600480360381019061023b9190612c06565b610754565b60405161024d9190612c74565b60405180910390f35b34801561026257600080fd5b5061027d60048036038101906102789190612cbb565b610770565b005b34801561028b57600080fd5b506102a660048036038101906102a19190612c06565b610786565b6040516102b39190612d93565b60405180910390f35b3480156102c857600080fd5b506102e360048036038101906102de9190612dae565b6108c9565b005b3480156102f157600080fd5b5061030c60048036038101906103079190612dae565b6109cb565b005b34801561031a57600080fd5b506103236109eb565b6040516103309190612f18565b60405180910390f35b34801561034557600080fd5b5061034e610be8565b60405161035b9190612b0d565b60405180910390f35b34801561037057600080fd5b5061038b60048036038101906103869190612c06565b610bf2565b005b34801561039957600080fd5b506103a2610c8c565b6040516103af9190612b0d565b60405180910390f35b3480156103c457600080fd5b506103cd610c92565b6040516103da9190612f18565b60405180910390f35b3480156103ef57600080fd5b506103f8611096565b6040516104059190612b0d565b60405180910390f35b34801561041a57600080fd5b5061043560048036038101906104309190612c06565b6110a0565b6040516104429190612c74565b60405180910390f35b34801561045757600080fd5b506104606110b2565b60405161046d9190612f49565b60405180910390f35b34801561048257600080fd5b5061049d60048036038101906104989190612f64565b6110d8565b6040516104aa9190612b0d565b60405180910390f35b3480156104bf57600080fd5b506104da60048036038101906104d591906130c6565b611192565b6040516104e79190612b0d565b60405180910390f35b3480156104fc57600080fd5b5061050561121d565b6040516105129190612bb8565b60405180910390f35b34801561052757600080fd5b506105306112af565b60405161053d9190612b0d565b60405180910390f35b34801561055257600080fd5b5061056d6004803603810190610568919061314e565b6112b5565b005b34801561057b57600080fd5b5061059660048036038101906105919190612c06565b6112cb565b005b3480156105a457600080fd5b506105bf60048036038101906105ba919061322f565b611365565b005b3480156105cd57600080fd5b506105e860048036038101906105e39190612c06565b611382565b6040516105f59190612bb8565b60405180910390f35b34801561060a57600080fd5b50610625600480360381019061062091906132b2565b611495565b6040516106329190612ad9565b60405180910390f35b61065560048036038101906106509190612c06565b611529565b005b6000634906490660e01b7bffffffffffffffffffffffffffffffffffffffffffffffffffffffff1916827bffffffffffffffffffffffffffffffffffffffffffffffffffffffff191614806106b157506106b0826117b9565b5b9050919050565b6000600854905090565b6060600080546106d190613321565b80601f01602080910402602001604051908101604052809291908181526020018280546106fd90613321565b801561074a5780601f1061071f5761010080835404028352916020019161074a565b820191906000526020600020905b81548152906001019060200180831161072d57829003601f168201915b5050505050905090565b600061075f8261189b565b5061076982611923565b9050919050565b610782828261077d611960565b611968565b5050565b61078e6129b4565b600c60008381526020019081526020016000206040518060a0016040529081600082015481526020016001820160009054906101000a900473ffffffffffffffffffffffffffffffffffffffff1673ffffffffffffffffffffffffffffffffffffffff1673ffffffffffffffffffffffffffffffffffffffff1681526020016002820160009054906101000a900473ffffffffffffffffffffffffffffffffffffffff1673ffffffffffffffffffffffffffffffffffffffff1673ffffffffffffffffffffffffffffffffffffffff1681526020016003820160009054906101000a900473ffffffffffffffffffffffffffffffffffffffff1673ffffffffffffffffffffffffffffffffffffffff1673ffffffffffffffffffffffffffffffffffffffff1681526020016004820154815250509050919050565b600073ffffffffffffffffffffffffffffffffffffffff168273ffffffffffffffffffffffffffffffffffffffff160361093b5760006040517f64a0ae920000000000000000000000000000000000000000000000000000000081526004016109329190612c74565b60405180910390fd5b600061094f838361094a611960565b61197a565b90508373ffffffffffffffffffffffffffffffffffffffff168173ffffffffffffffffffffffffffffffffffffffff16146109c5578382826040517f64283d7b0000000000000000000000000000000000000000000000000000000081526004016109bc93929190613352565b60405180910390fd5b50505050565b6109e683838360405180602001604052806000815250611365565b505050565b60606000600a54905060008167ffffffffffffffff811115610a1057610a0f612f9b565b5b604051908082528060200260200182016040528015610a4957816020015b610a366129b4565b815260200190600190039081610a2e5790505b5090506000805b83811015610bde576000600182610a6791906133b8565b90506000600c60008381526020019081526020016000209050806040518060a0016040529081600082015481526020016001820160009054906101000a900473ffffffffffffffffffffffffffffffffffffffff1673ffffffffffffffffffffffffffffffffffffffff1673ffffffffffffffffffffffffffffffffffffffff1681526020016002820160009054906101000a900473ffffffffffffffffffffffffffffffffffffffff1673ffffffffffffffffffffffffffffffffffffffff1673ffffffffffffffffffffffffffffffffffffffff1681526020016003820160009054906101000a900473ffffffffffffffffffffffffffffffffffffffff1673ffffffffffffffffffffffffffffffffffffffff1673ffffffffffffffffffffffffffffffffffffffff168152602001600482015481525050858581518110610bb557610bb46133ec565b5b6020026020010181905250600184610bcd91906133b8565b935050508080600101915050610a50565b5081935050505090565b6000600a54905090565b600760009054906101000a900473ffffffffffffffffffffffffffffffffffffffff1673ffffffffffffffffffffffffffffffffffffffff163373ffffffffffffffffffffffffffffffffffffffff1614610c82576040517f08c379a0000000000000000000000000000000000000000000000000000000008152600401610c7990613467565b60405180910390fd5b8060098190555050565b60085481565b60606000600a54905060008060005b83811015610db3573373ffffffffffffffffffffffffffffffffffffffff16600c6000600184610cd191906133b8565b815260200190815260200160002060010160009054906101000a900473ffffffffffffffffffffffffffffffffffffffff1673ffffffffffffffffffffffffffffffffffffffff161480610d9257503373ffffffffffffffffffffffffffffffffffffffff16600c6000600184610d4891906133b8565b815260200190815260200160002060020160009054906101000a900473ffffffffffffffffffffffffffffffffffffffff1673ffffffffffffffffffffffffffffffffffffffff16145b15610da6578280610da290613487565b9350505b8080600101915050610ca1565b5060008267ffffffffffffffff811115610dd057610dcf612f9b565b5b604051908082528060200260200182016040528015610e0957816020015b610df66129b4565b815260200190600190039081610dee5790505b50905060005b8481101561108b573373ffffffffffffffffffffffffffffffffffffffff16600c6000600184610e3f91906133b8565b815260200190815260200160002060010160009054906101000a900473ffffffffffffffffffffffffffffffffffffffff1673ffffffffffffffffffffffffffffffffffffffff161480610f0057503373ffffffffffffffffffffffffffffffffffffffff16600c6000600184610eb691906133b8565b815260200190815260200160002060020160009054906101000a900473ffffffffffffffffffffffffffffffffffffffff1673ffffffffffffffffffffffffffffffffffffffff16145b1561107e576000600182610f1491906133b8565b90506000600c60008381526020019081526020016000209050806040518060a0016040529081600082015481526020016001820160009054906101000a900473ffffffffffffffffffffffffffffffffffffffff1673ffffffffffffffffffffffffffffffffffffffff1673ffffffffffffffffffffffffffffffffffffffff1681526020016002820160009054906101000a900473ffffffffffffffffffffffffffffffffffffffff1673ffffffffffffffffffffffffffffffffffffffff1673ffffffffffffffffffffffffffffffffffffffff1681526020016003820160009054906101000a900473ffffffffffffffffffffffffffffffffffffffff1673ffffffffffffffffffffffffffffffffffffffff1673ffffffffffffffffffffffffffffffffffffffff168152602001600482015481525050848681518110611062576110616133ec565b5b6020026020010181905250848061107890613487565b95505050505b8080600101915050610e0f565b508094505050505090565b6000600954905090565b60006110ab8261189b565b9050919050565b600760009054906101000a900473ffffffffffffffffffffffffffffffffffffffff1681565b60008073ffffffffffffffffffffffffffffffffffffffff168273ffffffffffffffffffffffffffffffffffffffff160361114b5760006040517f89c62b640000000000000000000000000000000000000000000000000000000081526004016111429190612c74565b60405180910390fd5b600360008373ffffffffffffffffffffffffffffffffffffffff1673ffffffffffffffffffffffffffffffffffffffff168152602001908152602001600020549050919050565b60008082116111d6576040517f08c379a00000000000000000000000000000000000000000000000000000000081526004016111cd9061351b565b60405180910390fd5b600a60008154809291906111e990613487565b91905055506000600a5490506111ff3382611b94565b6112098185611bb2565b6112138184611c0e565b8091505092915050565b60606001805461122c90613321565b80601f016020809104026020016040519081016040528092919081815260200182805461125890613321565b80156112a55780601f1061127a576101008083540402835291602001916112a5565b820191906000526020600020905b81548152906001019060200180831161128857829003601f168201915b5050505050905090565b60095481565b6112c76112c0611960565b8383611d7a565b5050565b600760009054906101000a900473ffffffffffffffffffffffffffffffffffffffff1673ffffffffffffffffffffffffffffffffffffffff163373ffffffffffffffffffffffffffffffffffffffff161461135b576040517f08c379a000000000000000000000000000000000000000000000000000000000815260040161135290613467565b60405180910390fd5b8060088190555050565b6113708484846108c9565b61137c84848484611ee9565b50505050565b606061138d8261189b565b5060006006600084815260200190815260200160002080546113ae90613321565b80601f01602080910402602001604051908101604052809291908181526020018280546113da90613321565b80156114275780601f106113fc57610100808354040283529160200191611427565b820191906000526020600020905b81548152906001019060200180831161140a57829003601f168201915b5050505050905060006114386120a0565b9050600081510361144d578192505050611490565b60008251111561148257808260405160200161146a929190613577565b60405160208183030381529060405292505050611490565b61148b846120b7565b925050505b919050565b6000600560008473ffffffffffffffffffffffffffffffffffffffff1673ffffffffffffffffffffffffffffffffffffffff16815260200190815260200160002060008373ffffffffffffffffffffffffffffffffffffffff1673ffffffffffffffffffffffffffffffffffffffff16815260200190815260200160002060009054906101000a900460ff16905092915050565b6000600c6000838152602001908152602001600020905060008160040154905060008260020160009054906101000a900473ffffffffffffffffffffffffffffffffffffffff16905060008360030160009054906101000a900473ffffffffffffffffffffffffffffffffffffffff1690508234146115dd576040517f08c379a00000000000000000000000000000000000000000000000000000000081526004016115d4906135e7565b60405180910390fd5b60006064600954856115ef9190613607565b6115f99190613678565b9050338560020160006101000a81548173ffffffffffffffffffffffffffffffffffffffff021916908373ffffffffffffffffffffffffffffffffffffffff16021790555061166d8560010160009054906101000a900473ffffffffffffffffffffffffffffffffffffffff163388612120565b600060646008548661167f9190613607565b6116899190613678565b9050600760009054906101000a900473ffffffffffffffffffffffffffffffffffffffff1673ffffffffffffffffffffffffffffffffffffffff166108fc829081150290604051600060405180830381858888f193505050501580156116f3573d6000803e3d6000fd5b508273ffffffffffffffffffffffffffffffffffffffff166108fc839081150290604051600060405180830381858888f1935050505015801561173a573d6000803e3d6000fd5b508373ffffffffffffffffffffffffffffffffffffffff166108fc83833461176291906136a9565b61176c91906136a9565b9081150290604051600060405180830381858888f19350505050158015611797573d6000803e3d6000fd5b50600b60008154809291906117ab90613487565b919050555050505050505050565b60007f80ac58cd000000000000000000000000000000000000000000000000000000007bffffffffffffffffffffffffffffffffffffffffffffffffffffffff1916827bffffffffffffffffffffffffffffffffffffffffffffffffffffffff1916148061188457507f5b5e139f000000000000000000000000000000000000000000000000000000007bffffffffffffffffffffffffffffffffffffffffffffffffffffffff1916827bffffffffffffffffffffffffffffffffffffffffffffffffffffffff1916145b8061189457506118938261228d565b5b9050919050565b6000806118a7836122f7565b9050600073ffffffffffffffffffffffffffffffffffffffff168173ffffffffffffffffffffffffffffffffffffffff160361191a57826040517f7e2732890000000000000000000000000000000000000000000000000000000081526004016119119190612b0d565b60405180910390fd5b80915050919050565b60006004600083815260200190815260200160002060009054906101000a900473ffffffffffffffffffffffffffffffffffffffff169050919050565b600033905090565b6119758383836001612334565b505050565b600080611986846122f7565b9050600073ffffffffffffffffffffffffffffffffffffffff168373ffffffffffffffffffffffffffffffffffffffff16146119c8576119c78184866124f9565b5b600073ffffffffffffffffffffffffffffffffffffffff168173ffffffffffffffffffffffffffffffffffffffff1614611a5957611a0a600085600080612334565b6001600360008373ffffffffffffffffffffffffffffffffffffffff1673ffffffffffffffffffffffffffffffffffffffff168152602001908152602001600020600082825403925050819055505b600073ffffffffffffffffffffffffffffffffffffffff168573ffffffffffffffffffffffffffffffffffffffff1614611adc576001600360008773ffffffffffffffffffffffffffffffffffffffff1673ffffffffffffffffffffffffffffffffffffffff168152602001908152602001600020600082825401925050819055505b846002600086815260200190815260200160002060006101000a81548173ffffffffffffffffffffffffffffffffffffffff021916908373ffffffffffffffffffffffffffffffffffffffff160217905550838573ffffffffffffffffffffffffffffffffffffffff168273ffffffffffffffffffffffffffffffffffffffff167fddf252ad1be2c89b69c2b068fc378daa952ba7f163c4a11628f55a4df523b3ef60405160405180910390a4809150509392505050565b611bae8282604051806020016040528060008152506125bd565b5050565b80600660008481526020019081526020016000209081611bd29190613889565b507ff8e1a15aba9398e019f0b49df1a4fde98ee17ae345cb5f6b5e2c27f5033e8ce782604051611c029190612b0d565b60405180910390a15050565b6040518060a001604052808381526020013373ffffffffffffffffffffffffffffffffffffffff1681526020013373ffffffffffffffffffffffffffffffffffffffff1681526020013373ffffffffffffffffffffffffffffffffffffffff16815260200182815250600c60008481526020019081526020016000206000820151816000015560208201518160010160006101000a81548173ffffffffffffffffffffffffffffffffffffffff021916908373ffffffffffffffffffffffffffffffffffffffff16021790555060408201518160020160006101000a81548173ffffffffffffffffffffffffffffffffffffffff021916908373ffffffffffffffffffffffffffffffffffffffff16021790555060608201518160030160006101000a81548173ffffffffffffffffffffffffffffffffffffffff021916908373ffffffffffffffffffffffffffffffffffffffff160217905550608082015181600401559050505050565b600073ffffffffffffffffffffffffffffffffffffffff168273ffffffffffffffffffffffffffffffffffffffff1603611deb57816040517f5b08ba18000000000000000000000000000000000000000000000000000000008152600401611de29190612c74565b60405180910390fd5b80600560008573ffffffffffffffffffffffffffffffffffffffff1673ffffffffffffffffffffffffffffffffffffffff16815260200190815260200160002060008473ffffffffffffffffffffffffffffffffffffffff1673ffffffffffffffffffffffffffffffffffffffff16815260200190815260200160002060006101000a81548160ff0219169083151502179055508173ffffffffffffffffffffffffffffffffffffffff168373ffffffffffffffffffffffffffffffffffffffff167f17307eab39ab6107e8899845ad3d59bd9653f200f220920489ca2b5937696c3183604051611edc9190612ad9565b60405180910390a3505050565b60008373ffffffffffffffffffffffffffffffffffffffff163b111561209a578273ffffffffffffffffffffffffffffffffffffffff1663150b7a02611f2d611960565b8685856040518563ffffffff1660e01b8152600401611f4f94939291906139b0565b6020604051808303816000875af1925050508015611f8b57506040513d601f19601f82011682018060405250810190611f889190613a11565b60015b61200f573d8060008114611fbb576040519150601f19603f3d011682016040523d82523d6000602084013e611fc0565b606091505b50600081510361200757836040517f64a0ae92000000000000000000000000000000000000000000000000000000008152600401611ffe9190612c74565b60405180910390fd5b805181602001fd5b63150b7a0260e01b7bffffffffffffffffffffffffffffffffffffffffffffffffffffffff1916817bffffffffffffffffffffffffffffffffffffffffffffffffffffffff19161461209857836040517f64a0ae9200000000000000000000000000000000000000000000000000000000815260040161208f9190612c74565b60405180910390fd5b505b50505050565b606060405180602001604052806000815250905090565b60606120c28261189b565b5060006120cd6120a0565b905060008151116120ed5760405180602001604052806000815250612118565b806120f7846125d9565b604051602001612108929190613577565b6040516020818303038152906040525b915050919050565b600073ffffffffffffffffffffffffffffffffffffffff168273ffffffffffffffffffffffffffffffffffffffff16036121925760006040517f64a0ae920000000000000000000000000000000000000000000000000000000081526004016121899190612c74565b60405180910390fd5b60006121a08383600061197a565b9050600073ffffffffffffffffffffffffffffffffffffffff168173ffffffffffffffffffffffffffffffffffffffff160361221357816040517f7e27328900000000000000000000000000000000000000000000000000000000815260040161220a9190612b0d565b60405180910390fd5b8373ffffffffffffffffffffffffffffffffffffffff168173ffffffffffffffffffffffffffffffffffffffff1614612287578382826040517f64283d7b00000000000000000000000000000000000000000000000000000000815260040161227e93929190613352565b60405180910390fd5b50505050565b60007f01ffc9a7000000000000000000000000000000000000000000000000000000007bffffffffffffffffffffffffffffffffffffffffffffffffffffffff1916827bffffffffffffffffffffffffffffffffffffffffffffffffffffffff1916149050919050565b60006002600083815260200190815260200160002060009054906101000a900473ffffffffffffffffffffffffffffffffffffffff169050919050565b808061236d5750600073ffffffffffffffffffffffffffffffffffffffff168273ffffffffffffffffffffffffffffffffffffffff1614155b156124a157600061237d8461189b565b9050600073ffffffffffffffffffffffffffffffffffffffff168373ffffffffffffffffffffffffffffffffffffffff16141580156123e857508273ffffffffffffffffffffffffffffffffffffffff168173ffffffffffffffffffffffffffffffffffffffff1614155b80156123fb57506123f98184611495565b155b1561243d57826040517fa9fbf51f0000000000000000000000000000000000000000000000000000000081526004016124349190612c74565b60405180910390fd5b811561249f57838573ffffffffffffffffffffffffffffffffffffffff168273ffffffffffffffffffffffffffffffffffffffff167f8c5be1e5ebec7d5bd14f71427d1e84f3dd0314c0f7b2291e5b200ac8c7c3b92560405160405180910390a45b505b836004600085815260200190815260200160002060006101000a81548173ffffffffffffffffffffffffffffffffffffffff021916908373ffffffffffffffffffffffffffffffffffffffff16021790555050505050565b6125048383836126a7565b6125b857600073ffffffffffffffffffffffffffffffffffffffff168373ffffffffffffffffffffffffffffffffffffffff160361257957806040517f7e2732890000000000000000000000000000000000000000000000000000000081526004016125709190612b0d565b60405180910390fd5b81816040517f177e802f0000000000000000000000000000000000000000000000000000000081526004016125af929190613a3e565b60405180910390fd5b505050565b6125c78383612768565b6125d46000848484611ee9565b505050565b6060600060016125e884612861565b01905060008167ffffffffffffffff81111561260757612606612f9b565b5b6040519080825280601f01601f1916602001820160405280156126395781602001600182028036833780820191505090505b509050600082602001820190505b60011561269c578080600190039150507f3031323334353637383961626364656600000000000000000000000000000000600a86061a8153600a85816126905761268f613649565b5b04945060008503612647575b819350505050919050565b60008073ffffffffffffffffffffffffffffffffffffffff168373ffffffffffffffffffffffffffffffffffffffff161415801561275f57508273ffffffffffffffffffffffffffffffffffffffff168473ffffffffffffffffffffffffffffffffffffffff161480612720575061271f8484611495565b5b8061275e57508273ffffffffffffffffffffffffffffffffffffffff1661274683611923565b73ffffffffffffffffffffffffffffffffffffffff16145b5b90509392505050565b600073ffffffffffffffffffffffffffffffffffffffff168273ffffffffffffffffffffffffffffffffffffffff16036127da5760006040517f64a0ae920000000000000000000000000000000000000000000000000000000081526004016127d19190612c74565b60405180910390fd5b60006127e88383600061197a565b9050600073ffffffffffffffffffffffffffffffffffffffff168173ffffffffffffffffffffffffffffffffffffffff161461285c5760006040517f73c6ac6e0000000000000000000000000000000000000000000000000000000081526004016128539190612c74565b60405180910390fd5b505050565b600080600090507a184f03e93ff9f4daa797ed6e38ed64bf6a1f01000000000000000083106128bf577a184f03e93ff9f4daa797ed6e38ed64bf6a1f01000000000000000083816128b5576128b4613649565b5b0492506040810190505b6d04ee2d6d415b85acef810000000083106128fc576d04ee2d6d415b85acef810000000083816128f2576128f1613649565b5b0492506020810190505b662386f26fc10000831061292b57662386f26fc10000838161292157612920613649565b5b0492506010810190505b6305f5e1008310612954576305f5e100838161294a57612949613649565b5b0492506008810190505b612710831061297957612710838161296f5761296e613649565b5b0492506004810190505b6064831061299c576064838161299257612991613649565b5b0492506002810190505b600a83106129ab576001810190505b80915050919050565b6040518060a0016040528060008152602001600073ffffffffffffffffffffffffffffffffffffffff168152602001600073ffffffffffffffffffffffffffffffffffffffff168152602001600073ffffffffffffffffffffffffffffffffffffffff168152602001600081525090565b6000604051905090565b600080fd5b600080fd5b60007fffffffff0000000000000000000000000000000000000000000000000000000082169050919050565b612a6e81612a39565b8114612a7957600080fd5b50565b600081359050612a8b81612a65565b92915050565b600060208284031215612aa757612aa6612a2f565b5b6000612ab584828501612a7c565b91505092915050565b60008115159050919050565b612ad381612abe565b82525050565b6000602082019050612aee6000830184612aca565b92915050565b6000819050919050565b612b0781612af4565b82525050565b6000602082019050612b226000830184612afe565b92915050565b600081519050919050565b600082825260208201905092915050565b60005b83811015612b62578082015181840152602081019050612b47565b60008484015250505050565b6000601f19601f8301169050919050565b6000612b8a82612b28565b612b948185612b33565b9350612ba4818560208601612b44565b612bad81612b6e565b840191505092915050565b60006020820190508181036000830152612bd28184612b7f565b905092915050565b612be381612af4565b8114612bee57600080fd5b50565b600081359050612c0081612bda565b92915050565b600060208284031215612c1c57612c1b612a2f565b5b6000612c2a84828501612bf1565b91505092915050565b600073ffffffffffffffffffffffffffffffffffffffff82169050919050565b6000612c5e82612c33565b9050919050565b612c6e81612c53565b82525050565b6000602082019050612c896000830184612c65565b92915050565b612c9881612c53565b8114612ca357600080fd5b50565b600081359050612cb581612c8f565b92915050565b60008060408385031215612cd257612cd1612a2f565b5b6000612ce085828601612ca6565b9250506020612cf185828601612bf1565b9150509250929050565b612d0481612af4565b82525050565b6000612d1582612c33565b9050919050565b612d2581612d0a565b82525050565b60a082016000820151612d416000850182612cfb565b506020820151612d546020850182612d1c565b506040820151612d676040850182612d1c565b506060820151612d7a6060850182612d1c565b506080820151612d8d6080850182612cfb565b50505050565b600060a082019050612da86000830184612d2b565b92915050565b600080600060608486031215612dc757612dc6612a2f565b5b6000612dd586828701612ca6565b9350506020612de686828701612ca6565b9250506040612df786828701612bf1565b9150509250925092565b600081519050919050565b600082825260208201905092915050565b6000819050602082019050919050565b60a082016000820151612e436000850182612cfb565b506020820151612e566020850182612d1c565b506040820151612e696040850182612d1c565b506060820151612e7c6060850182612d1c565b506080820151612e8f6080850182612cfb565b50505050565b6000612ea18383612e2d565b60a08301905092915050565b6000602082019050919050565b6000612ec582612e01565b612ecf8185612e0c565b9350612eda83612e1d565b8060005b83811015612f0b578151612ef28882612e95565b9750612efd83612ead565b925050600181019050612ede565b5085935050505092915050565b60006020820190508181036000830152612f328184612eba565b905092915050565b612f4381612d0a565b82525050565b6000602082019050612f5e6000830184612f3a565b92915050565b600060208284031215612f7a57612f79612a2f565b5b6000612f8884828501612ca6565b91505092915050565b600080fd5b600080fd5b7f4e487b7100000000000000000000000000000000000000000000000000000000600052604160045260246000fd5b612fd382612b6e565b810181811067ffffffffffffffff82111715612ff257612ff1612f9b565b5b80604052505050565b6000613005612a25565b90506130118282612fca565b919050565b600067ffffffffffffffff82111561303157613030612f9b565b5b61303a82612b6e565b9050602081019050919050565b82818337600083830152505050565b600061306961306484613016565b612ffb565b90508281526020810184848401111561308557613084612f96565b5b613090848285613047565b509392505050565b600082601f8301126130ad576130ac612f91565b5b81356130bd848260208601613056565b91505092915050565b600080604083850312156130dd576130dc612a2f565b5b600083013567ffffffffffffffff8111156130fb576130fa612a34565b5b61310785828601613098565b925050602061311885828601612bf1565b9150509250929050565b61312b81612abe565b811461313657600080fd5b50565b60008135905061314881613122565b92915050565b6000806040838503121561316557613164612a2f565b5b600061317385828601612ca6565b925050602061318485828601613139565b9150509250929050565b600067ffffffffffffffff8211156131a9576131a8612f9b565b5b6131b282612b6e565b9050602081019050919050565b60006131d26131cd8461318e565b612ffb565b9050828152602081018484840111156131ee576131ed612f96565b5b6131f9848285613047565b509392505050565b600082601f83011261321657613215612f91565b5b81356132268482602086016131bf565b91505092915050565b6000806000806080858703121561324957613248612a2f565b5b600061325787828801612ca6565b945050602061326887828801612ca6565b935050604061327987828801612bf1565b925050606085013567ffffffffffffffff81111561329a57613299612a34565b5b6132a687828801613201565b91505092959194509250565b600080604083850312156132c9576132c8612a2f565b5b60006132d785828601612ca6565b92505060206132e885828601612ca6565b9150509250929050565b7f4e487b7100000000000000000000000000000000000000000000000000000000600052602260045260246000fd5b6000600282049050600182168061333957607f821691505b60208210810361334c5761334b6132f2565b5b50919050565b60006060820190506133676000830186612c65565b6133746020830185612afe565b6133816040830184612c65565b949350505050565b7f4e487b7100000000000000000000000000000000000000000000000000000000600052601160045260246000fd5b60006133c382612af4565b91506133ce83612af4565b92508282019050808211156133e6576133e5613389565b5b92915050565b7f4e487b7100000000000000000000000000000000000000000000000000000000600052603260045260246000fd5b7f4f6e6c79204f776e65722043616e204163636573732054686973000000000000600082015250565b6000613451601a83612b33565b915061345c8261341b565b602082019050919050565b6000602082019050818103600083015261348081613444565b9050919050565b600061349282612af4565b91507fffffffffffffffffffffffffffffffffffffffffffffffffffffffffffffffff82036134c4576134c3613389565b5b600182019050919050565b7f5072696365206d7573742062652067726561746572207468616e207a65726f00600082015250565b6000613505601f83612b33565b9150613510826134cf565b602082019050919050565b60006020820190508181036000830152613534816134f8565b9050919050565b600081905092915050565b600061355182612b28565b61355b818561353b565b935061356b818560208601612b44565b80840191505092915050565b60006135838285613546565b915061358f8284613546565b91508190509392505050565b7f506c6561736520706179207468652061736b696e672070726963650000000000600082015250565b60006135d1601b83612b33565b91506135dc8261359b565b602082019050919050565b60006020820190508181036000830152613600816135c4565b9050919050565b600061361282612af4565b915061361d83612af4565b925082820261362b81612af4565b9150828204841483151761364257613641613389565b5b5092915050565b7f4e487b7100000000000000000000000000000000000000000000000000000000600052601260045260246000fd5b600061368382612af4565b915061368e83612af4565b92508261369e5761369d613649565b5b828204905092915050565b60006136b482612af4565b91506136bf83612af4565b92508282039050818111156136d7576136d6613389565b5b92915050565b60008190508160005260206000209050919050565b60006020601f8301049050919050565b600082821b905092915050565b60006008830261373f7fffffffffffffffffffffffffffffffffffffffffffffffffffffffffffffffff82613702565b6137498683613702565b95508019841693508086168417925050509392505050565b6000819050919050565b600061378661378161377c84612af4565b613761565b612af4565b9050919050565b6000819050919050565b6137a08361376b565b6137b46137ac8261378d565b84845461370f565b825550505050565b600090565b6137c96137bc565b6137d4818484613797565b505050565b5b818110156137f8576137ed6000826137c1565b6001810190506137da565b5050565b601f82111561383d5761380e816136dd565b613817846136f2565b81016020851015613826578190505b61383a613832856136f2565b8301826137d9565b50505b505050565b600082821c905092915050565b600061386060001984600802613842565b1980831691505092915050565b6000613879838361384f565b9150826002028217905092915050565b61389282612b28565b67ffffffffffffffff8111156138ab576138aa612f9b565b5b6138b58254613321565b6138c08282856137fc565b600060209050601f8311600181146138f357600084156138e1578287015190505b6138eb858261386d565b865550613953565b601f198416613901866136dd565b60005b8281101561392957848901518255600182019150602085019450602081019050613904565b868310156139465784890151613942601f89168261384f565b8355505b6001600288020188555050505b505050505050565b600081519050919050565b600082825260208201905092915050565b60006139828261395b565b61398c8185613966565b935061399c818560208601612b44565b6139a581612b6e565b840191505092915050565b60006080820190506139c56000830187612c65565b6139d26020830186612c65565b6139df6040830185612afe565b81810360608301526139f18184613977565b905095945050505050565b600081519050613a0b81612a65565b92915050565b600060208284031215613a2757613a26612a2f565b5b6000613a35848285016139fc565b91505092915050565b6000604082019050613a536000830185612c65565b613a606020830184612afe565b939250505056fea2646970667358221220c89fa304c40c8d6052556cc8bf6f3aea74d53522aaa824d99acb98192f00745464736f6c63430008180033",
  "linkReferences": {},
  "deployedLinkReferences": {}
}