{
  "_format": "hh-sol-artifact-1",
  "contractName": "NFTSTORE",
  "sourceName": "contracts/NFTSTORE.sol",
  "abi": [
    {
      "inputs": [],
      "stateMutability": "nonpayable",
      "type": "constructor"
    },
    {
      "inputs": [
        {
          "internalType": "address",
          "name": "sender",
          "type": "address"
        },
        {
          "internalType": "uint256",
          "name": "tokenId",
          "type": "uint256"
        },
        {
          "internalType": "address",
          "name": "owner",
          "type": "address"
        }
      ],
      "name": "ERC721IncorrectOwner",
      "type": "error"
    },
    {
      "inputs": [
        {
          "internalType": "address",
          "name": "operator",
          "type": "address"
        },
        {
          "internalType": "uint256",
          "name": "tokenId",
          "type": "uint256"
        }
      ],
      "name": "ERC721InsufficientApproval",
      "type": "error"
    },
    {
      "inputs": [
        {
          "internalType": "address",
          "name": "approver",
          "type": "address"
        }
      ],
      "name": "ERC721InvalidApprover",
      "type": "error"
    },
    {
      "inputs": [
        {
          "internalType": "address",
          "name": "operator",
          "type": "address"
        }
      ],
      "name": "ERC721InvalidOperator",
      "type": "error"
    },
    {
      "inputs": [
        {
          "internalType": "address",
          "name": "owner",
          "type": "address"
        }
      ],
      "name": "ERC721InvalidOwner",
      "type": "error"
    },
    {
      "inputs": [
        {
          "internalType": "address",
          "name": "receiver",
          "type": "address"
        }
      ],
      "name": "ERC721InvalidReceiver",
      "type": "error"
    },
    {
      "inputs": [
        {
          "internalType": "address",
          "name": "sender",
          "type": "address"
        }
      ],
      "name": "ERC721InvalidSender",
      "type": "error"
    },
    {
      "inputs": [
        {
          "internalType": "uint256",
          "name": "tokenId",
          "type": "uint256"
        }
      ],
      "name": "ERC721NonexistentToken",
      "type": "error"
    },
    {
      "anonymous": false,
      "inputs": [
        {
          "indexed": true,
          "internalType": "address",
          "name": "owner",
          "type": "address"
        },
        {
          "indexed": true,
          "internalType": "address",
          "name": "approved",
          "type": "address"
        },
        {
          "indexed": true,
          "internalType": "uint256",
          "name": "tokenId",
          "type": "uint256"
        }
      ],
      "name": "Approval",
      "type": "event"
    },
    {
      "anonymous": false,
      "inputs": [
        {
          "indexed": true,
          "internalType": "address",
          "name": "owner",
          "type": "address"
        },
        {
          "indexed": true,
          "internalType": "address",
          "name": "operator",
          "type": "address"
        },
        {
          "indexed": false,
          "internalType": "bool",
          "name": "approved",
          "type": "bool"
        }
      ],
      "name": "ApprovalForAll",
      "type": "event"
    },
    {
      "anonymous": false,
      "inputs": [
        {
          "indexed": false,
          "internalType": "uint256",
          "name": "_fromTokenId",
          "type": "uint256"
        },
        {
          "indexed": false,
          "internalType": "uint256",
          "name": "_toTokenId",
          "type": "uint256"
        }
      ],
      "name": "BatchMetadataUpdate",
      "type": "event"
    },
    {
      "anonymous": false,
      "inputs": [
        {
          "indexed": false,
          "internalType": "uint256",
          "name": "_tokenId",
          "type": "uint256"
        }
      ],
      "name": "MetadataUpdate",
      "type": "event"
    },
    {
      "anonymous": false,
      "inputs": [
        {
          "indexed": true,
          "internalType": "address",
          "name": "from",
          "type": "address"
        },
        {
          "indexed": true,
          "internalType": "address",
          "name": "to",
          "type": "address"
        },
        {
          "indexed": true,
          "internalType": "uint256",
          "name": "tokenId",
          "type": "uint256"
        }
      ],
      "name": "Transfer",
      "type": "event"
    },
    {
      "inputs": [
        {
          "internalType": "address",
          "name": "to",
          "type": "address"
        },
        {
          "internalType": "uint256",
          "name": "tokenId",
          "type": "uint256"
        }
      ],
      "name": "approve",
      "outputs": [],
      "stateMutability": "nonpayable",
      "type": "function"
    },
    {
      "inputs": [
        {
          "internalType": "uint256",
          "name": "_tokenId",
          "type": "uint256"
        },
        {
          "internalType": "uint256",
          "name": "_auctionDuration",
          "type": "uint256"
        }
      ],
      "name": "auctionNFT",
      "outputs": [],
      "stateMutability": "nonpayable",
      "type": "function"
    },
    {
      "inputs": [
        {
          "internalType": "address",
          "name": "owner",
          "type": "address"
        }
      ],
      "name": "balanceOf",
      "outputs": [
        {
          "internalType": "uint256",
          "name": "",
          "type": "uint256"
        }
      ],
      "stateMutability": "view",
      "type": "function"
    },
    {
      "inputs": [
        {
          "internalType": "uint256",
          "name": "_tokenId",
          "type": "uint256"
        }
      ],
      "name": "bid",
      "outputs": [],
      "stateMutability": "payable",
      "type": "function"
    },
    {
      "inputs": [
        {
          "internalType": "string",
          "name": "_tokenURI",
          "type": "string"
        },
        {
          "internalType": "uint256",
          "name": "_price",
          "type": "uint256"
        }
      ],
      "name": "createToken",
      "outputs": [
        {
          "internalType": "uint256",
          "name": "",
          "type": "uint256"
        }
      ],
      "stateMutability": "nonpayable",
      "type": "function"
    },
    {
      "inputs": [
        {
          "internalType": "uint256",
          "name": "_tokenId",
          "type": "uint256"
        }
      ],
      "name": "finalizeAuction",
      "outputs": [],
      "stateMutability": "nonpayable",
      "type": "function"
    },
    {
      "inputs": [],
      "name": "getAllListedNFTs",
      "outputs": [
        {
          "components": [
            {
              "internalType": "uint256",
              "name": "tokenId",
              "type": "uint256"
            },
            {
              "internalType": "address payable",
              "name": "owner",
              "type": "address"
            },
            {
              "internalType": "address payable",
              "name": "seller",
              "type": "address"
            },
            {
              "internalType": "address payable",
              "name": "creator",
              "type": "address"
            },
            {
              "internalType": "uint256",
              "name": "price",
              "type": "uint256"
            },
            {
              "internalType": "uint256",
              "name": "salesCount",
              "type": "uint256"
            },
            {
              "internalType": "uint256",
              "name": "lastTransactionTime",
              "type": "uint256"
            }
          ],
          "internalType": "struct NFTSTORE.nftListing[]",
          "name": "",
          "type": "tuple[]"
        }
      ],
      "stateMutability": "view",
      "type": "function"
    },
    {
      "inputs": [
        {
          "internalType": "uint256",
          "name": "tokenId",
          "type": "uint256"
        }
      ],
      "name": "getApproved",
      "outputs": [
        {
          "internalType": "address",
          "name": "",
          "type": "address"
        }
      ],
      "stateMutability": "view",
      "type": "function"
    },
    {
      "inputs": [],
      "name": "getAuctionedNFTs",
      "outputs": [
        {
          "components": [
            {
              "internalType": "uint256",
              "name": "tokenId",
              "type": "uint256"
            },
            {
              "internalType": "address payable",
              "name": "seller",
              "type": "address"
            },
            {
              "internalType": "uint256",
              "name": "startTime",
              "type": "uint256"
            },
            {
              "internalType": "uint256",
              "name": "endTime",
              "type": "uint256"
            },
            {
              "internalType": "uint256",
              "name": "highestBid",
              "type": "uint256"
            },
            {
              "internalType": "address payable",
              "name": "highestBidder",
              "type": "address"
            },
            {
              "internalType": "bool",
              "name": "active",
              "type": "bool"
            }
          ],
          "internalType": "struct NFTSTORE.Auction[]",
          "name": "",
          "type": "tuple[]"
        }
      ],
      "stateMutability": "view",
      "type": "function"
    },
    {
      "inputs": [],
      "name": "getCurrentTokenId",
      "outputs": [
        {
          "internalType": "uint256",
          "name": "",
          "type": "uint256"
        }
      ],
      "stateMutability": "view",
      "type": "function"
    },
    {
      "inputs": [],
      "name": "getListingFeePercent",
      "outputs": [
        {
          "internalType": "uint256",
          "name": "",
          "type": "uint256"
        }
      ],
      "stateMutability": "view",
      "type": "function"
    },
    {
      "inputs": [],
      "name": "getMyNFTs",
      "outputs": [
        {
          "components": [
            {
              "internalType": "uint256",
              "name": "tokenId",
              "type": "uint256"
            },
            {
              "internalType": "address payable",
              "name": "owner",
              "type": "address"
            },
            {
              "internalType": "address payable",
              "name": "seller",
              "type": "address"
            },
            {
              "internalType": "address payable",
              "name": "creator",
              "type": "address"
            },
            {
              "internalType": "uint256",
              "name": "price",
              "type": "uint256"
            },
            {
              "internalType": "uint256",
              "name": "salesCount",
              "type": "uint256"
            },
            {
              "internalType": "uint256",
              "name": "lastTransactionTime",
              "type": "uint256"
            }
          ],
          "internalType": "struct NFTSTORE.nftListing[]",
          "name": "",
          "type": "tuple[]"
        }
      ],
      "stateMutability": "view",
      "type": "function"
    },
    {
      "inputs": [
        {
          "internalType": "uint256",
          "name": "_tokenId",
          "type": "uint256"
        }
      ],
      "name": "getNFTListing",
      "outputs": [
        {
          "components": [
            {
              "internalType": "uint256",
              "name": "tokenId",
              "type": "uint256"
            },
            {
              "internalType": "address payable",
              "name": "owner",
              "type": "address"
            },
            {
              "internalType": "address payable",
              "name": "seller",
              "type": "address"
            },
            {
              "internalType": "address payable",
              "name": "creator",
              "type": "address"
            },
            {
              "internalType": "uint256",
              "name": "price",
              "type": "uint256"
            },
            {
              "internalType": "uint256",
              "name": "salesCount",
              "type": "uint256"
            },
            {
              "internalType": "uint256",
              "name": "lastTransactionTime",
              "type": "uint256"
            }
          ],
          "internalType": "struct NFTSTORE.nftListing",
          "name": "",
          "type": "tuple"
        }
      ],
      "stateMutability": "view",
      "type": "function"
    },
    {
      "inputs": [
        {
          "internalType": "uint256",
          "name": "_tokenId",
          "type": "uint256"
        }
      ],
      "name": "getPriceHistory",
      "outputs": [
        {
          "internalType": "uint256[]",
          "name": "",
          "type": "uint256[]"
        }
      ],
      "stateMutability": "view",
      "type": "function"
    },
    {
      "inputs": [],
      "name": "getRoyaltyPercent",
      "outputs": [
        {
          "internalType": "uint256",
          "name": "",
          "type": "uint256"
        }
      ],
      "stateMutability": "view",
      "type": "function"
    },
    {
      "inputs": [
        {
          "internalType": "address",
          "name": "owner",
          "type": "address"
        },
        {
          "internalType": "address",
          "name": "operator",
          "type": "address"
        }
      ],
      "name": "isApprovedForAll",
      "outputs": [
        {
          "internalType": "bool",
          "name": "",
          "type": "bool"
        }
      ],
      "stateMutability": "view",
      "type": "function"
    },
    {
      "inputs": [],
      "name": "listingFeePercent",
      "outputs": [
        {
          "internalType": "uint256",
          "name": "",
          "type": "uint256"
        }
      ],
      "stateMutability": "view",
      "type": "function"
    },
    {
      "inputs": [],
      "name": "marketplaceOwner",
      "outputs": [
        {
          "internalType": "address payable",
          "name": "",
          "type": "address"
        }
      ],
      "stateMutability": "view",
      "type": "function"
    },
    {
      "inputs": [],
      "name": "name",
      "outputs": [
        {
          "internalType": "string",
          "name": "",
          "type": "string"
        }
      ],
      "stateMutability": "view",
      "type": "function"
    },
    {
      "inputs": [
        {
          "internalType": "uint256",
          "name": "tokenId",
          "type": "uint256"
        }
      ],
      "name": "ownerOf",
      "outputs": [
        {
          "internalType": "address",
          "name": "",
          "type": "address"
        }
      ],
      "stateMutability": "view",
      "type": "function"
    },
    {
      "inputs": [],
      "name": "royaltyPercent",
      "outputs": [
        {
          "internalType": "uint256",
          "name": "",
          "type": "uint256"
        }
      ],
      "stateMutability": "view",
      "type": "function"
    },
    {
      "inputs": [
        {
          "internalType": "address",
          "name": "from",
          "type": "address"
        },
        {
          "internalType": "address",
          "name": "to",
          "type": "address"
        },
        {
          "internalType": "uint256",
          "name": "tokenId",
          "type": "uint256"
        }
      ],
      "name": "safeTransferFrom",
      "outputs": [],
      "stateMutability": "nonpayable",
      "type": "function"
    },
    {
      "inputs": [
        {
          "internalType": "address",
          "name": "from",
          "type": "address"
        },
        {
          "internalType": "address",
          "name": "to",
          "type": "address"
        },
        {
          "internalType": "uint256",
          "name": "tokenId",
          "type": "uint256"
        },
        {
          "internalType": "bytes",
          "name": "data",
          "type": "bytes"
        }
      ],
      "name": "safeTransferFrom",
      "outputs": [],
      "stateMutability": "nonpayable",
      "type": "function"
    },
    {
      "inputs": [
        {
          "internalType": "uint256",
          "name": "tokenId",
          "type": "uint256"
        }
      ],
      "name": "sellNFT",
      "outputs": [],
      "stateMutability": "payable",
      "type": "function"
    },
    {
      "inputs": [
        {
          "internalType": "address",
          "name": "operator",
          "type": "address"
        },
        {
          "internalType": "bool",
          "name": "approved",
          "type": "bool"
        }
      ],
      "name": "setApprovalForAll",
      "outputs": [],
      "stateMutability": "nonpayable",
      "type": "function"
    },
    {
      "inputs": [
        {
          "internalType": "bytes4",
          "name": "interfaceId",
          "type": "bytes4"
        }
      ],
      "name": "supportsInterface",
      "outputs": [
        {
          "internalType": "bool",
          "name": "",
          "type": "bool"
        }
      ],
      "stateMutability": "view",
      "type": "function"
    },
    {
      "inputs": [],
      "name": "symbol",
      "outputs": [
        {
          "internalType": "string",
          "name": "",
          "type": "string"
        }
      ],
      "stateMutability": "view",
      "type": "function"
    },
    {
      "inputs": [
        {
          "internalType": "uint256",
          "name": "tokenId",
          "type": "uint256"
        }
      ],
      "name": "tokenURI",
      "outputs": [
        {
          "internalType": "string",
          "name": "",
          "type": "string"
        }
      ],
      "stateMutability": "view",
      "type": "function"
    },
    {
      "inputs": [
        {
          "internalType": "address",
          "name": "recipient",
          "type": "address"
        },
        {
          "internalType": "uint256",
          "name": "tokenId",
          "type": "uint256"
        }
      ],
      "name": "tradeNFT",
      "outputs": [],
      "stateMutability": "nonpayable",
      "type": "function"
    },
    {
      "inputs": [
        {
          "internalType": "address",
          "name": "from",
          "type": "address"
        },
        {
          "internalType": "address",
          "name": "to",
          "type": "address"
        },
        {
          "internalType": "uint256",
          "name": "tokenId",
          "type": "uint256"
        }
      ],
      "name": "transferFrom",
      "outputs": [],
      "stateMutability": "nonpayable",
      "type": "function"
    },
    {
      "inputs": [
        {
          "internalType": "uint256",
          "name": "_listingFeePercent",
          "type": "uint256"
        }
      ],
      "name": "updateListingFeePercent",
      "outputs": [],
      "stateMutability": "nonpayable",
      "type": "function"
    },
    {
      "inputs": [
        {
          "internalType": "uint256",
          "name": "_royaltyPercent",
          "type": "uint256"
        }
      ],
      "name": "updateRoyaltyPercent",
      "outputs": [],
      "stateMutability": "nonpayable",
      "type": "function"
    }
  ],
  "bytecode": "0x6080604052601460085560056009553480156200001b57600080fd5b506040518060400160405280600881526020017f4e465453544f52450000000000000000000000000000000000000000000000008152506040518060400160405280600381526020017f4e4653000000000000000000000000000000000000000000000000000000000081525081600090816200009991906200036f565b508060019081620000ab91906200036f565b50505033600760006101000a81548173ffffffffffffffffffffffffffffffffffffffff021916908373ffffffffffffffffffffffffffffffffffffffff16021790555062000456565b600081519050919050565b7f4e487b7100000000000000000000000000000000000000000000000000000000600052604160045260246000fd5b7f4e487b7100000000000000000000000000000000000000000000000000000000600052602260045260246000fd5b600060028204905060018216806200017757607f821691505b6020821081036200018d576200018c6200012f565b5b50919050565b60008190508160005260206000209050919050565b60006020601f8301049050919050565b600082821b905092915050565b600060088302620001f77fffffffffffffffffffffffffffffffffffffffffffffffffffffffffffffffff82620001b8565b620002038683620001b8565b95508019841693508086168417925050509392505050565b6000819050919050565b6000819050919050565b6000620002506200024a62000244846200021b565b62000225565b6200021b565b9050919050565b6000819050919050565b6200026c836200022f565b620002846200027b8262000257565b848454620001c5565b825550505050565b600090565b6200029b6200028c565b620002a881848462000261565b505050565b5b81811015620002d057620002c460008262000291565b600181019050620002ae565b5050565b601f8211156200031f57620002e98162000193565b620002f484620001a8565b8101602085101562000304578190505b6200031c6200031385620001a8565b830182620002ad565b50505b505050565b600082821c905092915050565b6000620003446000198460080262000324565b1980831691505092915050565b60006200035f838362000331565b9150826002028217905092915050565b6200037a82620000f5565b67ffffffffffffffff81111562000396576200039562000100565b5b620003a282546200015e565b620003af828285620002d4565b600060209050601f831160018114620003e75760008415620003d2578287015190505b620003de858262000351565b8655506200044e565b601f198416620003f78662000193565b60005b828110156200042157848901518255600182019150602085019450602081019050620003fa565b868310156200044157848901516200043d601f89168262000331565b8355505b6001600288020188555050505b505050505050565b614fcf80620004666000396000f3fe6080604052600436106101e35760003560e01c80636352211e11610102578063ac6a918511610095578063e985e9c511610064578063e985e9c5146106f9578063ee9cdfb314610736578063f6ef436814610752578063fd1a98a51461077b576101e3565b8063ac6a918514610641578063b88d4fde1461066a578063c87b56dd14610693578063e8083863146106d0576101e3565b806374bfb815116100d157806374bfb8151461059757806395d89b41146105c25780639f67756d146105ed578063a22cb46514610618576101e3565b80636352211e146104b5578063650025a0146104f257806370a082311461051d57806372b3b6201461055a576101e3565b806342842e0e1161017a57806360ed87fd1161014957806360ed87fd1461040b5780636151ff2e14610434578063629cb2e41461045f57806362adec701461048a576101e3565b806342842e0e14610370578063454a2ab3146103995780634b58ffaa146103b557806356189236146103e0576101e3565b8063095ea7b3116101b6578063095ea7b3146102b85780630ea59c4b146102e1578063102389ed1461031e57806323b872dd14610347576101e3565b806301ffc9a7146101e857806306fc12451461022557806306fdde0314610250578063081812fc1461027b575b600080fd5b3480156101f457600080fd5b5061020f600480360381019061020a9190613906565b6107b8565b60405161021c919061394e565b60405180910390f35b34801561023157600080fd5b5061023a610819565b6040516102479190613982565b60405180910390f35b34801561025c57600080fd5b50610265610823565b6040516102729190613a2d565b60405180910390f35b34801561028757600080fd5b506102a2600480360381019061029d9190613a7b565b6108b5565b6040516102af9190613ae9565b60405180910390f35b3480156102c457600080fd5b506102df60048036038101906102da9190613b30565b6108d1565b005b3480156102ed57600080fd5b5061030860048036038101906103039190613a7b565b6108e7565b6040516103159190613c2e565b60405180910390f35b34801561032a57600080fd5b5061034560048036038101906103409190613c49565b610a3e565b005b34801561035357600080fd5b5061036e60048036038101906103699190613c89565b610ca0565b005b34801561037c57600080fd5b5061039760048036038101906103929190613c89565b610da2565b005b6103b360048036038101906103ae9190613a7b565b610dc2565b005b3480156103c157600080fd5b506103ca611029565b6040516103d79190613e19565b60405180910390f35b3480156103ec57600080fd5b506103f561123a565b6040516104029190613982565b60405180910390f35b34801561041757600080fd5b50610432600480360381019061042d9190613a7b565b611244565b005b34801561044057600080fd5b506104496112de565b6040516104569190613982565b60405180910390f35b34801561046b57600080fd5b506104746112e4565b6040516104819190613e19565b60405180910390f35b34801561049657600080fd5b5061049f6116fc565b6040516104ac9190613982565b60405180910390f35b3480156104c157600080fd5b506104dc60048036038101906104d79190613a7b565b611706565b6040516104e99190613ae9565b60405180910390f35b3480156104fe57600080fd5b50610507611718565b6040516105149190613e4a565b60405180910390f35b34801561052957600080fd5b50610544600480360381019061053f9190613e65565b61173e565b6040516105519190613982565b60405180910390f35b34801561056657600080fd5b50610581600480360381019061057c9190613fc7565b6117f8565b60405161058e9190613982565b60405180910390f35b3480156105a357600080fd5b506105ac611883565b6040516105b9919061416f565b60405180910390f35b3480156105ce57600080fd5b506105d7611a90565b6040516105e49190613a2d565b60405180910390f35b3480156105f957600080fd5b50610602611b22565b60405161060f9190613982565b60405180910390f35b34801561062457600080fd5b5061063f600480360381019061063a91906141bd565b611b28565b005b34801561064d57600080fd5b5061066860048036038101906106639190613a7b565b611b3e565b005b34801561067657600080fd5b50610691600480360381019061068c919061429e565b611bd8565b005b34801561069f57600080fd5b506106ba60048036038101906106b59190613a7b565b611bf5565b6040516106c79190613a2d565b60405180910390f35b3480156106dc57600080fd5b506106f760048036038101906106f29190613a7b565b611d08565b005b34801561070557600080fd5b50610720600480360381019061071b9190614321565b611ef3565b60405161072d919061394e565b60405180910390f35b610750600480360381019061074b9190613a7b565b611f87565b005b34801561075e57600080fd5b5061077960048036038101906107749190613b30565b6122e9565b005b34801561078757600080fd5b506107a2600480360381019061079d9190613a7b565b6124ef565b6040516107af9190614410565b60405180910390f35b6000634906490660e01b7bffffffffffffffffffffffffffffffffffffffffffffffffffffffff1916827bffffffffffffffffffffffffffffffffffffffffffffffffffffffff1916148061081257506108118261255a565b5b9050919050565b6000600854905090565b60606000805461083290614461565b80601f016020809104026020016040519081016040528092919081815260200182805461085e90614461565b80156108ab5780601f10610880576101008083540402835291602001916108ab565b820191906000526020600020905b81548152906001019060200180831161088e57829003601f168201915b5050505050905090565b60006108c08261263c565b506108ca826126c4565b9050919050565b6108e382826108de612701565b612709565b5050565b6108ef6137b0565b600c60008381526020019081526020016000206040518060e0016040529081600082015481526020016001820160009054906101000a900473ffffffffffffffffffffffffffffffffffffffff1673ffffffffffffffffffffffffffffffffffffffff1673ffffffffffffffffffffffffffffffffffffffff1681526020016002820160009054906101000a900473ffffffffffffffffffffffffffffffffffffffff1673ffffffffffffffffffffffffffffffffffffffff1673ffffffffffffffffffffffffffffffffffffffff1681526020016003820160009054906101000a900473ffffffffffffffffffffffffffffffffffffffff1673ffffffffffffffffffffffffffffffffffffffff1673ffffffffffffffffffffffffffffffffffffffff16815260200160048201548152602001600582015481526020016006820154815250509050919050565b3373ffffffffffffffffffffffffffffffffffffffff16610a5e83611706565b73ffffffffffffffffffffffffffffffffffffffff1614610ab4576040517f08c379a0000000000000000000000000000000000000000000000000000000008152600401610aab906144de565b60405180910390fd5b600e600083815260200190815260200160002060050160149054906101000a900460ff1615610b18576040517f08c379a0000000000000000000000000000000000000000000000000000000008152600401610b0f9061454a565b60405180910390fd5b6040518060e001604052808381526020013373ffffffffffffffffffffffffffffffffffffffff1681526020014281526020018242610b579190614599565b815260200160008152602001600073ffffffffffffffffffffffffffffffffffffffff16815260200160011515815250600e60008481526020019081526020016000206000820151816000015560208201518160010160006101000a81548173ffffffffffffffffffffffffffffffffffffffff021916908373ffffffffffffffffffffffffffffffffffffffff16021790555060408201518160020155606082015181600301556080820151816004015560a08201518160050160006101000a81548173ffffffffffffffffffffffffffffffffffffffff021916908373ffffffffffffffffffffffffffffffffffffffff16021790555060c08201518160050160146101000a81548160ff021916908315150217905550905050600f8290806001815401808255809150506001900390600052602060002001600090919091909150555050565b600073ffffffffffffffffffffffffffffffffffffffff168273ffffffffffffffffffffffffffffffffffffffff1603610d125760006040517f64a0ae92000000000000000000000000000000000000000000000000000000008152600401610d099190613ae9565b60405180910390fd5b6000610d268383610d21612701565b61271b565b90508373ffffffffffffffffffffffffffffffffffffffff168173ffffffffffffffffffffffffffffffffffffffff1614610d9c578382826040517f64283d7b000000000000000000000000000000000000000000000000000000008152600401610d93939291906145cd565b60405180910390fd5b50505050565b610dbd83838360405180602001604052806000815250611bd8565b505050565b6000600e600083815260200190815260200160002090508060050160149054906101000a900460ff16610e2a576040517f08c379a0000000000000000000000000000000000000000000000000000000008152600401610e2190614650565b60405180910390fd5b80600301544210610e70576040517f08c379a0000000000000000000000000000000000000000000000000000000008152600401610e67906146bc565b60405180910390fd5b80600401543411610eb6576040517f08c379a0000000000000000000000000000000000000000000000000000000008152600401610ead90614728565b60405180910390fd5b600073ffffffffffffffffffffffffffffffffffffffff168160050160009054906101000a900473ffffffffffffffffffffffffffffffffffffffff1673ffffffffffffffffffffffffffffffffffffffff1614610f7e578060050160009054906101000a900473ffffffffffffffffffffffffffffffffffffffff1673ffffffffffffffffffffffffffffffffffffffff166108fc82600401549081150290604051600060405180830381858888f19350505050158015610f7c573d6000803e3d6000fd5b505b348160040181905550338160050160006101000a81548173ffffffffffffffffffffffffffffffffffffffff021916908373ffffffffffffffffffffffffffffffffffffffff1602179055506000600c60008481526020019081526020016000209050348160040181905550600d6000848152602001908152602001600020349080600181540180825580915050600190039060005260206000200160009091909190915055505050565b60606000600a54905060008167ffffffffffffffff81111561104e5761104d613e9c565b5b60405190808252806020026020018201604052801561108757816020015b6110746137b0565b81526020019060019003908161106c5790505b5090506000805b838110156112305760006001826110a59190614599565b90506000600c60008381526020019081526020016000209050806040518060e0016040529081600082015481526020016001820160009054906101000a900473ffffffffffffffffffffffffffffffffffffffff1673ffffffffffffffffffffffffffffffffffffffff1673ffffffffffffffffffffffffffffffffffffffff1681526020016002820160009054906101000a900473ffffffffffffffffffffffffffffffffffffffff1673ffffffffffffffffffffffffffffffffffffffff1673ffffffffffffffffffffffffffffffffffffffff1681526020016003820160009054906101000a900473ffffffffffffffffffffffffffffffffffffffff1673ffffffffffffffffffffffffffffffffffffffff1673ffffffffffffffffffffffffffffffffffffffff168152602001600482015481526020016005820154815260200160068201548152505085858151811061120757611206614748565b5b602002602001018190525060018461121f9190614599565b93505050808060010191505061108e565b5081935050505090565b6000600a54905090565b600760009054906101000a900473ffffffffffffffffffffffffffffffffffffffff1673ffffffffffffffffffffffffffffffffffffffff163373ffffffffffffffffffffffffffffffffffffffff16146112d4576040517f08c379a00000000000000000000000000000000000000000000000000000000081526004016112cb906147c3565b60405180910390fd5b8060098190555050565b60085481565b60606000600a54905060008060005b83811015611405573373ffffffffffffffffffffffffffffffffffffffff16600c60006001846113239190614599565b815260200190815260200160002060010160009054906101000a900473ffffffffffffffffffffffffffffffffffffffff1673ffffffffffffffffffffffffffffffffffffffff1614806113e457503373ffffffffffffffffffffffffffffffffffffffff16600c600060018461139a9190614599565b815260200190815260200160002060020160009054906101000a900473ffffffffffffffffffffffffffffffffffffffff1673ffffffffffffffffffffffffffffffffffffffff16145b156113f85782806113f4906147e3565b9350505b80806001019150506112f3565b5060008267ffffffffffffffff81111561142257611421613e9c565b5b60405190808252806020026020018201604052801561145b57816020015b6114486137b0565b8152602001906001900390816114405790505b50905060005b848110156116f1573373ffffffffffffffffffffffffffffffffffffffff16600c60006001846114919190614599565b815260200190815260200160002060010160009054906101000a900473ffffffffffffffffffffffffffffffffffffffff1673ffffffffffffffffffffffffffffffffffffffff16148061155257503373ffffffffffffffffffffffffffffffffffffffff16600c60006001846115089190614599565b815260200190815260200160002060020160009054906101000a900473ffffffffffffffffffffffffffffffffffffffff1673ffffffffffffffffffffffffffffffffffffffff16145b156116e45760006001826115669190614599565b90506000600c60008381526020019081526020016000209050806040518060e0016040529081600082015481526020016001820160009054906101000a900473ffffffffffffffffffffffffffffffffffffffff1673ffffffffffffffffffffffffffffffffffffffff1673ffffffffffffffffffffffffffffffffffffffff1681526020016002820160009054906101000a900473ffffffffffffffffffffffffffffffffffffffff1673ffffffffffffffffffffffffffffffffffffffff1673ffffffffffffffffffffffffffffffffffffffff1681526020016003820160009054906101000a900473ffffffffffffffffffffffffffffffffffffffff1673ffffffffffffffffffffffffffffffffffffffff1673ffffffffffffffffffffffffffffffffffffffff16815260200160048201548152602001600582015481526020016006820154815250508486815181106116c8576116c7614748565b5b602002602001018190525084806116de906147e3565b95505050505b8080600101915050611461565b508094505050505090565b6000600954905090565b60006117118261263c565b9050919050565b600760009054906101000a900473ffffffffffffffffffffffffffffffffffffffff1681565b60008073ffffffffffffffffffffffffffffffffffffffff168273ffffffffffffffffffffffffffffffffffffffff16036117b15760006040517f89c62b640000000000000000000000000000000000000000000000000000000081526004016117a89190613ae9565b60405180910390fd5b600360008373ffffffffffffffffffffffffffffffffffffffff1673ffffffffffffffffffffffffffffffffffffffff168152602001908152602001600020549050919050565b600080821161183c576040517f08c379a000000000000000000000000000000000000000000000000000000000815260040161183390614877565b60405180910390fd5b600a600081548092919061184f906147e3565b91905055506000600a5490506118653382612935565b61186f8185612953565b61187981846129af565b8091505092915050565b60606000600f8054905067ffffffffffffffff8111156118a6576118a5613e9c565b5b6040519080825280602002602001820160405280156118df57816020015b6118cc61382f565b8152602001906001900390816118c45790505b5090506000805b600f80549050811015611a87576000600f828154811061190957611908614748565b5b90600052602060002001549050600e600082815260200190815260200160002060050160149054906101000a900460ff1615611a7957600e60008281526020019081526020016000206040518060e0016040529081600082015481526020016001820160009054906101000a900473ffffffffffffffffffffffffffffffffffffffff1673ffffffffffffffffffffffffffffffffffffffff1673ffffffffffffffffffffffffffffffffffffffff1681526020016002820154815260200160038201548152602001600482015481526020016005820160009054906101000a900473ffffffffffffffffffffffffffffffffffffffff1673ffffffffffffffffffffffffffffffffffffffff1673ffffffffffffffffffffffffffffffffffffffff1681526020016005820160149054906101000a900460ff161515151581525050848481518110611a5f57611a5e614748565b5b60200260200101819052508280611a75906147e3565b9350505b5080806001019150506118e6565b50819250505090565b606060018054611a9f90614461565b80601f0160208091040260200160405190810160405280929190818152602001828054611acb90614461565b8015611b185780601f10611aed57610100808354040283529160200191611b18565b820191906000526020600020905b815481529060010190602001808311611afb57829003601f168201915b5050505050905090565b60095481565b611b3a611b33612701565b8383612b76565b5050565b600760009054906101000a900473ffffffffffffffffffffffffffffffffffffffff1673ffffffffffffffffffffffffffffffffffffffff163373ffffffffffffffffffffffffffffffffffffffff1614611bce576040517f08c379a0000000000000000000000000000000000000000000000000000000008152600401611bc5906147c3565b60405180910390fd5b8060088190555050565b611be3848484610ca0565b611bef84848484612ce5565b50505050565b6060611c008261263c565b506000600660008481526020019081526020016000208054611c2190614461565b80601f0160208091040260200160405190810160405280929190818152602001828054611c4d90614461565b8015611c9a5780601f10611c6f57610100808354040283529160200191611c9a565b820191906000526020600020905b815481529060010190602001808311611c7d57829003601f168201915b505050505090506000611cab612e9c565b90506000815103611cc0578192505050611d03565b600082511115611cf5578082604051602001611cdd9291906148d3565b60405160208183030381529060405292505050611d03565b611cfe84612eb3565b925050505b919050565b6000600e600083815260200190815260200160002090508060050160149054906101000a900460ff16611d70576040517f08c379a0000000000000000000000000000000000000000000000000000000008152600401611d6790614943565b60405180910390fd5b8060030154421015611db7576040517f08c379a0000000000000000000000000000000000000000000000000000000008152600401611dae906149af565b60405180910390fd5b60008160050160146101000a81548160ff021916908315150217905550600073ffffffffffffffffffffffffffffffffffffffff168160050160009054906101000a900473ffffffffffffffffffffffffffffffffffffffff1673ffffffffffffffffffffffffffffffffffffffff1614611eef57611e7f8160010160009054906101000a900473ffffffffffffffffffffffffffffffffffffffff168260050160009054906101000a900473ffffffffffffffffffffffffffffffffffffffff1684612f1c565b8060010160009054906101000a900473ffffffffffffffffffffffffffffffffffffffff1673ffffffffffffffffffffffffffffffffffffffff166108fc82600401549081150290604051600060405180830381858888f19350505050158015611eed573d6000803e3d6000fd5b505b5050565b6000600560008473ffffffffffffffffffffffffffffffffffffffff1673ffffffffffffffffffffffffffffffffffffffff16815260200190815260200160002060008373ffffffffffffffffffffffffffffffffffffffff1673ffffffffffffffffffffffffffffffffffffffff16815260200190815260200160002060009054906101000a900460ff16905092915050565b6000600c6000838152602001908152602001600020905060008160040154905060008260020160009054906101000a900473ffffffffffffffffffffffffffffffffffffffff16905060008360030160009054906101000a900473ffffffffffffffffffffffffffffffffffffffff16905082341461203b576040517f08c379a000000000000000000000000000000000000000000000000000000000815260040161203290614a1b565b60405180910390fd5b600060646009548561204d9190614a3b565b6120579190614aac565b90506120888560010160009054906101000a900473ffffffffffffffffffffffffffffffffffffffff163388612f1c565b600060646008548661209a9190614a3b565b6120a49190614aac565b9050600760009054906101000a900473ffffffffffffffffffffffffffffffffffffffff1673ffffffffffffffffffffffffffffffffffffffff166108fc829081150290604051600060405180830381858888f1935050505015801561210e573d6000803e3d6000fd5b508273ffffffffffffffffffffffffffffffffffffffff166108fc839081150290604051600060405180830381858888f19350505050158015612155573d6000803e3d6000fd5b508373ffffffffffffffffffffffffffffffffffffffff166108fc83833461217d9190614add565b6121879190614add565b9081150290604051600060405180830381858888f193505050501580156121b2573d6000803e3d6000fd5b50338660010160006101000a81548173ffffffffffffffffffffffffffffffffffffffff021916908373ffffffffffffffffffffffffffffffffffffffff160217905550338660020160006101000a81548173ffffffffffffffffffffffffffffffffffffffff021916908373ffffffffffffffffffffffffffffffffffffffff16021790555085600501600081548092919061224e906147e3565b91905055504286600601819055506000606460028761226d9190614a3b565b6122779190614aac565b866122829190614599565b9050808760040181905550600d6000898152602001908152602001600020819080600181540180825580915050600190039060005260206000200160009091909190915055600b60008154809291906122da906147e3565b91905055505050505050505050565b3373ffffffffffffffffffffffffffffffffffffffff1661230982611706565b73ffffffffffffffffffffffffffffffffffffffff161461235f576040517f08c379a000000000000000000000000000000000000000000000000000000000815260040161235690614b83565b60405180910390fd5b600073ffffffffffffffffffffffffffffffffffffffff168273ffffffffffffffffffffffffffffffffffffffff16036123ce576040517f08c379a00000000000000000000000000000000000000000000000000000000081526004016123c590614bef565b60405180910390fd5b6123d9338383612f1c565b6000600c60008381526020019081526020016000209050828160010160006101000a81548173ffffffffffffffffffffffffffffffffffffffff021916908373ffffffffffffffffffffffffffffffffffffffff160217905550828160020160006101000a81548173ffffffffffffffffffffffffffffffffffffffff021916908373ffffffffffffffffffffffffffffffffffffffff160217905550600060646002836004015461248b9190614a3b565b6124959190614aac565b82600401546124a49190614add565b9050808260040181905550600d600084815260200190815260200160002081908060018154018082558091505060019003906000526020600020016000909190919091505550505050565b6060600d600083815260200190815260200160002080548060200260200160405190810160405280929190818152602001828054801561254e57602002820191906000526020600020905b81548152602001906001019080831161253a575b50505050509050919050565b60007f80ac58cd000000000000000000000000000000000000000000000000000000007bffffffffffffffffffffffffffffffffffffffffffffffffffffffff1916827bffffffffffffffffffffffffffffffffffffffffffffffffffffffff1916148061262557507f5b5e139f000000000000000000000000000000000000000000000000000000007bffffffffffffffffffffffffffffffffffffffffffffffffffffffff1916827bffffffffffffffffffffffffffffffffffffffffffffffffffffffff1916145b80612635575061263482613089565b5b9050919050565b600080612648836130f3565b9050600073ffffffffffffffffffffffffffffffffffffffff168173ffffffffffffffffffffffffffffffffffffffff16036126bb57826040517f7e2732890000000000000000000000000000000000000000000000000000000081526004016126b29190613982565b60405180910390fd5b80915050919050565b60006004600083815260200190815260200160002060009054906101000a900473ffffffffffffffffffffffffffffffffffffffff169050919050565b600033905090565b6127168383836001613130565b505050565b600080612727846130f3565b9050600073ffffffffffffffffffffffffffffffffffffffff168373ffffffffffffffffffffffffffffffffffffffff1614612769576127688184866132f5565b5b600073ffffffffffffffffffffffffffffffffffffffff168173ffffffffffffffffffffffffffffffffffffffff16146127fa576127ab600085600080613130565b6001600360008373ffffffffffffffffffffffffffffffffffffffff1673ffffffffffffffffffffffffffffffffffffffff168152602001908152602001600020600082825403925050819055505b600073ffffffffffffffffffffffffffffffffffffffff168573ffffffffffffffffffffffffffffffffffffffff161461287d576001600360008773ffffffffffffffffffffffffffffffffffffffff1673ffffffffffffffffffffffffffffffffffffffff168152602001908152602001600020600082825401925050819055505b846002600086815260200190815260200160002060006101000a81548173ffffffffffffffffffffffffffffffffffffffff021916908373ffffffffffffffffffffffffffffffffffffffff160217905550838573ffffffffffffffffffffffffffffffffffffffff168273ffffffffffffffffffffffffffffffffffffffff167fddf252ad1be2c89b69c2b068fc378daa952ba7f163c4a11628f55a4df523b3ef60405160405180910390a4809150509392505050565b61294f8282604051806020016040528060008152506133b9565b5050565b806006600084815260200190815260200160002090816129739190614dbb565b507ff8e1a15aba9398e019f0b49df1a4fde98ee17ae345cb5f6b5e2c27f5033e8ce7826040516129a39190613982565b60405180910390a15050565b6040518060e001604052808381526020013373ffffffffffffffffffffffffffffffffffffffff1681526020013373ffffffffffffffffffffffffffffffffffffffff1681526020013373ffffffffffffffffffffffffffffffffffffffff1681526020018281526020016000815260200142815250600c60008481526020019081526020016000206000820151816000015560208201518160010160006101000a81548173ffffffffffffffffffffffffffffffffffffffff021916908373ffffffffffffffffffffffffffffffffffffffff16021790555060408201518160020160006101000a81548173ffffffffffffffffffffffffffffffffffffffff021916908373ffffffffffffffffffffffffffffffffffffffff16021790555060608201518160030160006101000a81548173ffffffffffffffffffffffffffffffffffffffff021916908373ffffffffffffffffffffffffffffffffffffffff1602179055506080820151816004015560a0820151816005015560c08201518160060155905050600d60008381526020019081526020016000208190806001815401808255809150506001900390600052602060002001600090919091909150555050565b600073ffffffffffffffffffffffffffffffffffffffff168273ffffffffffffffffffffffffffffffffffffffff1603612be757816040517f5b08ba18000000000000000000000000000000000000000000000000000000008152600401612bde9190613ae9565b60405180910390fd5b80600560008573ffffffffffffffffffffffffffffffffffffffff1673ffffffffffffffffffffffffffffffffffffffff16815260200190815260200160002060008473ffffffffffffffffffffffffffffffffffffffff1673ffffffffffffffffffffffffffffffffffffffff16815260200190815260200160002060006101000a81548160ff0219169083151502179055508173ffffffffffffffffffffffffffffffffffffffff168373ffffffffffffffffffffffffffffffffffffffff167f17307eab39ab6107e8899845ad3d59bd9653f200f220920489ca2b5937696c3183604051612cd8919061394e565b60405180910390a3505050565b60008373ffffffffffffffffffffffffffffffffffffffff163b1115612e96578273ffffffffffffffffffffffffffffffffffffffff1663150b7a02612d29612701565b8685856040518563ffffffff1660e01b8152600401612d4b9493929190614ee2565b6020604051808303816000875af1925050508015612d8757506040513d601f19601f82011682018060405250810190612d849190614f43565b60015b612e0b573d8060008114612db7576040519150601f19603f3d011682016040523d82523d6000602084013e612dbc565b606091505b506000815103612e0357836040517f64a0ae92000000000000000000000000000000000000000000000000000000008152600401612dfa9190613ae9565b60405180910390fd5b805181602001fd5b63150b7a0260e01b7bffffffffffffffffffffffffffffffffffffffffffffffffffffffff1916817bffffffffffffffffffffffffffffffffffffffffffffffffffffffff191614612e9457836040517f64a0ae92000000000000000000000000000000000000000000000000000000008152600401612e8b9190613ae9565b60405180910390fd5b505b50505050565b606060405180602001604052806000815250905090565b6060612ebe8261263c565b506000612ec9612e9c565b90506000815111612ee95760405180602001604052806000815250612f14565b80612ef3846133d5565b604051602001612f049291906148d3565b6040516020818303038152906040525b915050919050565b600073ffffffffffffffffffffffffffffffffffffffff168273ffffffffffffffffffffffffffffffffffffffff1603612f8e5760006040517f64a0ae92000000000000000000000000000000000000000000000000000000008152600401612f859190613ae9565b60405180910390fd5b6000612f9c8383600061271b565b9050600073ffffffffffffffffffffffffffffffffffffffff168173ffffffffffffffffffffffffffffffffffffffff160361300f57816040517f7e2732890000000000000000000000000000000000000000000000000000000081526004016130069190613982565b60405180910390fd5b8373ffffffffffffffffffffffffffffffffffffffff168173ffffffffffffffffffffffffffffffffffffffff1614613083578382826040517f64283d7b00000000000000000000000000000000000000000000000000000000815260040161307a939291906145cd565b60405180910390fd5b50505050565b60007f01ffc9a7000000000000000000000000000000000000000000000000000000007bffffffffffffffffffffffffffffffffffffffffffffffffffffffff1916827bffffffffffffffffffffffffffffffffffffffffffffffffffffffff1916149050919050565b60006002600083815260200190815260200160002060009054906101000a900473ffffffffffffffffffffffffffffffffffffffff169050919050565b80806131695750600073ffffffffffffffffffffffffffffffffffffffff168273ffffffffffffffffffffffffffffffffffffffff1614155b1561329d5760006131798461263c565b9050600073ffffffffffffffffffffffffffffffffffffffff168373ffffffffffffffffffffffffffffffffffffffff16141580156131e457508273ffffffffffffffffffffffffffffffffffffffff168173ffffffffffffffffffffffffffffffffffffffff1614155b80156131f757506131f58184611ef3565b155b1561323957826040517fa9fbf51f0000000000000000000000000000000000000000000000000000000081526004016132309190613ae9565b60405180910390fd5b811561329b57838573ffffffffffffffffffffffffffffffffffffffff168273ffffffffffffffffffffffffffffffffffffffff167f8c5be1e5ebec7d5bd14f71427d1e84f3dd0314c0f7b2291e5b200ac8c7c3b92560405160405180910390a45b505b836004600085815260200190815260200160002060006101000a81548173ffffffffffffffffffffffffffffffffffffffff021916908373ffffffffffffffffffffffffffffffffffffffff16021790555050505050565b6133008383836134a3565b6133b457600073ffffffffffffffffffffffffffffffffffffffff168373ffffffffffffffffffffffffffffffffffffffff160361337557806040517f7e27328900000000000000000000000000000000000000000000000000000000815260040161336c9190613982565b60405180910390fd5b81816040517f177e802f0000000000000000000000000000000000000000000000000000000081526004016133ab929190614f70565b60405180910390fd5b505050565b6133c38383613564565b6133d06000848484612ce5565b505050565b6060600060016133e48461365d565b01905060008167ffffffffffffffff81111561340357613402613e9c565b5b6040519080825280601f01601f1916602001820160405280156134355781602001600182028036833780820191505090505b509050600082602001820190505b600115613498578080600190039150507f3031323334353637383961626364656600000000000000000000000000000000600a86061a8153600a858161348c5761348b614a7d565b5b04945060008503613443575b819350505050919050565b60008073ffffffffffffffffffffffffffffffffffffffff168373ffffffffffffffffffffffffffffffffffffffff161415801561355b57508273ffffffffffffffffffffffffffffffffffffffff168473ffffffffffffffffffffffffffffffffffffffff16148061351c575061351b8484611ef3565b5b8061355a57508273ffffffffffffffffffffffffffffffffffffffff16613542836126c4565b73ffffffffffffffffffffffffffffffffffffffff16145b5b90509392505050565b600073ffffffffffffffffffffffffffffffffffffffff168273ffffffffffffffffffffffffffffffffffffffff16036135d65760006040517f64a0ae920000000000000000000000000000000000000000000000000000000081526004016135cd9190613ae9565b60405180910390fd5b60006135e48383600061271b565b9050600073ffffffffffffffffffffffffffffffffffffffff168173ffffffffffffffffffffffffffffffffffffffff16146136585760006040517f73c6ac6e00000000000000000000000000000000000000000000000000000000815260040161364f9190613ae9565b60405180910390fd5b505050565b600080600090507a184f03e93ff9f4daa797ed6e38ed64bf6a1f01000000000000000083106136bb577a184f03e93ff9f4daa797ed6e38ed64bf6a1f01000000000000000083816136b1576136b0614a7d565b5b0492506040810190505b6d04ee2d6d415b85acef810000000083106136f8576d04ee2d6d415b85acef810000000083816136ee576136ed614a7d565b5b0492506020810190505b662386f26fc10000831061372757662386f26fc10000838161371d5761371c614a7d565b5b0492506010810190505b6305f5e1008310613750576305f5e100838161374657613745614a7d565b5b0492506008810190505b612710831061377557612710838161376b5761376a614a7d565b5b0492506004810190505b60648310613798576064838161378e5761378d614a7d565b5b0492506002810190505b600a83106137a7576001810190505b80915050919050565b6040518060e0016040528060008152602001600073ffffffffffffffffffffffffffffffffffffffff168152602001600073ffffffffffffffffffffffffffffffffffffffff168152602001600073ffffffffffffffffffffffffffffffffffffffff1681526020016000815260200160008152602001600081525090565b6040518060e0016040528060008152602001600073ffffffffffffffffffffffffffffffffffffffff168152602001600081526020016000815260200160008152602001600073ffffffffffffffffffffffffffffffffffffffff1681526020016000151581525090565b6000604051905090565b600080fd5b600080fd5b60007fffffffff0000000000000000000000000000000000000000000000000000000082169050919050565b6138e3816138ae565b81146138ee57600080fd5b50565b600081359050613900816138da565b92915050565b60006020828403121561391c5761391b6138a4565b5b600061392a848285016138f1565b91505092915050565b60008115159050919050565b61394881613933565b82525050565b6000602082019050613963600083018461393f565b92915050565b6000819050919050565b61397c81613969565b82525050565b60006020820190506139976000830184613973565b92915050565b600081519050919050565b600082825260208201905092915050565b60005b838110156139d75780820151818401526020810190506139bc565b60008484015250505050565b6000601f19601f8301169050919050565b60006139ff8261399d565b613a0981856139a8565b9350613a198185602086016139b9565b613a22816139e3565b840191505092915050565b60006020820190508181036000830152613a4781846139f4565b905092915050565b613a5881613969565b8114613a6357600080fd5b50565b600081359050613a7581613a4f565b92915050565b600060208284031215613a9157613a906138a4565b5b6000613a9f84828501613a66565b91505092915050565b600073ffffffffffffffffffffffffffffffffffffffff82169050919050565b6000613ad382613aa8565b9050919050565b613ae381613ac8565b82525050565b6000602082019050613afe6000830184613ada565b92915050565b613b0d81613ac8565b8114613b1857600080fd5b50565b600081359050613b2a81613b04565b92915050565b60008060408385031215613b4757613b466138a4565b5b6000613b5585828601613b1b565b9250506020613b6685828601613a66565b9150509250929050565b613b7981613969565b82525050565b6000613b8a82613aa8565b9050919050565b613b9a81613b7f565b82525050565b60e082016000820151613bb66000850182613b70565b506020820151613bc96020850182613b91565b506040820151613bdc6040850182613b91565b506060820151613bef6060850182613b91565b506080820151613c026080850182613b70565b5060a0820151613c1560a0850182613b70565b5060c0820151613c2860c0850182613b70565b50505050565b600060e082019050613c436000830184613ba0565b92915050565b60008060408385031215613c6057613c5f6138a4565b5b6000613c6e85828601613a66565b9250506020613c7f85828601613a66565b9150509250929050565b600080600060608486031215613ca257613ca16138a4565b5b6000613cb086828701613b1b565b9350506020613cc186828701613b1b565b9250506040613cd286828701613a66565b9150509250925092565b600081519050919050565b600082825260208201905092915050565b6000819050602082019050919050565b60e082016000820151613d1e6000850182613b70565b506020820151613d316020850182613b91565b506040820151613d446040850182613b91565b506060820151613d576060850182613b91565b506080820151613d6a6080850182613b70565b5060a0820151613d7d60a0850182613b70565b5060c0820151613d9060c0850182613b70565b50505050565b6000613da28383613d08565b60e08301905092915050565b6000602082019050919050565b6000613dc682613cdc565b613dd08185613ce7565b9350613ddb83613cf8565b8060005b83811015613e0c578151613df38882613d96565b9750613dfe83613dae565b925050600181019050613ddf565b5085935050505092915050565b60006020820190508181036000830152613e338184613dbb565b905092915050565b613e4481613b7f565b82525050565b6000602082019050613e5f6000830184613e3b565b92915050565b600060208284031215613e7b57613e7a6138a4565b5b6000613e8984828501613b1b565b91505092915050565b600080fd5b600080fd5b7f4e487b7100000000000000000000000000000000000000000000000000000000600052604160045260246000fd5b613ed4826139e3565b810181811067ffffffffffffffff82111715613ef357613ef2613e9c565b5b80604052505050565b6000613f0661389a565b9050613f128282613ecb565b919050565b600067ffffffffffffffff821115613f3257613f31613e9c565b5b613f3b826139e3565b9050602081019050919050565b82818337600083830152505050565b6000613f6a613f6584613f17565b613efc565b905082815260208101848484011115613f8657613f85613e97565b5b613f91848285613f48565b509392505050565b600082601f830112613fae57613fad613e92565b5b8135613fbe848260208601613f57565b91505092915050565b60008060408385031215613fde57613fdd6138a4565b5b600083013567ffffffffffffffff811115613ffc57613ffb6138a9565b5b61400885828601613f99565b925050602061401985828601613a66565b9150509250929050565b600081519050919050565b600082825260208201905092915050565b6000819050602082019050919050565b61405881613933565b82525050565b60e0820160008201516140746000850182613b70565b5060208201516140876020850182613b91565b50604082015161409a6040850182613b70565b5060608201516140ad6060850182613b70565b5060808201516140c06080850182613b70565b5060a08201516140d360a0850182613b91565b5060c08201516140e660c085018261404f565b50505050565b60006140f8838361405e565b60e08301905092915050565b6000602082019050919050565b600061411c82614023565b614126818561402e565b93506141318361403f565b8060005b8381101561416257815161414988826140ec565b975061415483614104565b925050600181019050614135565b5085935050505092915050565b600060208201905081810360008301526141898184614111565b905092915050565b61419a81613933565b81146141a557600080fd5b50565b6000813590506141b781614191565b92915050565b600080604083850312156141d4576141d36138a4565b5b60006141e285828601613b1b565b92505060206141f3858286016141a8565b9150509250929050565b600067ffffffffffffffff82111561421857614217613e9c565b5b614221826139e3565b9050602081019050919050565b600061424161423c846141fd565b613efc565b90508281526020810184848401111561425d5761425c613e97565b5b614268848285613f48565b509392505050565b600082601f83011261428557614284613e92565b5b813561429584826020860161422e565b91505092915050565b600080600080608085870312156142b8576142b76138a4565b5b60006142c687828801613b1b565b94505060206142d787828801613b1b565b93505060406142e887828801613a66565b925050606085013567ffffffffffffffff811115614309576143086138a9565b5b61431587828801614270565b91505092959194509250565b60008060408385031215614338576143376138a4565b5b600061434685828601613b1b565b925050602061435785828601613b1b565b9150509250929050565b600081519050919050565b600082825260208201905092915050565b6000819050602082019050919050565b60006143998383613b70565b60208301905092915050565b6000602082019050919050565b60006143bd82614361565b6143c7818561436c565b93506143d28361437d565b8060005b838110156144035781516143ea888261438d565b97506143f5836143a5565b9250506001810190506143d6565b5085935050505092915050565b6000602082019050818103600083015261442a81846143b2565b905092915050565b7f4e487b7100000000000000000000000000000000000000000000000000000000600052602260045260246000fd5b6000600282049050600182168061447957607f821691505b60208210810361448c5761448b614432565b5b50919050565b7f596f7520617265206e6f7420746865206f776e65720000000000000000000000600082015250565b60006144c86015836139a8565b91506144d382614492565b602082019050919050565b600060208201905081810360008301526144f7816144bb565b9050919050565b7f416c72656164792061756374696f6e6564000000000000000000000000000000600082015250565b60006145346011836139a8565b915061453f826144fe565b602082019050919050565b6000602082019050818103600083015261456381614527565b9050919050565b7f4e487b7100000000000000000000000000000000000000000000000000000000600052601160045260246000fd5b60006145a482613969565b91506145af83613969565b92508282019050808211156145c7576145c661456a565b5b92915050565b60006060820190506145e26000830186613ada565b6145ef6020830185613973565b6145fc6040830184613ada565b949350505050565b7f4e4654206e6f7420696e2061756374696f6e0000000000000000000000000000600082015250565b600061463a6012836139a8565b915061464582614604565b602082019050919050565b600060208201905081810360008301526146698161462d565b9050919050565b7f41756374696f6e20656e64656400000000000000000000000000000000000000600082015250565b60006146a6600d836139a8565b91506146b182614670565b602082019050919050565b600060208201905081810360008301526146d581614699565b9050919050565b7f42696420746f6f206c6f77000000000000000000000000000000000000000000600082015250565b6000614712600b836139a8565b915061471d826146dc565b602082019050919050565b6000602082019050818103600083015261474181614705565b9050919050565b7f4e487b7100000000000000000000000000000000000000000000000000000000600052603260045260246000fd5b7f4f6e6c79204f776e65722043616e204163636573732054686973000000000000600082015250565b60006147ad601a836139a8565b91506147b882614777565b602082019050919050565b600060208201905081810360008301526147dc816147a0565b9050919050565b60006147ee82613969565b91507fffffffffffffffffffffffffffffffffffffffffffffffffffffffffffffffff82036148205761481f61456a565b5b600182019050919050565b7f5072696365206d7573742062652067726561746572207468616e207a65726f00600082015250565b6000614861601f836139a8565b915061486c8261482b565b602082019050919050565b6000602082019050818103600083015261489081614854565b9050919050565b600081905092915050565b60006148ad8261399d565b6148b78185614897565b93506148c78185602086016139b9565b80840191505092915050565b60006148df82856148a2565b91506148eb82846148a2565b91508190509392505050565b7f41756374696f6e206e6f74206163746976650000000000000000000000000000600082015250565b600061492d6012836139a8565b9150614938826148f7565b602082019050919050565b6000602082019050818103600083015261495c81614920565b9050919050565b7f41756374696f6e206e6f7420656e646564000000000000000000000000000000600082015250565b60006149996011836139a8565b91506149a482614963565b602082019050919050565b600060208201905081810360008301526149c88161498c565b9050919050565b7f506c6561736520706179207468652061736b696e672070726963650000000000600082015250565b6000614a05601b836139a8565b9150614a10826149cf565b602082019050919050565b60006020820190508181036000830152614a34816149f8565b9050919050565b6000614a4682613969565b9150614a5183613969565b9250828202614a5f81613969565b91508282048414831517614a7657614a7561456a565b5b5092915050565b7f4e487b7100000000000000000000000000000000000000000000000000000000600052601260045260246000fd5b6000614ab782613969565b9150614ac283613969565b925082614ad257614ad1614a7d565b5b828204905092915050565b6000614ae882613969565b9150614af383613969565b9250828203905081811115614b0b57614b0a61456a565b5b92915050565b7f596f7520617265206e6f7420746865206f776e6572206f662074686973204e4660008201527f5400000000000000000000000000000000000000000000000000000000000000602082015250565b6000614b6d6021836139a8565b9150614b7882614b11565b604082019050919050565b60006020820190508181036000830152614b9c81614b60565b9050919050565b7f496e76616c696420726563697069656e74206164647265737300000000000000600082015250565b6000614bd96019836139a8565b9150614be482614ba3565b602082019050919050565b60006020820190508181036000830152614c0881614bcc565b9050919050565b60008190508160005260206000209050919050565b60006020601f8301049050919050565b600082821b905092915050565b600060088302614c717fffffffffffffffffffffffffffffffffffffffffffffffffffffffffffffffff82614c34565b614c7b8683614c34565b95508019841693508086168417925050509392505050565b6000819050919050565b6000614cb8614cb3614cae84613969565b614c93565b613969565b9050919050565b6000819050919050565b614cd283614c9d565b614ce6614cde82614cbf565b848454614c41565b825550505050565b600090565b614cfb614cee565b614d06818484614cc9565b505050565b5b81811015614d2a57614d1f600082614cf3565b600181019050614d0c565b5050565b601f821115614d6f57614d4081614c0f565b614d4984614c24565b81016020851015614d58578190505b614d6c614d6485614c24565b830182614d0b565b50505b505050565b600082821c905092915050565b6000614d9260001984600802614d74565b1980831691505092915050565b6000614dab8383614d81565b9150826002028217905092915050565b614dc48261399d565b67ffffffffffffffff811115614ddd57614ddc613e9c565b5b614de78254614461565b614df2828285614d2e565b600060209050601f831160018114614e255760008415614e13578287015190505b614e1d8582614d9f565b865550614e85565b601f198416614e3386614c0f565b60005b82811015614e5b57848901518255600182019150602085019450602081019050614e36565b86831015614e785784890151614e74601f891682614d81565b8355505b6001600288020188555050505b505050505050565b600081519050919050565b600082825260208201905092915050565b6000614eb482614e8d565b614ebe8185614e98565b9350614ece8185602086016139b9565b614ed7816139e3565b840191505092915050565b6000608082019050614ef76000830187613ada565b614f046020830186613ada565b614f116040830185613973565b8181036060830152614f238184614ea9565b905095945050505050565b600081519050614f3d816138da565b92915050565b600060208284031215614f5957614f586138a4565b5b6000614f6784828501614f2e565b91505092915050565b6000604082019050614f856000830185613ada565b614f926020830184613973565b939250505056fea2646970667358221220bad37bd393d646dfffad2b3d16adaea027c61890638e082f5813c426075252a564736f6c63430008180033",
  "linkReferences": {},
  "deployedLinkReferences": {}
}